:020000040800F2
:100000005039002059020008AD3C0008373B000879
:10001000A93C0008FD05000831540008000000005C
:10002000000000000000000000000000D54F0008A4
:100030004D15000800000000F30100080151000800
:1000400073020008730200087302000873020008BC
:1000500073020008730200087302000873020008AC
:10006000730200087302000873020008730200089C
:10007000730200087302000873020008730200088C
:10008000730200087302000873020008730200087C
:1000900001060008730200087302000873020008DA
:1000A000730200087302000873020008730200085C
:1000B00073020008730200080000000073020008C9
:1000C000730200087302000873020008730200083C
:1000D000730200087302000873020008730200082C
:1000E000E51800087302000800000000000000008E
:1000F0000000000000000000000000000000000000
:1001000000000000730200080000000073020008F5
:1001100073020008000000007302000800000000E5
:1001200073020008730200087302000873020008DB
:100130007302000873020008730200080000000048
:1001400073020008730200087302000873020008BB
:1001500073020008730200087302000873020008AB
:100160007302000873020008730200080000000018
:100170000000000073020008000000000000000002
:10018000730200087302000873020008730200087B
:1001900073020008DFF80CD000F0E8F800480047D0
:1001A000295D000850390020EFF3108072B67047C7
:1001B00080F3108870471F484FF0FF010170002046
:1001C00080F309881C48016881F308881B480121D5
:1001D00001701B484FF08051016062B6FEE718487D
:1001E0004FF080510160704715484FF08051016019
:1001F000704772B6EFF3098028B1203880E8F00F1D
:1002000010490968086000B50F4880475DF804EBA5
:100210000E480F490A7802700A480E490A680260BF
:10022000106890E8F00F203080F309884EF0040E3B
:1002300062B6704722ED00E0340100201301002077
:1002400004ED00E01C010020654300080A010020C5
:100250000B01002024010020064880470648004783
:10026000FEE7FEE7FEE7FEE7FEE7FEE7FEE7FEE766
:10027000FEE7FEE7B1510008950100082DE9F05FA7
:100280000546002092469B46884606468146402405
:100290001BE0284641464746224600F056F85346A2
:1002A0005A46C01A914110D311461846224600F012
:1002B00019F82D1A67EB01084F462246012000214C
:1002C00000F010F817EB00094E41201EA4F10104C4
:1002D000DFDC484631462A46434600F000B830BCD1
:1002E000BDE8C09F202A04DB203A00FA02F100207A
:1002F00070479140C2F1200320FA03F31943904064
:10030000704740EA01039B0703D009E008C9121FA8
:1003100008C0042AFAD203E011F8013B00F8013BBF
:10032000521EF9D27047D2B201E000F8012B491EEB
:10033000FBD270470022F6E710B513460A46044682
:100340001946FFF7F0FF204610BD202A04DB203AB3
:1003500021FA02F00021704721FA02F3D040C2F1E5
:10036000200291400843194670470000064C074D93
:1003700006E0E06840F0010394E807009847103475
:10038000AC42F6D3FFF70AFFE860000808610008F6
:1003900070B58C1810F8015B15F0070301D110F847
:1003A000013B2A1106D110F8012B03E010F8016B74
:1003B00001F8016B5B1EF9D12B0705D40023521EF7
:1003C0000DD401F8013BFAE710F8013BCB1A921C5F
:1003D00003E013F8015B01F8015B521EF9D5A1425D
:1003E000D8D3002070BD70B505460E46284601F0F2
:1003F0000DFB04461CB13146206805F0D7F870BDEE
:1004000070B504460D46B4F80760607A0B2805D134
:100410002A462146304600F09BF817E0607A0D2806
:1004200014D10B488088B04205D12A462146304677
:1004300000F044F804E00648406A401C0449486261
:10044000002000F04FFF002000F0A4FE70BD00006F
:10045000C81200200149086000BFFEE71C00002010
:1004600070B504460D4601201249488008460069CF
:10047000401C08611048B4F80510A0F805100022CF
:1004800001460C2001F039F8012200210C2001F076
:1004900047F808484069401C06494861002000F0C0
:1004A00089FF10B10120FFF7D5FF022001494880E4
:1004B00070BD0000C81200203000002070B58CB064
:1004C00004460D46164605201D4948800846006A28
:1004D000401C086201F0FAFA1A4AC2E9040101F06C
:1004E000C9FA184AC2E90A011146174801F02EFA62
:1004F000144918311448401D01F028FA11492031DF
:1005000011480A3001F022FA0AA820220D491031C0
:1005100008906846FFF7F5FE0A480FC805F03EFA56
:100520000A490A98088001F0C5F908480188204660
:10053000FFF759FF0020024948800CB070BD000051
:10054000C8120020F812002092120020180000208B
:100550002DE9F04104460E46174600BF03201C4912
:10056000488008468069401C88610846848021468E
:10057000184804F0B7FD01F07DFA174AC2E90201FC
:100580000F21144800F02AF8962000F090FE40F663
:10059000B83000F0A7FE01F083FA0F48D0E902302E
:1005A0004FF016729A1840F10000010641EA122538
:1005B000284600F049FE032000F0FCFE10B10220A6
:1005C00000F0F8FE042002494880BDE8F0810000F8
:1005D000C812002048000020F812002070B5044620
:1005E0000D462946204601F06FF90348C069401CBA
:1005F0000149C86170BD0000C812002000BFFEE7BD
:1006000010B5024801F08AFC10BD00001017002050
:100610000FB470B58AB00446169D049512A80FC891
:100620008DE80F0006A80FA90EC905F0EDFB04EB3D
:10063000041000EB8000254901EB8000B0F84E115A
:1006400004EB041000EB8000204A02EB8000B0F8BD
:100650004E01401C04EB041202EB82021B4B03EB25
:100660008202A2F84E0104EB041000EB80001A464F
:1006700002EB8000AC3000EB011006A94EC94EC061
:1006800004EB041000EB8000104901EB8000B0F88F
:100690004E010A2190FBF1F201FB120004EB041160
:1006A00001EB8101094A02EB8101A1F84E0104EB43
:1006B000041101EB810102EB8101D1F8500103F03B
:1006C0006DFC0AB070BC5DF814FB00006C170020D4
:1006D00010B58AB0044629482949086000212848F5
:1006E0000176417601218176C176002101770121D1
:1006F000417700218160C1604FF400310161C90080
:10070000416102F00DFB1F490860084600684FF484
:100710007A71B0FBF1F0B0FBF4F00621B0FBF1F020
:1007200017494860084601F023FD08B100F032F98E
:100730000020059006900120079000200090019075
:10074000029003900490012008900E2009906946C1
:100750000B4801F09FFA08B100F01CF9084801F0BD
:10076000E4FD08B100F016F90221054801F0D2F9C4
:1007700008B100F00FF90AB010BD0000006400409D
:1007800010170020CC000020F0B503460C460020D6
:100790000025002600212FE05E5C671E8F4216DDDB
:1007A0004F1CDD5D02110707380E82EA2517DFF8BE
:1007B00050C01CF80770784002110707380E05F08A
:1007C0000F0757401CF8077078404F1CF9B2021110
:1007D0000707380E82EA2617DFF824C01CF80770D6
:1007E000784002110707380E06F00F0757401CF833
:1007F000077078404F1CF9B2A142CDDBF0BD00007C
:10080000E500002000B587B000F0C6F8002000F039
:10081000A5F8032000214FF48072184BCDE9013276
:10082000CDE9031004200346154A0090154803F053
:1008300007FC06909DF8180020B906AA12A1042012
:1008400003F004FD032000214FF48072114BCDE929
:100850000132CDE903100A2003460F4A00900F48E9
:1008600003F0EEFB06909DF8180020B906AA0CA133
:100870000A2003F0EBFC07B000BD0000C018002008
:10088000BC1C0020590A000843616E205278205495
:1008900061736B00C01C0020BC2000209D0A000872
:1008A00043414E205458205441534B0010B5044648
:1008B0004FF484712046FFF73DFD002003F0CEFA8F
:1008C000C4F8040110BD30B50246B2F80201B2F816
:1008D0000031984202D14FF0FF3030BDB2F8000134
:1008E00002EB001539CD81E83900B2F80001401C57
:1008F000A2F80001B2F80001C31700EB13731B113B
:10090000A0EB0313A2F800310020E6E70FB470B5A6
:1009100004460025B4F8020104EB001005A94EC9F5
:100920004EC004F580746088401C60806088C117E8
:1009300000EB11710911A0EB011161806088218821
:10094000A4F58074884200D16D1ED4F8040103F030
:1009500025FB284670BC5DF814FB000010B504466A
:1009600004EB041101EB8101094A02EB81004FF411
:10097000AA71FFF7DFFC002003F070FA04EB04110A
:1009800001EB8101024A02EB8101C1F8500110BD67
:100990006C17002000BFFEE700B587B0142102A845
:1009A000FFF7C8FC00BF2048806D40F000701E4972
:1009B00088650846806D00F00070019000BF00BFA0
:1009C00000BF0846C06C40F00100C8640846C06C17
:1009D00000F00100019000BF00BF881402900220C7
:1009E000039003200590012004900920069002A99D
:1009F000C00601F0E3FC4FF4006002900220039077
:100A000003200590012004900920069002A9C00649
:100A100001F0D4FC00220221142001F014FE142065
:100A200001F004FE07B000BD001002401FB50948E8
:100A3000006810B101280AD104E09DE80F0003F01E
:100A40007DF805E09DE80F0003F062F900E000BFCB
:100A500000BF1FBDD0000020002003F0FFF90C49AB
:100A60000860C820FFF734FE10E01022094900207A
:100A700000F08CFD044604F10A0018B90020064974
:100A8000086003E003480FC8FFF7D0FFEDE7000060
:100A9000DC000020C8210020D00000208CB02848B5
:100AA000FFF704FF4BE027480068A8B90020034681
:100AB00002460146009003A804F08EFA042001903B
:100AC00006980090002003A90EC904F047FA4FF4DD
:100AD000FA7003F049FC32E019490BAAD1F804017D
:100AE0004FF47A6103F0E4F99DF82C0090B907A95E
:100AF0001348FFF7E8FE48B9042001900A980090D7
:100B0000002007A90EC904F029FA18E000200D49B9
:100B1000086014E09DF82C000A2810D1002003463C
:100B200002460621009003A804F056FA0420019022
:100B300006980090002003A90EC904F00FFAB2E74E
:100B4000C0200020D00000200146C8888B88984231
:100B500003DDC8888B88C01A02E08888CB88C01A59
:100B600082B21E2A03DDC8888880012070470020D9
:100B7000FCE70146488B0A8B90420BD191F821008B
:100B8000022801DB0220704791F82100401C81F807
:100B9000210004E0088B4883002081F82100002018
:100BA000F1E70000014604488088884201DA01200C
:100BB00070470020FCE70000D400002000B587B09B
:100BC0000320002180220B4BCDE90132CDE9031037
:100BD00005200346084A0090084803F031FA0690C1
:100BE0009DF8180020B906AA05A1042003F02EFBE9
:100BF00007B000BDD4140020D0160020F95400081E
:100C0000757762206465627567205461736B0000BC
:100C100010B50446204605F037F910BD2DE9F05F08
:100C200004464FF00009CA4625786079864931F8B4
:100C300010806078401EC6B2042D01D0072D01D16E
:100C4000012000E000208346E07950B97F48006829
:100C5000406940F480007D49096848614FEAE8082E
:100C600007E07A480068406920F480007749096805
:100C70004861207A754909680872744800684069BB
:100C800020F4403071490968486170480068406943
:100C9000217A4FF4403202EA014108436B49096866
:100CA00048616A48006800214269042000F0D3FBD3
:100CB000424642F604012E2000F0BCFB304604F010
:100CC0008BFD634800F0DDF86248405D624951F8F1
:100CD000202007212B2000F0BEFB5E48405D5F49CD
:100CE0000A5C0B212B2000F0CAFB5D4810F80B209A
:100CF0000B21282000F0C3FB5648405D594951F8AC
:100D000020200C21282000F0A6FBE079564901EBB9
:100D10008000A17930F811200221272000F08AFB01
:100D2000524830F816200421272000F083FBE07998
:100D300028B964220621272000F07CFB17E0A07868
:100D400004280AD110220621272000F073FB10226C
:100D50002621272000F093FB09E0202206212720EE
:100D600000F068FB28222621272000F088FB40485D
:100D700000EB0610E17850F821200821272000F030
:100D80006AFB608910B941F24100608162892021CB
:100D9000272000F04FFB37480C210268232000F089
:100DA0005AFB3448001D30F816200421232000F09F
:100DB00041FBA07950B1E0792F490A5C0021212044
:100DC00000F05DFB4FF003094FF0010A05F00F0042
:100DD000F02101EA0511084361784FF4402202EA4C
:100DE00081410843910001EA095108434FF4003161
:100DF00001EA4A41084321794FF0F86202EA815141
:100E000008436179520102EAC16140EA01073A46AA
:100E100000211F2000F01FFBA07861780843000428
:100E2000E17940EA413009490968C860074800682B
:100E30000021C268082000F00EFB422200210D2094
:100E400000F01DFB00F01AB83C5F0008980000207D
:100E5000AC000020C05E0008E05E0008F85E0008FC
:100E6000FE5E0008C85E00080C5F0008185F0008FE
:100E70001C5F0008005F0008085F000830BCBDE888
:100E8000C09F10B5044622780B212A2000F0F7FA03
:100E900000211E20626800F0DEFA10BD70B5054624
:100EA0000021042000F0F7F80A4900EA010435B1F6
:100EB00024F4FF7405F4FF70401C044301E024F0A7
:100EC000010405480068446122460021042000F026
:100ED000C2FA70BDFFFF47F09800002070B50021F6
:100EE0000E2000F0D8F8054600F038FB044600223A
:100EF00011460E2000F0AFFA402200210D2000F034
:100F0000BEFA0A4A00210F2000F0A5FA04F0ECFE18
:100F10002A4600210E2000F09EFA204600F017FB22
:100F2000002003490968887670BD0000F8FF270497
:100F30009800002001480068006870479800002071
:100F40002DE9F041044600250027002046490968A4
:100F500048744549096888764349096808834249C5
:100F60000968886240490968C8623F49096808639E
:100F70003D490968486300F0AFF83C49884202D017
:100F80008817BDE8F08100F0F1F9002004F03DFC85
:100F900004220021242000F072FA1E2004F0C0FC7C
:100FA00085B2280A304909684872042004F0B8FC68
:100FB0000746F8B260B1022212212D2000F05FFA3C
:100FC00029480068008B40F480502749096808834D
:100FD000062004F0A5FC244909680860072004F0F5
:100FE0009FFC21490968486005F01F001E490968F7
:100FF00008741D480068007C18B910201A49096857
:10100000087419490968087C00F0A4F904F001008B
:1010100050B104F074FC14480068008B40F4006088
:101020001149096808830DE00521362000F020F8F9
:1010300006464FF6FF50064032460521362000F0A6
:10104000F9F900BF012004F0E0FB00220A212C2066
:1010500000F015FA0021042000F01DF8024909688B
:10106000486100208DE70000980000203001CADEB2
:10107000F8B504460D460026A9B2A0B26B4602227E
:1010800000F030F89DF800009DF8011000EB012001
:1010900086B23046F8BDF8B505460E460027B1B217
:1010A000A8B26B46042200F01DF8032404E01DF8EA
:1010B000040000EB0727641E002CF8DA3846F8BD60
:1010C00038B504460D46A9B2A0B26B46012200F025
:1010D00009F89DF8000038BD10B500210846FFF75B
:1010E000DAFF10BD2DE9F84306460C461746984630
:1010F00000252CB9F2B228466D1C0DF800201BE02B
:10110000F0B240F0400228466D1C0DF800207F2C04
:1011100005DCE2B228466D1C0DF800200CE0E0B2C0
:1011200040F0800228466D1C0DF80020C4F3C71261
:1011300028466D1C0DF8002043463A46694628466D
:1011400003F0B4FDBDE8F88370B504460D461646BD
:1011500023462A4631461120FFF7C4FF70BD10B563
:1011600004462346052200211520FFF7BBFF10BDD2
:1011700010B504462346052200210620FFF7B2FFE2
:1011800010BD10B504462346052200211720FFF7A5
:10119000A9FF10BD70B5044604F0040008B904F0BE
:1011A000A3FD4FF4807504F0010008B145F400750B
:1011B0002A4600210D2000F03DF904F00100A8B1FD
:1011C00003210F20FFF77CFF064606F0080068B1F8
:1011D000FFF784FE04F0020028B94FF4807200216A
:1011E0000D2000F027F94FF0FF3070BD0020FCE724
:1011F00010B5E0220321362000F041F9F02203214E
:10120000362000F03CF910BD10B5044622460021FE
:10121000032000F00FF910BD70B505460021042031
:10122000FFF739FF074900EA010415B144F0005403
:1012300001E024F0005422460021042000F00BF9C4
:1012400070BD0000FFFF47F010B5044622460121A3
:101250000A2000F000F910BD10B50446234608220C
:101260000021012000F015F910BD2DE9F0410446E0
:101270000E4600F073F9074600210E20FFF70BFF22
:1012800005460EB1254300E0A5432A4600210E2065
:1012900000F0E1F8384600F05AF9BDE8F08110B5E9
:1012A000044622460221032000F0C4F810BD70B5A8
:1012B000054600211A20FFF7EEFE04466FF31304E3
:1012C000C5F313000443224600211A2000F0C3F89E
:1012D00070BD10B50446224641F604012E2000F0F0
:1012E000A9F810BD70B5044603210420FFF7E8FEFD
:1012F0000546002C14DD224600210C2000F09AF84F
:1013000045F010050E480068406940F080500C49D7
:10131000096848612A460321042000F0B0F80EE075
:1013200025F0100506480068406920F08050044907
:10133000096848612A460321042000F0A0F870BD26
:101340009800002010B5044622460021182000F025
:1013500071F810BD70B5044604F01F0040F0600540
:101360002A460E212B2000F08AF870BD10B504F03B
:101370000AFB002211462C2000F05CF80022062116
:101380002C2000F07CF804F0E3FA00220321362040
:1013900000F075F80120FFF73BFCF0220321362016
:1013A00000F06DF8002002490968887610BD000041
:1013B000980000202DE9F041044600260025002772
:1013C00004F0020048B180252A4600210D2000F0DB
:1013D00056F8012016490968887604F00100E0B14A
:1013E00045F006052A4600210D2000F048F80321AB
:1013F0000F20FFF73DFE074607F4816008B900267D
:1014000012E040252A4600210D2000F038F8002087
:10141000074909688876461E06E045F002052A4617
:1014200000210D2000F02BF83046BDE8F0810000CF
:1014300098000020F8B505460E461446E0B28DF837
:10144000000020128DF80100B1B2A8B26B46022252
:1014500000F01FF8F8BDF8B506460F461446002503
:1014600004E0E0B20DF80500240A6D1C042DF8DB41
:10147000B9B2B0B26B46042200F00BF8F8BD37B534
:1014800004460D46A9B2A0B202AB012200F001F859
:101490003EBD2DE9F84306460C4617469846002502
:1014A0003CB9F0B240F0800228466D1C0DF80020D7
:1014B0001BE0F0B240F0C00228466D1C0DF8002081
:1014C0007F2C05DCE2B228466D1C0DF800200CE0F4
:1014D000E0B240F0800228466D1C0DF80020C4F3F5
:1014E000C71228466D1C0DF8002043463A4669464F
:1014F000284604F037F9BDE8F88370B504460E4677
:1015000015462819B0F5806F07DCA21E3346294620
:101510000920FFF7BEFF002070BD4FF0FF30FBE752
:101520002DE9F04104460D46164607480068C0689C
:10153000204340EA855040EAC6373A460021082059
:10154000FFF789FFBDE8F08198000020704710B5D3
:10155000044614B1282001F069F810BD10B54FF40D
:10156000004000F0C9F9044614B1282001F050F8F9
:10157000204610BD30B504460D462A462146024895
:1015800000F09FF830BD000028130020F8B5044695
:101590000D46164604EB041202EB82022E4B03EBBF
:1015A0008202518804EB041202EB820203EB8202F6
:1015B000D2F850016A4602F07BFC9DF800000A2830
:1015C00001D14042F8BD9DF80000E0BB04EB0410DF
:1015D00000EB8000204901EB8000B0F84C1104EBD7
:1015E000041000EB80001C4A02EB8000B0F84C01B4
:1015F000401C04EB041202EB8202174B03EB820245
:10160000A2F84C0104EB041000EB80001A4602EB38
:101610008000AC3000EB01130FCB85E80F0004EB2A
:10162000041000EB80000C4901EB8000B0F84C0185
:1016300009280BDD002004EB041101EB8101064AAF
:1016400002EB810100E003E0A1F84C010020B9E7C2
:101650006FF00A00B6E700006C1700200022037F3D
:10166000052B0EDA002104E0831C33F811301A44F4
:10167000491C037F8B42F7DC037FB2FBF3F3C38289
:1016800015E000210BE0C37F8B4207D090F820309B
:101690008B4203D0831C33F811301A44491C037F5A
:1016A0008B42F0DC037F9B1EB2FBF3F3C3827047D7
:1016B00070B504460D4622212046FEF73BFE2580EC
:1016C00070BD41B95368C0F8A431D0F8A831536057
:1016D000C0F8A82106E053684B60D0F8A8315360E9
:1016E000C0F8A821704770B504464FF4AA7120468F
:1016F000FEF720FE002510E004F5AA70691C00EB3F
:10170000C10100EBC500416005EB051004EB400191
:1017100004F5AA7040F835106D1C092DECDB002192
:10172000C4F8A01104F599704FF4CE71085122301D
:10173000C4F8A8010020C4F8A40170BD10B500F0E1
:1017400029F800F031F803F0E9FA10BD10B50446AD
:1017500003F050FB0848FFF761FA2088FFF7B9FD56
:101760006088FFF7EFFDA088FFF799FD04F10800FE
:10177000FFF772FD10BD0000A000002070B5044608
:101780000D462A4621460248006802F091FB70BDD2
:101790009C00002010B5002002F060FB01490860A9
:1017A00010BD00009C00002000B587B0142102A8E5
:1017B000FEF7C0FD00BF3C48C06C40F002003A4953
:1017C000C8640846C06C00F00200019000BF00BF72
:1017D00000BF0846C06C40F00200C8640846C06CF8
:1017E00000F00200019000BF00BF00BF0846C06CBF
:1017F00040F00100C8640846C06C00F00100019090
:1018000000BF00BF00BF0846C06C40F00200C864C3
:101810000846C06C00F00200019000BF00BF8814B1
:101820000290002003900120049002A91F4800F0BC
:10183000C5FD102002900120039004900320059024
:1018400002A94FF0904000F0B9FD4FF40040029023
:10185000174803900220049002A9144800F0AEFD3E
:101860004FF40050029001200390002004900320C8
:10187000059002A90D4800F0A1FD002202212820B8
:1018800000F0E1FE282000F0D1FE012210214FF0EF
:10189000904000F07FFE00224FF40051034800F01A
:1018A00079FE07B000BD00000010024000040048AF
:1018B0000000111000200349488008468068401C41
:1018C00088607047C812002070B504460D4600229B
:1018D00021462846FFF711FE012200212846FFF786
:1018E0001FFE70BD10B502F05FFA4FF4004000F02B
:1018F00057FD02F06BFA10BD014600200022044B98
:101900001B6803EA01020AB1012000E000207047D1
:101910000004014002480078401C014908707047EB
:101920000400002010B54FF47A7002F01DFD10BDC8
:1019300005480078002805DD03480078401E02496C
:10194000087000E000BF7047040000202DE9F35F3D
:10195000884600BF0021C8F80010C8F80410894666
:1019600015E0009810F8096000274FEAC9023446D4
:101970003D4620462946D8E900ABFEF7B3FC1AEBFA
:1019800000004BEB010BC8E9000B09F10109B9F1AB
:10199000050FE6D300F000B83CBCBDE8C09F0000D6
:1019A00070B58AB005460C4612488088A04202DA1B
:1019B00001200AB070BDFFF7ADFF04AA21462846FA
:1019C00002F092F907A807C88DE807000A4804A9A1
:1019D0000EC904F0F3F900F047F806460123224649
:1019E000294603F013FE0548006802F0D7FA0020EC
:1019F000DFE70000D400002040110020000000209C
:101A00000148D0F8A40170472813002070B505469E
:101A10001448D0F8A44106E020680088A84201D10B
:101A2000204670BD6468002CF6D10E48D0F8A8019D
:101A3000A8B10C48D0F8A841D0F8A80140680949DD
:101A4000C1F8A8010846D0F8A40160600846C0F8B3
:101A5000A44129462068FFF72BFE2046E1E700203D
:101A6000DFE70000281300200148007870470000DD
:101A7000040000207CB500210C460D466846FFF7A7
:101A80006EFB042607E0280240EA146524021DF8D4
:101A900006000443761E002EF5DA204629467CBD5A
:101AA0007CB500210C460D466846FFF761FB042615
:101AB00007E0280240EA146524021DF806000443EA
:101AC000761E002EF5DA204629467CBD7CB5002125
:101AD0000C460D466846FFF754FB042607E0280233
:101AE00040EA146524021DF806000443761E002E09
:101AF000F5DA204629467CBD014800887047000081
:101B0000D40000200249C978642211FB02F070471A
:101B1000D400002010B5024692F82030012B01D0ED
:101B2000022B06D1106840690843146860610020E8
:101B300010BD506A40F4802050620120F8E7F0B5F3
:101B400004460D461E4694F8207020688368A868F5
:101B500000B900E000BF012F01D0022F7CD103F0BB
:101B6000806030B903F0006018B903F0805000289D
:101B700073D0C3F30161022905D9606A40F4000003
:101B800060620120F0BD012088403060A86860B923
:101B9000B5F800C0E86840EA4C5C206800F5C07009
:101BA00000EB0110C0F800C00FE0D5E901C040EA29
:101BB000CC00D5F80CC040EA0C00D4F800C00CF5FD
:101BC000C07C0CEB011CCCF80000D5F810C02068DC
:101BD00000F5C07000EB0110C0F804C0287D01289A
:101BE0000ED1206800F5C07000EB0110406840F491
:101BF000807C206800F5C07000EB0110C0F804C0C4
:101C0000D079000692F806C040EA0C4092F805C070
:101C100040EA0C2C10794CEA000C206800F5C070EA
:101C200000EB0110C0F80CC0D078000692F802C09A
:101C300040EA0C4092F801C040EA0C2092F800C043
:101C400040EA0C00D4F800C00CF5C07C0CEB011C81
:101C5000CCF80800206801E016E00FE000F5C07045
:101C600000EB0110006840F0010C206800F5C07026
:101C700000EB0110C0F800C0002083E7606A40F468
:101C80000010606201207DE7606A40F4802060629D
:101C9000012077E7F0B504460A46216894F8205001
:101CA000012D01D0022D74D1D1F8000240F00100C5
:101CB000C1F80002107D00F01F06012000FA06F3B3
:101CC000D1F81C029843C1F81C02D069C8B9D1F8F8
:101CD0000C029843C1F80C02908880B2968940EAC1
:101CE000064601F51070576940F83760108880B2D9
:101CF000168940EA064601F51070576900EBC700E7
:101D00004660D069012819D1D1F80C021843C1F8F6
:101D10000C02908880B2168840EA064601F51070E1
:101D2000576940F83760908980B2168940EA0646C4
:101D300001F51070576900EBC7004660906928B93B
:101D4000D1F804029843C1F8040204E0D1F8040277
:101D50001843C1F80402106928B9D1F81402984355
:101D6000C1F8140204E0D1F814021843C1F81402B7
:101D7000106A012804D1D1F81C021843C1F81C02D2
:101D8000D1F8000220F00100C1F800020020F0BDEF
:101D9000FFE7606A40F4802060620120F7E7704747
:101DA00070B5044694F82050012D01D0022D7CD14D
:101DB00051B92068C06800F0030080B9606A40F43F
:101DC00000106062012070BD2068006900F003000F
:101DD00028B9606A40F4001060620120F3E72068CF
:101DE00000F5D87000EB0110006800F0040090606E
:101DF000906840B9206800F5D87000EB01100068C9
:101E0000400D106007E0206800F5D87000EB01106D
:101E10000068C0085060206800F5D87000EB011021
:101E2000006800F002004008D060206800F5D8701B
:101E300000EB0110406800F00F001061206800F511
:101E4000D87000EB0110406800F47F40000A9061F8
:101E5000206800F5D87000EB01104068000C50615C
:101E6000206800F5D87000EB0110806818702068B9
:101E700000F5D87000EB0110806800F47F40000A84
:101E80005870206800F5D87000EB0110806800F4ED
:101E90007F00000C9870206800F5D87000EB0110EE
:101EA0008068000ED870206800E031E000F5D8703E
:101EB00000EB0110C0681871206800F5D87000EBC5
:101EC0000110C06800F47F40000A5871206800F5D6
:101ED000D87000EB0110C06800F47F00000C98710E
:101EE000206800F5D87000EB0110C068000ED871B2
:101EF00031B92068C06840F020002668F06005E035
:101F00002068006940F020002668306100205AE710
:101F1000606A40F480206062012054E72DE9F05FA0
:101F200004460025206846692068D0F8049020689F
:101F300087682068D0F80CA02068D0F810B020681E
:101F4000D0F8188006F00100002855D007F00100F5
:101F5000C0B101202168886007F0020018B1204656
:101F600000F013FA0EE007F0040010B145F400652C
:101F700008E007F0080010B145F4805502E0204663
:101F800000F002FA07F48070C8B14FF48070216845
:101F9000886007F4007018B1204600F0F8F90EE0F0
:101FA00007F4806010B145F4005508E007F40060C4
:101FB00010B145F4804502E0204600F0E7F907F44F
:101FC0008030C8B14FF480302168886007F4003059
:101FD00018B1204600F0DDF90EE007F4802010B1C2
:101FE00045F4004508E007F4002010B145F48035C1
:101FF00002E0204600F0CCF906F0080038B10AF003
:10200000100020B145F4007510202168C86006F06A
:10201000040040B10AF0080028B108202168C86017
:10202000204600F060F906F0020038B12068C06870
:1020300000F0030010B1204600F056F906F0400011
:1020400038B10BF0100020B145F4806510202168F4
:10205000086106F0200040B10BF0080028B108200C
:1020600021680861204600F05DF906F0100038B1E3
:102070002068006900F0030010B1204600F053F919
:1020800006F4003040B109F0100028B1102021689A
:102090004860204600F048F906F4803040B109F06D
:1020A000080028B1082021684860204600F072F935
:1020B00006F4004088B309F0040078B306F4807099
:1020C00020B108F0010008B145F0010506F40070E8
:1020D00020B108F0020008B145F0020506F4806066
:1020E00020B108F0040008B145F0040506F40060D2
:1020F000A0B108F0700088B108F07000402817D037
:1021000006DC10280BD020280CD0302819D10CE088
:10211000502810D0602814D110E01DE019E045F0DF
:1021200008050FE045F010050CE045F0200509E03A
:1021300045F0400506E045F0800503E045F4807574
:1021400000E000BF00BF2068806920F070002168B7
:1021500088610420216848602DB1606A284360626C
:102160002046FFF71CFE00F000B830BCBDE8C09F61
:1021700070B504460CB9012070BD94F8200010B968
:10218000204600F0AFF82068006820F002002168C7
:10219000086000F005FA05460DE000F001FA401B6A
:1021A0000A2808D9606A40F400306062052084F88B
:1021B00020000120E0E72068406800F002000028CD
:1021C000EBD12068006840F001002168086000F051
:1021D000E7F905460DE000F0E3F9401B0A2808D9AD
:1021E000606A40F400306062052084F8200001201D
:1021F000C2E72068406800F001000028EBD0207E94
:10220000012806D12068006840F08000216808603D
:1022100005E02068006820F0800021680860607E8A
:10222000012806D12068006840F04000216808605D
:1022300005E02068006820F0400021680860A07E6A
:10224000012806D12068006840F02000216808605D
:1022500005E02068006820F0200021680860E07E2A
:10226000012806D12068006820F01000216808606D
:1022700005E02068006840F0100021680860207FB9
:10228000012806D12068006840F008002168086035
:1022900005E02068006820F0080021680860607F81
:1022A000012806D12068006840F004002168086019
:1022B00005E02068006820F0040021680860D4E987
:1022C0000201084321690843616908436168491EA6
:1022D00008432168C86100206062012084F8200062
:1022E000002049E77047704710B586B004460B4B95
:1022F0000B4A00212046FFF753FD08B1FEF74AFBC9
:102300000648074B04900C330FCB8DE80F000448B0
:102310000EC80020FEF77CF906B010BDBD000020FD
:102320005017002070477047704770B5044694F806
:102330002000012822D1022084F8200020680068B3
:1023400020F001002168086000F02AF905460DE040
:1023500000F026F9401B0A2808D9606A40F40030D2
:102360006062052084F82000012070BD206840686C
:1023700000F001000028EBD16062F6E7606A40F4EB
:10238000002060620120F0E7704770477047704797
:1023900070477047704710B5044603F0CBFB10BD83
:1023A00010B5044604480068204020B1024804608B
:1023B0002046FFF7F0FF10BD1404014078B5034636
:1023C0000022CBE0012696400D6805EA0604002CA9
:1023D00072D04D68022D02D04D68122D13D1D6084F
:1023E00003F1200555F826005507EE0E0F25B540E0
:1023F000A8435607F60E0D69B5402843D60803F1E9
:10240000200545F82600186856000325B540A84366
:102410000D7905F003055600B540284318604D6856
:10242000012D08D04D68022D05D04D68112D02D028
:102430004D68122D13D1986856000325B540A84366
:102440005600CD68B54028439860586801259540EE
:10245000A8430D79C5F30015954028435860D86806
:1024600056000325B540A84356008D68B540284363
:10247000D8604D6805F08055B5F1805F6DD100BF23
:10248000394D2D6E45F00105374E356635462D6EBA
:1024900005F00105009500BF00BF4FEAB63596086C
:1024A00055F8260095072E0F0F25B540A843B3F128
:1024B000904F02D1002515E04FE02C4DAB4201D1E9
:1024C00001250FE02A4DAB4201D102250AE0294D3A
:1024D000AB4201D1032505E0274DAB4201D10425D4
:1024E00000E007259607360FB5402843234D960890
:1024F00045F82600224D2868A0434D6805F4803534
:10250000B5F5803F00D120431D4D28602D1D286862
:10251000A0434D6805F40035B5F5003F00D12043D8
:10252000174D2D1D28602D1D2868A0434D6805F40A
:102530008015B5F5801F00D12043114D0835286066
:102540002D1D2868A0434D6805F40015B5F5001F42
:1025500000D120430A4D0C352860521C0D68D5402F
:10256000002D7FF42FAF78BD00100240000400481A
:1025700000080048000C0048001000480800014016
:1025800000040140024613690B400BB1012000E03A
:10259000002070470AB1816100E08162704700004D
:1025A00001480068704700003C01002002480068B4
:1025B000401C0149086070473C01002010B5002410
:1025C000032000F081F80F2000F008F808B1012482
:1025D00001E000F01BF8204610BD000070B5044675
:1025E0000025094800684FF47A71B0FBF1F63046D7
:1025F00001F087FA08B1012504E000222146501EAF
:1026000000F021F8284670BD380100207047000016
:1026100000BF00F01F0201219140034A430942F824
:10262000231000BF7047000080E100E000BF00F011
:102630001F02012191404209920002F1E022C2F8FA
:10264000001100BF70472DE9F05F80460D46164629
:10265000002701F02DFB074639462A46334601F094
:102660000700C0F1070ABAF1040F02D94FF0040ABB
:1026700001E0C0F1070AD14600F1040ABAF1070FE0
:1026800002D24FF0000A01E0A0F1030AD4464FF055
:10269000010A0AFA09FAAAF1010A0AEA020A0AFA7E
:1026A0000CFA4FF0010B0BFA0CFBABF1010B0BEA30
:1026B000030B4AEA0B042146404601F001FB00F0FF
:1026C00000B830BCBDE8C09F00BF00F00702064B59
:1026D00019684FF6FF031940044B0B4343EA0221EC
:1026E000014B196000BF70470CED00E00000FA05D7
:1026F0000246B2F5007F2AD11D48006800F4C06090
:10270000B0F5007F32D01A48006820F4C06040F471
:102710000070174B18601748006832235843164B57
:10272000B0FBF3F0411C00E0491E1148406900F481
:102730008060B0F5806F01D10029F5D10C48406967
:1027400000F48060B0F5806F10D103207047084816
:10275000006800F4C060B0F5806F07D004480068DE
:1027600020F4C06040F48060014B18600020EDE769
:10277000007000403801002040420F00024800680D
:1027800000F4C06070470000007000402DE9F8437D
:1027900004460025A846208800F40060B0F5006FCC
:1027A00026D1E06C68B1B0F5000F03D0B0F5400F52
:1027B0000ED10CE0F748C06840F48030F549C8609D
:1027C00008E00021201D02F05FF9054602E001E06B
:1027D000012500BF00BF55B9EE488830006820F4DD
:1027E0004000E16C0843EB49C1F8880000E0A846CE
:1027F000206800F40030B0F5003F75D14FF00009BB
:10280000E448806D012121EA107078B100BFE148F1
:10281000806D40F08050DF4988650846806D00F08B
:102820008050009000BF00BF4FF00109DA480068F7
:1028300040F48070D8490860FFF7B2FE074606E012
:10284000FFF7AEFEC01B022801D9032505E0D248E0
:10285000006800F480700028F2D000BF7DBBCD4836
:102860009030006800F44076CEB1606EB04216D071
:10287000C8489030006820F44076C648D0F89000F0
:1028800040F48030C349C1F890000846D0F8900069
:1028900020F48030C1F890000846C0F8906006F03F
:1028A0000100A8B1FFF77CFE074609E0FFF778FEBC
:1028B000C01B41F28831884202D9032507E016E0A7
:1028C000B4489030006800F002000028EED000BF4D
:1028D0005DB9B0489030006820F44070616E0843E4
:1028E000AC49C1F8900003E00CE0A84600E0A8461F
:1028F000B9F1010F05D1A748806D20F08050A5499E
:10290000886500BF207800F0010048B1A1488830F8
:10291000006820F00300216A08439E49C1F888003E
:10292000207800F00200022809D19A488830006817
:1029300020F00C00616A08439649C1F888002078AD
:1029400000F00400042809D192488830006820F083
:102950003000A16A08438F49C1F88800207800F050
:102960000800082809D18B488830006820F0C00092
:10297000E16A08438749C1F88800207800F0200008
:10298000202809D183488830006820F44060216BFA
:1029900008438049C1F88800208800F40070B0F531
:1029A000007F09D17B488830006820F44020616CAA
:1029B00008437849C1F88800208800F48060B0F5A9
:1029C000806F09D173488830006820F44010A16CF2
:1029D00008437049C1F88800207800F04000402882
:1029E00009D16C488830006820F44050616B08437E
:1029F0006849C1F88800207800F08000802809D15B
:102A000064488830006820F44040A16B0843614965
:102A1000C1F88800208800F48070B0F5807F09D16B
:102A20005C488830006820F44030E16B0843594925
:102A3000C1F88800206800F48010B0F5801F09D12B
:102A400054489C30006820F00300216C0843514931
:102A5000C1F89C00208800F40050B0F5005F1FD141
:102A60004C488830006820F04060216D0843494997
:102A700088310860206DB0F1006F06D14548C0680C
:102A800040F480104349C8600AE0206DB0F1806FC7
:102A900006D10121201D01F0F7FF054605B1A8462A
:102AA000206800F40020B0F5002F1FD1394888308D
:102AB000006820F04060616D084336498831086045
:102AC000606DB0F1006F06D13248C06840F48010EC
:102AD0003049C8600AE0606DB0F1806F06D1012115
:102AE000201D01F0D1FF054605B1A846206800F47D
:102AF0008020B0F5802F1FD126488830006820F054
:102B00004060A16D0843234988310860A06DB0F191
:102B1000006F06D11F48C06840F480101D49C8608E
:102B20000AE0A06DB0F1806F06D10121201D01F0F7
:102B3000ABFF054605B1A846208800F48040B0F5FB
:102B4000804F14D113488830006820F04050E16D68
:102B50000843104988310860E06DB0F1805F06D10C
:102B60000221201D01F090FF054605B1A84620680E
:102B700000F48030B0F5803F09D106488830006805
:102B800020F00040216E08430249C1F88800404609
:102B9000BDE8F88300100240007000402DE9F041CC
:102BA00004460D4614B90120BDE8F081554800687F
:102BB00000F00700A8420ED25248006820F007003B
:102BC0002843504908600846006800F00700A84202
:102BD00001D00120E8E7207800F00100002840D073
:102BE0006068032806D14848006800F00070D8B932
:102BF0000120D9E76068022806D14348006800F444
:102C0000003088B90120CFE7606830B93E480068DD
:102C100000F0020040B90120C6E73B48006800F41C
:102C2000806008B90120BFE73748806820F00300C2
:102C30006168084334498860FFF7B2FC064608E043
:102C4000FFF7AEFC801B41F28831884201D9032096
:102C5000AAE72D48806800F00C006168B0EB810F96
:102C6000EED1207800F00200022807D126488068C3
:102C700020F0F000A16808432349886021480068DB
:102C800000F00700A8420ED91E48006820F0070097
:102C900028431C4908600846006800F00700A84265
:102CA00001D0012080E7207800F00400042807D13B
:102CB0001548806820F4E060E168084312498860A4
:102CC000207800F00800082808D10F48806820F418
:102CD0006050216940EAC1000B49886000F032F879
:102CE00009498968C1F30311084A515C01F01F01C9
:102CF000C840074908600F20FFF770FC07463846B8
:102D000052E700000020024000100240A0600008CE
:102D10003801002001480068704700003801002099
:102D200000B5FFF7F7FF05498968C1F30221044A9E
:102D3000515C01F01F01C84000BD000000100240BE
:102D4000B06000082DE9F04100240020DFF800C148
:102D5000DCF808C00CF00C01DFF8F4C0DCF80CC0A3
:102D60000CF0030719B10C291ED1012F1CD1DFF87B
:102D7000E0C0DCF800C00CF0080CBCF1000F06D17C
:102D8000DFF8CCC0DCF894C0CCF3032405E0DFF816
:102D9000C0C0DCF800C0CCF30314DFF8B8C05CF8A6
:102DA000244041B9204606E0042901D12A4802E026
:102DB000082900D129480C2947D1DFF894C0DCF854
:102DC0000CC00CF00305DFF888C0DCF80CC0CCF3B5
:102DD000021C0CF10103012D1FD0022D02D0032D86
:102DE0001AD10CE0DFF870C0BCFBF3FCDFF86080A8
:102DF000D8F80C80C8F306280CFB08F218E0DFF8BE
:102E00005CC0BCFBF3FCDFF84880D8F80C80C8F34A
:102E100006280CFB08F20BE000BFB4FBF3FCDFF864
:102E20003080D8F80C80C8F306280CFB08F200BFED
:102E300000BFDFF81CC0DCF80CC0CCF3416C0CF117
:102E4000010C4FEA4C06B2FBF6F0BDE8F081000041
:102E500000100240B86000080024F40000127A005C
:102E60002DE9F843044614B90120BDE8F883F84879
:102E7000806800F00C06F648C06800F00307207870
:102E800000F01000102875D11EB10C2E74D1012F46
:102E900072D1EF48006800F0020018B1A06908B9CB
:102EA0000120E2E7EA48216A006800F0080020B14A
:102EB000E748006800F0F00005E0E548943000685D
:102EC00000F47060000981421FD9206A01F0A0FE61
:102ED00008B10120C9E700BFDD48006840F00800E4
:102EE000DB4908600846006820F0F000216A0843CA
:102EF000D749086000BF0846406820F47F40E16978
:102F000040EA0120D24948601EE000BFD048006876
:102F100040F00800CE4908600846006820F0F00044
:102F2000216A0843CA49086000BF0846406820F487
:102F30007F40E16940EA0120C5494860206A01F00C
:102F400067FE08B1012090E7FFF7FCFEC0498968E1
:102F5000C1F30311BF4A515C01F01F01C840BE49D3
:102F600008600F20FFF73AFB8046B8F1000F4ED003
:102F700040467AE74BE0FFE7A06980B3B4480068B9
:102F800040F00100B2490860FFF70AFB054606E081
:102F9000FFF706FB401B022801D9032065E7AC4878
:102FA000006800F002000028F2D000BFA8480068C6
:102FB00040F00800A64908600846006820F0F000CC
:102FC000216A0843A249086000BF0846406820F40F
:102FD0007F40E16940EA01209D49486017E0FFE732
:102FE0009B48006820F0010099490860FFF7D8FA73
:102FF000054606E0FFF7D4FA401B022801D903205A
:1030000033E79348006800F002000028F2D12078EE
:1030100000F0010000285CD0082E03D00C2E0AD14D
:10302000032F08D18A48006800F4003088B3606834
:1030300078BB012019E700BF6068B0F5803F06D17A
:103040008348006840F48030814908601AE0606875
:10305000B0F5A02F0BD17E48006840F480207C4959
:1030600008600846006840F4803008600AE078484C
:10307000006820F48030764908600846006820F433
:103080008020086000BF606890B1FFF789FA0546AC
:1030900007E01EE0FFF784FA401B642801D90320F3
:1030A000E3E66B48006800F400300028F2D010E03E
:1030B000FFF776FA054606E0FFF772FA401B642830
:1030C00001D90320D1E66248006800F400300028EE
:1030D000F2D1207800F00200022852D1042E03D051
:1030E0000C2E14D1022F12D15948006800F48060D0
:1030F00018B1E06808B90120B7E65548406820F0EB
:10310000FE40217C40EA01605149486039E0E068B6
:1031100000B34F48006840F480704D490860FFF7E5
:103120003FFA054606E0FFF73BFA401B022801D9AB
:1031300003209AE64648006800F480600028F2D038
:103140004348406820F0FE40217C40EA016040494D
:10315000486016E03E48006820F480703C490860F2
:10316000FFF71EFA054606E0FFF71AFA401B022891
:1031700001D9032079E63648006800F48060002811
:10318000F2D1207800F00800082836D16069D0B16B
:103190002F489430006840F001002D49C1F8940098
:1031A000FFF7FEF9054606E0FFF7FAF9401B022893
:1031B00001D9032059E626489430006800F0020047
:1031C0000028F1D019E022489430006820F0010076
:1031D0001F49C1F89400FFF7E3F9054606E0FFF741
:1031E000DFF9401B022801D903203EE6184894303D
:1031F000006800F002000028F1D1207800F00400FF
:10320000042870D14FF000091148806D00F0805003
:1032100078B900BF0E48806D40F080500C49886539
:103220000846806D00F08050009000BF00BF4FF056
:1032300001090A48006800F48070F0B90748006886
:1032400040F4807005490860FFF7AAF905460EE0D2
:1032500000100240A060000838010020007000400B
:10326000FFF79EF9401B022801D90320FDE59B488A
:10327000006800F480700028F2D000BFA068012828
:1032800008D19748006840F0010095499039C1F88D
:10329000900021E0A06805280FD19148006840F017
:1032A00004008F499039C1F890000846D0F890008A
:1032B00040F00100C1F890000EE08948006820F05D
:1032C000010087499039C1F890000846D0F8900075
:1032D00020F00400C1F8900000BFA068A0B1FFF783
:1032E0005FF9054609E02EE0FFF75AF9401B41F26D
:1032F0008831884201D90320B7E57948006800F099
:1033000002000028F0D012E0FFF74AF9054608E075
:10331000FFF746F9401B41F28831884201D903206A
:10332000A3E56F48006800F002000028F0D1B9F171
:10333000010F07D16A489038806D20F080506849AD
:103340009039886500BF207800F02000202838D10F
:10335000606AD8B162480830006840F001006049F6
:103360009039C1F89800FFF71BF9054606E0FFF712
:1033700017F9401B022801D9032076E55848083088
:10338000006800F002000028F1D01AE0544808302C
:10339000006820F0010052499039C1F89800FFF709
:1033A000FFF8054606E0FFF7FBF8401B022801D9AD
:1033B00003205AE54A480830006800F0020000285F
:1033C000F1D1A06AF0B30C2E74D0A06A022853D1B8
:1033D00043489038006820F0807041499039086077
:1033E000FFF7DEF8054606E0FFF7DAF8401B022893
:1033F00001D9032039E53A489038006800F00070A0
:103400000028F1D1206B401E0101606B41EA0020D1
:10341000E16A0843A18F0122C2EB510140EA415108
:103420004020005DC2EB500041EA40613820005D61
:1034300041EAC0602A499039C8600846006840F0F7
:10344000807000E048E008600846C06840F0807086
:10345000C860FFF7A5F8054606E0FFF7A1F8401B96
:10346000022801D9032000E51D489038006800F0CB
:1034700000700028F1D02FE019489038006820F043
:1034800080701749903908600846006800F00060B5
:1034900020B90846C06820F00300C8601048903882
:1034A000C068104908400E499039C860FFF778F8A5
:1034B000054607E00EE0FFF773F8401B022801D92C
:1034C0000320D2E406489038006800F0007000281D
:1034D000F1D101E00120C8E40020C6E40070004002
:1034E00090100240FFFFEEFE70B504460CB90120BB
:1034F00070BD606A00B900BF0021A16294F85D0050
:1035000028B9002084F85C00204600F04DF8022025
:1035100084F85D002068006820F0400021680860A1
:10352000E068B0F5E06F01D9002501E04FF4805567
:10353000E068B0F5706F05D0E068B0F5E06F01D0DD
:103540000021A162206B40B9E068B0F5E06F02D9BC
:103550000221216301E001212163D4E90101084333
:103560002169084361690843218B01F40071084314
:10357000E1690843216A0843A16A08432168086099
:103580000421A06901EA1040616A0843616B0843A5
:10359000E168084328432168486000202066012034
:1035A00084F85D000020A3E710B586B0044614211E
:1035B00001A8FCF7BFFE27492068884247D100BF19
:1035C0002548006E40F48050234908660846006E86
:1035D00000F48050009000BF00BF00BF0846C06CE0
:1035E00040F00100C8640846C06C00F00100009083
:1035F00000BF00BF20200190022002900120039014
:10360000032004900520059001A94FF09040FEF79B
:10361000D5FE40200190022002900020039003205C
:1036200004900520059001A94FF09040FEF7C6FEDA
:10363000802001900220029001200390032004903A
:103640000520059001A94FF09040FEF7B7FE06B0A7
:1036500010BD000000300140001002402DE9F84F7D
:103660000446884616461D464FF0000A00BF94F8EF
:103670005C00012802D1022000F0DFB8012084F8AC
:103680005C0000BFFEF78CFF0746B14694F85D0072
:10369000012802D04FF0020AC5E0B8F1000F00D0B7
:1036A00016B94FF0010ABEE0032084F85D00002047
:1036B0002066C4F83880A687E6872064A4F8440012
:1036C000A4F846002065E064A068B0F5004F05D17D
:1036D0002068006840F48040216808602068006825
:1036E00000F04000402805D02068006840F040000D
:1036F00021680860E068B0F5E06F2FD9606810B10C
:10370000B9F1010F09D1A06B00882168C860A06BD6
:10371000801CA063E08F401EE0871BE0206880686B
:1037200000F0020002280AD1A06B00882168C8605E
:10373000A06B801CA063E08F401EE0870AE0FEF7CC
:103740002FFFC01BA84201D3681C00B915B94FF068
:10375000030A68E0E08F0028E0D14AE0606810B119
:10376000B9F1010F17D1E08F01280AD9A06B0088A9
:103770002168C860A06B801CA063E08F801EE0877A
:1037800009E0A06B007821680873A06B401CA0635F
:10379000E08F401EE08729E02068806800F002008A
:1037A000022818D1E08F01280AD9A06B008821686F
:1037B000C860A06B801CA063E08F801EE08715E0CE
:1037C000A06B007821680873A06B401CA063E08F99
:1037D000401EE0870AE0FEF7E3FEC01BA84201D3CB
:1037E000681C00B915B94FF0030A1CE0E08F0028EF
:1037F000D2D13A462946204601F0CAFA08B1202023
:103800002066A06850B900BF002000902068C06802
:10381000009020688068009000BF00BF206E08B153
:103820004FF0010A00BF012084F85D0000BF0020B6
:1038300084F85C0000BF50461EE718BCBDE8E08F6E
:103840002DE9FF5F0446894692461D460E9E0120E3
:1038500001900020009000BF94F85C00012803D183
:10386000022004B000F04AB9012084F85C0000BFD7
:10387000FEF796FE074694F85D000290606803909C
:10388000A846AB46029801280BD00398B0F5827F7A
:1038900004D1A06810B90298042802D00220009038
:1038A00022E1B9F1000F03D0BAF1000F00D015B931
:1038B0000120009018E194F85D00042802D0052052
:1038C00084F85D0000202066C4F840A0A4F84650AB
:1038D000A4F84450C4F83890E587A587E0642065D3
:1038E000E068B0F5E06F02D8BBF1010F06D920689F
:1038F000406820F480502168486005E020684068F6
:1039000040F48050216848602068006800F0400062
:10391000402805D02068006840F040002168086019
:10392000E068B0F5E06F4ED9606810B1B8F1010FF2
:1039300009D1A06B00882168C860A06B801CA063BF
:10394000E08F401EE08736E02068806800F00200CB
:10395000022810D1E08F70B1019801280BD1A06B23
:1039600000882168C860A06B801CA063E08F401EA7
:10397000E087002001902068806800F0010080B19D
:10398000B4F8460068B12068C068216C0880206CDB
:10399000801C2064B4F84600401EA4F846000120B4
:1039A0000190FEF7FDFDC01BB04204D3701C10B1A6
:1039B0000320009098E0E08F0028C5D1B4F84600BD
:1039C0000028C1D185E0606810B1B8F1010F17D1AE
:1039D000E08F01280AD9A06B00882168C860A06B1D
:1039E000801CA063E08F801EE08709E0A06B007858
:1039F00021680873A06B401CA063E08F401EE08725
:103A000060E02068806800F0020002281ED1E08F8C
:103A1000E0B10198012819D1E08F01280AD9A06BE3
:103A200000882168C860A06B801CA063E08F801EA6
:103A3000E08709E0A06B007821680873A06B401C48
:103A4000A063E08F401EE08700200190206880681E
:103A500000F0010058B3B4F8460040B3B4F8460093
:103A6000012816D92068C068216C0880206C801C51
:103A70002064B4F84600801EA4F84600B4F846005E
:103A8000012812D82068406840F4805021684860BE
:103A90000BE02068007B216C0870206C401C2064C7
:103AA000B4F84600401EA4F8460001200190FEF73D
:103AB00077FDC01BB04201D3701C00B916B90320BA
:103AC000009011E0E08F00289BD1B4F84600002858
:103AD00097D13A463146204601F05AF918B10120F3
:103AE00000902020206600BF012084F85D0000BF08
:103AF000002084F85C0000BF0098B2E630BCBDE84E
:103B0000C09F70B504462546681EB0F1807F01D382
:103B100001200FE0681E4FF0E02148610F214FF0B7
:103B2000FF3000F0CDF800204FF0E0218861072041
:103B30000861002070BD00BFFEE700000FB581B036
:103B4000019800900098C0F38910032813D10098C1
:103B500000F0070007280ED10948DDF809100160C0
:103B6000DDF80D1041600120064908600648006834
:103B700000F014FA01E005B000BD00BFFBE7000053
:103B8000D4000020D0000020DC00002000B587B069
:103B9000002000F063F91C4908601C4802F0E4F8BA
:103BA000032000214FF48072194BCDE90132CDE999
:103BB000031008200346174A0090174800F040FA07
:103BC00006909DF8180020B906AA14A1092000F05B
:103BD0003DFB032000214FF48072144BCDE90132EC
:103BE000CDE9031009200346114A0090114800F066
:103BF00027FA06909DF8180020B906AA0EA1092000
:103C000000F024FB07B000BD0000002040110020A0
:103C1000400D00203C110020C152000854414720B3
:103C20005245504F5254205461736B00400900209C
:103C30003C0D0020E95400085557422041505020C7
:103C40005461736B0000000010B5154815490860F9
:103C50004FF4827048600021124881604FF4E061A7
:103C6000C160022101610121416149028161082194
:103C7000C16100210162416281620721C1620021AC
:103C800001634163FFF730FC08B101F037FA0548E2
:103C90000068006840F0400002490968086010BDF3
:103CA00000300140D823002000BFFEE7704700002D
:103CB00002480068C0F30220704700000CED00E0ED
:103CC00010B5002807DA0A07140E054A00F00F03A2
:103CD0001B1FD45403E00A07130E024A135410BDED
:103CE00018ED00E000E400E070B506460D4614460D
:103CF00018212046FCF71EFB268041F288306080A8
:103D000001206081A0812582E580A580208170BD91
:103D10000FB581B0019800900098C0F38910022877
:103D200002D003280ED100E00DE0009800F007005B
:103D3000072806D10548DDF809100160DDF80D10EF
:103D4000416000E000BF00BF05B000BDD40000200E
:103D500010B500F00FF800F0CFFC00F0EFFC00F021
:103D60000FFD00F099FC00F059FC00F047FD00F059
:103D700019F810BD0848802102E0491E002204C045
:103D80000029FAD1054A064B1A601A46126822F039
:103D900007021A60704700004C3300204C350020A9
:103DA000340100207047000006480078012808D13F
:103DB00005480078FF2804D203480078401C0249D7
:103DC00008707047130100200801002010B500247E
:103DD0001A480078012830D1FCF7E6F90446184863
:103DE000007820B116480078401E15490870144824
:103DF0000078F8B913480078E0B900F06BFD12487C
:103E00001249097850F82100114908600F480078DC
:103E10001049097888420DD00D480068806B401C1D
:103E20000B49096888630C480068401C0A4908600F
:103E3000FCF7DAF92046FCF7BBF910BD13010020AE
:103E400008010020090100207C2800200B0100202F
:103E5000240100200A010020FC00002070B5054666
:103E600000261048007808B1002070BDFCF79CF9CE
:103E700006460D480468006820B10B480068406899
:103E8000094908603046FCF793F94CB103202070D3
:103E900025810020606005A06061204600F0B0FB35
:103EA0002046E2E708010020000100203F0000005A
:103EB0002DE9F04105460E461446002728780328D0
:103EC00003D001202070BDE8F0813148007810B1A6
:103ED00002202070F7E72F48007810B10D202070E5
:103EE000F1E7FCF761F90746288940B12889401EAF
:103EF00028813846FCF75CF900202070E3E726486B
:103F0000006890F8300040F001002349096881F80A
:103F1000300000202049096881F831001E480068FF
:103F2000C662284600F02EFB3846FCF741F900F047
:103F300097FCFCF739F907461748006890F83100FC
:103F400020B1012809D0022806D102E0002020700B
:103F50000BE00E20207008E000BF29460E480068E4
:103F600000F0FBFA0A20207000BF00BF00200A49C1
:103F7000096881F830000849096881F8310006496C
:103F80000968C8613846FCF713F900BF9BE70000D9
:103F900008010020090100201C01002070B5044622
:103FA00000252078032801D0012070BDFCF7FCF823
:103FB0000546A07A60B1002301221946204600F090
:103FC00087FA2846FCF7F4F800F04AFC0020ECE7FA
:103FD00020894FF6FF71884207D22089401C20813A
:103FE0002846FCF7E5F80020DFE72846FCF7E0F874
:103FF0003320DAE710B50B48007890B900F06AFC7E
:10400000094800780949087009480749097850F8B3
:104010002100084908600846006807490860FCF765
:10402000CAF810BD130100200B0100200A01002076
:104030007C280020240100201C0100207047000083
:104040002DE9F04F85B00746884691461C46DDE9CC
:1040500011B6DDF838A000200390FCF7A5F8039016
:104060001F48007830B10398FCF7A2F83C2005B057
:1040700000F03CB81B4850F8240060BB01201949EF
:1040800041F824000398FCF793F833464A4641462A
:10409000384600F015F9049010985346CDE901B662
:1040A000009020460F9A049900F02AFC054635B985
:1040B0000D48007801280CD100F0D2FB09E0FCF794
:1040C00073F803900020074941F824000398FCF797
:1040D0006FF82846CBE70398FCF76AF82820C6E774
:1040E000080100207C2800201301002030BCBDE81E
:1040F000C08F70472DE9F0410546002747480078FA
:1041000010B14020BDE8F081282D01D13E20F9E713
:10411000FCF74AF80746FF2D03D14148006890F8A4
:104120003250404850F8254024B93846FCF740F852
:104130004320E7E7012C04D13846FCF739F83D204D
:10414000E0E714F8340F3849085C61788843217837
:10415000354A505414F834091146085C30B994F8C3
:10416000361032480078884330490870E06918B149
:104170002046E16900F0F1F9666A16B1304600F0B8
:1041800079FA0020E06284F8300084F83100284891
:104190000078FF2804D226480078401C2449087083
:1041A0003846FCF705F800F092F9FBF7FDFF0746EB
:1041B0001F48007820B11E480078401E1C49087036
:1041C000204600F041F81B480078401E194908704D
:1041D0000020144941F82500A06930B90020616928
:1041E000886115496069086005E0D4E90501486106
:1041F000D4E9051088611148006860610F480460C7
:104200000FA0E0643846FBF7D3FF0E480078012882
:1042100001D100F025FB002074E700000801002018
:104220001C0100207C2800200D0100200C01002032
:104230000901002014010020280100202001002095
:104240003F00000013010020704770472DE9F04146
:1042500006460F4614464FF000081548007818B17E
:1042600012202070BDE8F081FBF79EFF8046FF2EF4
:1042700003D11048006890F832600F4850F826507B
:104280002DB94046FBF794FF43202070EAE7012D4B
:1042900005D14046FBF78CFF43202070E2E7EF6436
:1042A0004046FBF785FF0020207000BFDAE70000E2
:1042B000080100201C0100207C280020704700001D
:1042C00070B50446101D20F007004FF08076051FE2
:1042D00028462E60051F28462C60214E051F2846C3
:1042E0002E604FF01236051F28462E604FF0033621
:1042F000051F28462E604FF00236051F28462E6007
:104300007610051F28462E60051F284629604FF0AD
:104310001136051F28462E604FF01036051F28461F
:104320002E604FF00936051F28462E604FF00836E4
:10433000051F28462E604FF00736051F28462E60C1
:104340004FF00636051F28462E604FF00536051F34
:1043500028462E604FF00436051F28462E6070BD9B
:10436000714A00087047000070B5054600261748DE
:10437000007800B170BD1648007800B1FAE71DB3AF
:10438000FBF712FF06461348006890F834401248C5
:10439000005D1049096891F8351088430E490855A9
:1043A0000846005D40B90B48006890F836100B488D
:1043B000007888430949087006480068C56230469D
:1043C000FBF7F6FE00F04CFA00BFD3E7080100202F
:1043D000090100201C0100200D0100200C0100201B
:1043E00070B5002600F072F8FBF7DEFE0646314895
:1043F0000068401C2F4908603046FBF7D9FE2E4864
:104400000078012853D12D48007820B1012804D02C
:10441000022809D103E001250BE0002509E0012570
:1044200001202649087004E0012500202349087076
:1044300000BF00BF05B970BD2148046833E0FBF739
:10444000B3FE0646E06A50B3E06A401EE062E06AEE
:1044500028BB94F8300000F0370040B114F8300F5A
:1044600000F0C800207001206070303C02E00020A5
:1044700084F8310094F8300000F0080078B9343442
:10448000A0781049097808430E49087020780E4931
:10449000085C6178084314F834190B4A5054646975
:1044A0003046FBF785FE94F832002828C7D100BFBC
:1044B000C1E7000030010020130100202C01002082
:1044C000280100200C0100200D01002070477047DA
:1044D0002DE9F04F05460F4690469946A87A1949AE
:1044E0000E5C05F10B00805D11F800B00BEBC6000F
:1044F00000F0FF0A144850F82A4000202034E06001
:104500002760207C20EA0800207484F81190207C29
:10451000203C00F0080068B994F836000B4909788F
:1045200008430A4908700A48805D94F8351008432A
:10453000074988552946204600F00FF8504600F0FC
:1045400009B80000A05F00087C2800200C010020B2
:104550000D01002030BCBDE8C08F10B590F83420AC
:1045600001F10B039B5C90F83540A34301F10B0470
:10457000A35423469B5C23B98B7A90F83640A3431F
:104580008B7210BD10B51B4A1268D061194A1268AF
:1045900092F8343000F10B02D25C164B1B6893F892
:1045A00035301A43134B1B6893F8344000F10B036A
:1045B0001A55827A0F4B1B6893F836301A43827271
:1045C0000C4A126892F834100B4A525C094B1B6873
:1045D00093F835309A43084B5A541A46525C42B904
:1045E000044A126892F83630044A12789A43034B10
:1045F0001A7010BD1C0100200D0100200C010020CC
:10460000014600228A72002005E0002301F10B021E
:104610001354421CD0B20628F7D370472DE9F0415D
:104620005021114800F012F900250DE0681C86B2F7
:104630000D4800EB051400EB0617002020706760A2
:104640000AA0E060681C85B2042DEFD3064800EB99
:10465000051400202070606004A0E0600248044956
:104660000860BDE8F08100002C2600203F0000001B
:104670000401002030B501464A6808682AB9CC68B0
:10468000606028B10025456002E0106000B1426022
:104690008B6800255D6230BD70B54FF4F071134832
:1046A00000F0D4F8002411E0601C85B204EB440053
:1046B0000E4901EBC00305EB450001EBC0060020ED
:1046C00018705E600AA05861601C84B2132CEBD392
:1046D00004EB4400054901EBC0030020187058604A
:1046E00003A0586108460349086070BD4C240020AF
:1046F0003F00000000010020002008490860084930
:104700000870084908700849087008490870084985
:1047100008600849086008490870704730010020A7
:1047200008010020090100201401002013010020CD
:10473000FC000020180100202D01002000210A4A61
:104740001170002004E00021084A1154411CC8B235
:104750000628F8D30021064A1170064A1170064A4D
:104760001160064A116070470C0100200D01002005
:104770000A0100200B010020240100201C01002060
:1047800070B540F62C21184800F060F8A4211748B5
:1047900000F05CF8002413E0601CC5B2C4EBC40058
:1047A00000EB4000104901EB8003C5EBC50000EBB6
:1047B000400001EB80065E610DA0D864601CC4B2AD
:1047C0001E2CE9D3C4EBC40000EB4000064901EB0A
:1047D00080030020586106A0D864002005490860C5
:1047E00001480549086070BD202900207C28002070
:1047F0003F000000280100202001002000B587B004
:104800000320002180220A4BCDE90132CDE90310BB
:104810004FF6FF702823074A00900748FFF710FC67
:1048200006AA06A12820FFF711FD07B000BD000071
:104830007C26002078280020494A000875432F4F25
:10484000532D49492049646C6500000004E00022B2
:1048500000F8012B4A1E91B20029F8D170470000E0
:1048600010B50024FBF7A0FC044613480078F8B903
:1048700012480078E0B900F02DF811481149097884
:1048800050F82100104908600E4800780F49097857
:1048900088420DD00C480068806B401C0A490968AA
:1048A00088630B480068401C09490860FBF797FCC7
:1048B0002046FBF77DFC10BD080100200901002007
:1048C0007C2800200B010020240100200A01002088
:1048D000FC0000200649074A1278885C0649095CFA
:1048E000034A515C01EBC001044A1170704700009B
:1048F000A05F00080C0100200D0100200B0100202A
:104900002DE9F84F05460F4690469946DDE90AAB7A
:1049100000200090FBF748FC009042480468002CFF
:104920007AD0183454F8040C3E4908600098FBF71C
:104930003FFC44F8187CA576002020766076606104
:1049400044F814BC44F80CAC44F8108C0C9824F8CF
:10495000080C24F8069C0020E077E810207705F08A
:104960000700E076217F01208840A077E17E0120CA
:104970008840607700206060E060A0602062A062F4
:104980006062E062206328A06063183C002606E0B5
:10499000002104F1500040F82610701CC6B2002E11
:1049A000F6D02046FFF74AFBFBF7FEFB00901F48BE
:1049B00040F825400098FBF7FBFB2046FFF799FBEA
:1049C000FBF7F2FB00901A48006860610020A061CC
:1049D0001748006810B116480068846114480460E4
:1049E0003434A078134909780843124908702078B4
:1049F0001149085C6178084314F834190E4A505480
:104A00000E480078401C0D4908700098FBF7D0FB59
:104A1000002000F015B8FFE70098FBF7C9FB422023
:104A2000F7E70000200100203F0000007C28002064
:104A3000280100200C0100200D010020140100209D
:104A400018BCBDE8E08F0000002400BF00BFFBF7EA
:104A5000ABFB044605480068401C0449086020463A
:104A6000FBF7A6FBFFF7F1FBF1E7000018010020C0
:104A700010B504480068FFF721FCFF20FFF73AFB60
:104A800010BD00001C0100202DE9F04104460F4636
:104A900000255B48C06800F0030090B15848C0682A
:104AA00000F003002168884209D1206838B15448D9
:104AB000C068C0F30210401C6168884233D00125F1
:104AC00031E02068012804D0022809D003281AD137
:104AD0000DE04B48006800F0020000B9012514E029
:104AE0004748006800F4806000B901250DE04448A3
:104AF000006800F4003028B94148006800F48020C4
:104B000000B9012501E0012500BF00BF5DB9D4E96E
:104B10000010401E41EA00103949C96821F07301B4
:104B200008433749C860002D67D13548006820F038
:104B3000806033490860FDF733FD064606E0FDF767
:104B40002FFD801B022801D9032505E02C480068B1
:104B500000F000600028F2D100BFC5BB67B9A068B3
:104B60000002217B40EAC16025490969254A1140BC
:104B700008432349086120E0012F0FD1A0680002FB
:104B8000218A0122C2EB510140EA41501C490969C6
:104B90001D4A114008431A4908610EE0A06800024E
:104BA000217D0122C2EB510140EA416014490969AB
:104BB000164A11400843124908611148006840F044
:104BC00080600F490860FDF7EBFC064607E014E043
:104BD000FDF7E6FC801B022801D9032505E0084803
:104BE000006800F000600028F2D000BF2DB9044832
:104BF0000069A1690843024908612846BDE8F081BF
:104C000000100240FF80FF07FF809FFFFF80FFF939
:104C1000F8B5044600262348806D00F0805018B196
:104C2000FDF7ACFD054616E000BF1E48806D40F064
:104C300080501C4988650846806D00F080500090C7
:104C400000BF00BFFDF79AFD05461648806D20F0B5
:104C5000805014498865B5F5007F07D1802C10D9A4
:104C6000A02C01D902260CE001260AE0802C01D9F3
:104C7000032606E0802C01D1022602E0702C00D130
:104C800001260948006820F0070030430649086003
:104C90000846006800F00700B04201D00120F8BDCE
:104CA0000020FCE700100240002002402DE9F843FC
:104CB00004460F4615461E464FF000082246394668
:104CC0001248FBF71EFB10204FF090418862142021
:104CD0000090601983B20E4A0C490E48FEF7B0FDF1
:104CE0000D4908600846006808B100F001FA08485C
:104CF00001192A463046FBF704FB4FF0000810204C
:104D00004FF0904188614046BDE8F883D8210020EB
:104D1000D8220020D8230020F800002000B585B05C
:104D200014216846FBF706FB4FF4805000900120E9
:104D30000190022002900320039069460C48FDF781
:104D40003DFB00224FF480510948FDF723FC4FF44E
:104D50008050009000200190012002906946044894
:104D6000FDF72CFB022001F08FF805B000BD00001C
:104D70000004004801460020044A126890B24FF631
:104D8000C77210400843014A10607047003001406C
:104D9000F8B504460E461546334600224FF4C0517E
:104DA0002046009500F030F828B1206E40F0200039
:104DB00020660320F8BD334600228021204600955E
:104DC00000F077F828B1206E40F020002066032024
:104DD000F0E7334600224FF4C0612046009500F012
:104DE00013F828B1206E40F0200020660320E1E790
:104DF0000020DFE700B50820FFF7BCFF00BD00B5CD
:104E00002020FFF7B7FF00BD2DE9F04104460E4614
:104E100017461D46DDF8188044E0B6F5C06F02D194
:104E20000FB92068007B681CD8B3FDF7B9FBA0EB75
:104E30000800A84200D2A5BB2068406820F0E0002E
:104E4000216848606068B0F5827F0DD1A068B0F538
:104E5000004F03D0A068B0F5806F05D120680068CE
:104E600020F0400021680860A06AB0F5005F0DD115
:104E700000BF2068006820F40050216808602068A6
:104E8000006840F400502168086000BF012084F8E9
:104E90005D0000BF002084F85C0000BF0320BDE877
:104EA000F081FFE7206880683040B842B5D100202B
:104EB000F5E72DE9F04104460E4617461D46DDF89C
:104EC00018803EE0681CD8B3FDF76AFBA0EB080031
:104ED000A84200D2A5BB2068406820F0E00021680D
:104EE00048606068B0F5827F0DD1A068B0F5004FD2
:104EF00003D0A068B0F5806F05D12068006820F06D
:104F0000400021680860A06AB0F5005F0DD100BFC5
:104F10002068006820F4005021680860206800685C
:104F200040F400502168086000BF012084F85D0053
:104F300000BF002084F85C0000BF0320BDE8F081C2
:104F4000FFE7206880683040B04201D1012000E0D6
:104F50000020B842B6D10020F0E700000FB470B5D1
:104F60000546099C1CB916490598086002E01449D9
:104F700005984860124884609DF81800104908613F
:104F80009DF818200DF119010E48FBF7BAF90E4BE8
:104F90000C4A0B490D48FCF7D2FD0D490870084634
:104FA000007850B10948406AB0F5001F03D10120D4
:104FB00070BC5DF814FBFBF7EDFC0020F8E7000087
:104FC00038170020B5000020C8000020101700206E
:104FD000B4000020704700002DE9F04188B005467C
:104FE0000C4690461E460E9F0020079003900490AA
:104FF0000590069024B1012C21D0062C5ED100E052
:1050000000BF079820F038003830079030A00188A2
:10501000ADF8111080788DF8130031218DF814103F
:105020000CB9012100E000218DF8151001218DF847
:10503000161008208DF81000079803903FE02548CF
:105040000078102802DB002022490870079820F021
:105050003800383007900121079861F38F100790CE
:105060001C480178079861F31340079019480078AD
:10507000401C184908703A4631460DF11100FBF703
:1050800040F908208DF810000798039003980090CD
:1050900008208DF80400DDF81100CDF80500BDF8FA
:1050A0001500ADF809009DF817008DF80B000C21D4
:1050B0006846FBF769FB8DF8180000E000BF00BFF1
:1050C00003A80FC885E80F0008B0BDE8F081000014
:1050D000414C4D00E400002003B5BDF80410A0F8D9
:1050E00007100CBD03B5BDF80410A0F805100CBDE9
:1050F00000BFFEE710B5FEF7A7FD10BD00BFFEE73D
:1051000010B5FEF751FEFFF76BF9FDF74FFAFEF70A
:105110005DFE10BD00B5B1B0442120A8FBF70AF92F
:1051200014211BA8FBF706F9682101A8FBF702F977
:105130004FF40070FDF7DCFA08B1FCF7F3FB012037
:1051400020900004219002202A90032120A8C1620F
:1051500001210163242141630621C163042101640B
:10516000FDF77EFE08B1FCF7DDFB0F201B9003204E
:105170001C9000201D904FF480601E9000201F9016
:1051800004211BA8FDF70AFD08B1FCF7CBFB07487B
:105190000190002009904FF00060179001A8FDF7E2
:1051A000F5FA08B1FCF7BEFB31B000BD0100040008
:1051B0000D48006840F001000B490860002088603D
:1051C0000846006809490840074908608814C86013
:1051D0000846006820F48020086000208861C80329
:1051E000034908607047000000100240FFFFF6EA24
:1051F00008ED00E070B50A46002400258389042BE1
:1052000013DA8689731C838100F1100323F81620BA
:1052100043895B1C43814389DE1703EB9676B61006
:10522000A3EB8606468184890FE04689731C43817F
:1052300000F1100323F816204389DE1703EB96765E
:10524000B610A3EB860646810424002106E000F197
:10525000100333F811301D444B1C99B2A142F6DB08
:1052600041F288334380B5FBF4F3C38070BD000086
:1052700070B504460D46FCF75BFBFCF7F5FB0646F4
:1052800002232A46214600F0C1F902480068FEF7D1
:1052900085FE70BD0000002070B504460D46FCF789
:1052A00047FBFCF7E1FB064603232A46214600F0B4
:1052B000ADF902480068FEF771FE70BD00000020E5
:1052C00008B556E02B48D0F840012B490860FCF7A0
:1052D00019FC04466A46214628480068FEF7E8FDA6
:1052E0009DF80000002844D09DF800000A2840D115
:1052F0002148006800283CD0FCF7B6FB04461E4855
:1053000000680068C2881C480068006801880123A2
:10531000204600F07BF9184800684068164908608C
:1053200022E06A46282115480068FEF7C1FD9DF875
:1053300000000A2817D110480068A8B1FCF794FBB8
:1053400004460D4800680068C2880B480068006881
:1053500001880123204600F059F907480068406899
:105360000549086000E003E0034800680028D8D140
:1053700000BFA7E740110020080000200000002027
:1053800010B586B00446FDF719F9FFF7C3FEFCF728
:10539000D5F9FFF7C3FCFFF7ADFEFFF730FD0120A5
:1053A000FBF7CEFD401C18B901E0FCF7BBFAFCE7A7
:1053B000FBF728FA032000214FF48072084BCDE957
:1053C0000132CDE9031006200346064A0090064844
:1053D000FEF736FEFF20FEF78DFE06B010BD000082
:1053E000400500203C090020355400082DE9F0411B
:1053F0000027FAF7D9FE0746FCF702FB0446002611
:105400000FE02068FCF72AF9206800F02FF930B18E
:105410002546646829463046FCF7ACF801E026468C
:105420006468002CEDD13846FAF7C2FEBDE8F08181
:1054300000BFFEE71CB500BF2048FCF754F9FBF79E
:10544000BDFB00F0A9F8FBF775FD00211C4AC2E97D
:1054500002011046FCF77AF9FCF74EFB1949088067
:105460000888FBF7D1FE174801881748FFF734FE7C
:10547000144801881548FFF72FFEFEF787FB1448F4
:10548000144B154A15490090154800F019FC0120ED
:10549000FBF7C2FE4FF4FF70FBF700FD0020FBF7A7
:1054A00021FF01210F48FBF7E0FE0020FBF772FE11
:1054B00000BF01A90020FCF761F9FAE728130020DA
:1054C00020000020C81200203000002048000020EA
:1054D0000F5D00084B5E00085D5E00081D5500086A
:1054E000A15E000880D0230404E0FFF77FFFFA20CC
:1054F000FEF73AFFF9E7000000BF0AE04FF4004171
:105500000448FDF73FF8044908704FF4FA60FEF7CD
:105510002BFFF3E7000400487000002038B5044674
:10552000A088402833DCA18800221948FBF70CFE34
:10553000174800880090BDF800000221B1EB903FB1
:1055400022D1BDF8000000F0070010B1012819D1E8
:1055500008E00F48C0790F2803D1A1880C48FAF75A
:105560007FFF10E00A48B0F805000A490988884220
:1055700004D1A1880648FAF743FF02E00720FAF7B2
:1055800069FF00E000BF02E00820FAF763FF38BDC2
:1055900088120020C812002008B56A46002102487F
:1055A0000068FEF785FC08BDDC00002010B5437FD5
:1055B000821C22F81310C37F32F813208A4202DAC9
:1055C000427FC27709E090F82030821C32F8132025
:1055D0008A4202DD427F80F82020427F521C4277BF
:1055E000427F0A2392FBF3F403FB14224277027FEB
:1055F000521C0277027F0A2A01DA027F00E00A22A7
:105600000277028B521C028310BD0000F0B58BB0F4
:1056100005460E4617461C46002009900A90E8B23F
:105620008DF824009DF8250064F303008DF8250013
:10563000ADF82660ADF82870062009AB00220121E4
:10564000009001A8FFF7C8FC01A80FC8CDE9072307
:10565000CDE9050108980090034805A90EC9FBF79C
:1056600055F90BB0F0BD0000C02000202DE9F05F1F
:10567000074600260024A1463648D0F84051B7F826
:105680000080B7F816A02DB951464046FCF788F9BE
:1056900006465CE007E028680088404501D12C46BA
:1056A00003E0A9466D68002DF5D100BF002C48D05D
:1056B0003846FBF75EFA0646022E04D151464046B4
:1056C000FFF7EAFD0FE051462068FFF793FD2168E0
:1056D000C888FBF767FA0646012E04D12068C18806
:1056E0004046FFF7C5FDCEB1B9F1000F0BD1194906
:1056F0006068C1F840010846D0F84401606008467F
:10570000C0F8444122E06068C9F804001148D0F8AC
:10571000440160600F48C0F8444117E02068FBF77F
:1057200013FA98B1FCF7A0F983462068C2880123D8
:1057300041465846FFF76AFF07480068FEF72EFC0F
:1057400004E051464046FCF72BF9064600BF3046C0
:1057500000F004B8401100200000002030BCBDE87B
:10576000C09F00002DE9F04704460F4615461E462F
:105770004FF00008FBF7F2FE814610204FF09041F9
:105780008862224639461148FAF7BBFD0F490819CD
:105790002A463146FAF7B5FD601982B214230B4947
:1057A0000B48FDF75BFF0B4908600846006808B12D
:1057B000FFF79EFC4FF0000810204FF090418861E9
:1057C0004846FBF7C4FE4046BDE8F087D8210020DC
:1057D000D8230020F800002010B504466D2240F6C2
:1057E00006012E20FBF74BFE3CB140F2076241F66A
:1057F00006012E20FBF71EFE06E041F2076241F68D
:1058000006012E20FBF716FE10BD38B504466B4688
:10581000022200213620FBF765FC0F2C5FD2DFE867
:1058200004F012081B5E5E5E5E24335E5E40474EEF
:10583000570000208DF800009DF8010000F0FE00E8
:105840008DF801004CE09DF8000000F0FC0040F0F5
:1058500001008DF8000043E09DF8000000F0FC001E
:1058600040F002008DF800003AE09DF8000000F0E2
:10587000B30040F048008DF800009DF8010040F0B2
:1058800080008DF801002BE09DF8000000F0B300CF
:105890008DF800009DF8010000F07F008DF80100F8
:1058A0001EE09DF8010040F002008DF8010017E0B5
:1058B0009DF8010000F0FD008DF8010010E09DF85A
:1058C000000000F0CF0040F020008DF8000007E05D
:1058D00001208DF8000003208DF8010000E000BFDA
:1058E00000BF6B46012200213620FBF7D2FD0DF1EF
:1058F0000103012211463620FBF7CBFD38BD10B560
:105900000E20FFF782FF4FF4004206212D20FBF707
:1059100091FD0120FBF77CF90120FFF776FF10BD18
:1059200070B50446A2B204212D20FBF783FD0322AB
:1059300006212D20FBF7A3FD002206212D20FBF7D9
:105940009EFD0A212D20FBF7A6FB0546284670BDCB
:1059500010B5002202212C20FBF791FD02221146F6
:105960002C20FBF78CFD10BD02E008C8121F08C1F7
:10597000002AFAD170477047002001E001C1121FD0
:10598000002AFBD1704710B50020FFF73EFF002230
:1059900004213620FBF74EFD10BD00000FB42DE9A9
:1059A000F04F89B0DDF878A000BF00BFDDE9183006
:1059B000DDE912219A1A88410DD2DDE91810091C7F
:1059C00040F58070CDE91810DDE91A10091C40F58A
:1059D0008070CDE91A10DDE9193218991B98511A17
:1059E000984106D2DDE91A10091C40F58070CDE916
:1059F0001A10DDE91513149A17989A1A88410DD2D6
:105A0000DDE916301A1C40F58070CDE91620DDE97D
:105A10001C301A1C40F58070CDE91C20DDE91632DF
:105A2000DDE91C10C91A904106D2DDE91C20121CC8
:105A300040F58070CDE91C20DDE91231DDE9182048
:105A4000D41A60EB0105DDE91632DDE91C10CE1A2F
:105A500060EB0207DDE91831DDE91A20B2EB03083B
:105A600060EB0109DDE91432DDE91610C91A60EBBB
:105A70000200CDE90610A4FB062005FB060004FB8E
:105A80000703DDE90601A8FB00CB09FB00B008FB1A
:105A90000100B2EB0C0183410AD20021CAF80010C8
:105AA000CAF80410002009B0BDE8F00F5DF814FB3F
:105AB000A4FB062005FB060004FB0703DDE9060145
:105AC000A8FB00CB09FB00B008FB0100B2EB0C0106
:105AD00063EB0003CDE90013A11945EB070011EBBF
