:020000040800F2
:10000000903C0020A1010008E14800086942000876
:10001000DD48000879090008916D00080000000023
:10002000000000000000000000000000355C000837
:100030000916000800000000070200087D5C0008A7
:10004000BB010008BB010008BB010008BD59000846
:10005000BB010008BB0100082F160008BB01000807
:10006000BB01000841160008BB010008BB010008E5
:10007000BB010008BB010008BB010008BB01000870
:10008000BB010008BB010008B1030008000000002C
:100090000000000000000000000000006D160008D5
:1000A000BB010008BB010008BB010008BB01000840
:1000B000BB0100080000000000000000BB010008B8
:1000C000BB010008BB010008BB010008BB01000820
:1000D000BB010008BB010008BB010008BB01000810
:1000E000BB010008BB010008000000000000000088
:1000F0000000000000000000000000000000000000
:1001000000000000000000000000000000000000EF
:100110000000000000000000BB010008000000001B
:10012000BB010008BB010008BB010008BB010008BF
:10013000BB010008000000000000000000000000FB
:10014000BB010008BB010008BB010008BB0100089F
:10015000BB010008BB010008BB010008BB0100088F
:10016000BB010008BB010008000000000000000007
:1001700000000000BB0100080000000000000000BB
:10018000BB010008BB010008BB010008DFF80CD070
:1001900000F0D0F80048004719720008903C002099
:1001A0000648804706480047FEE7FEE7FEE7FEE711
:1001B000FEE7FEE7FEE7FEE7FEE7FEE7F15D00088B
:1001C0008D010008EFF3108072B6704780F310883D
:1001D00070471D484FF0FF010170002080F309882F
:1001E0001A48012101701A484FF08051016062B62F
:1001F000FEE717484FF080510160704714484FF0F8
:1002000080510160704772B6EFF3098028B1203841
:1002100080E8F00F0F490968086000B50E48804774
:100220005DF804EB0D480E490A78027009480D4943
:100230000A680260106890E8F00F203080F30988A7
:100240004EF0040E62B6704722ED00E0F50100208A
:1002500004ED00E0FC01002039510008EE0100200F
:10026000EF010020040200202DE9F05F0546002088
:1002700092469B4688460646814640241BE0284617
:1002800041464746224600F044F853465A46C01AB3
:10029000914110D311461846224600F019F82D1A44
:1002A00067EB01084F4622460120002100F010F8BC
:1002B00017EB00094E41201EA4F10104DFDC484683
:1002C00031462A46434600F000B830BCBDE8C09F26
:1002D000202A04DB203A00FA02F100207047914006
:1002E000C2F1200320FA03F3194390407047D2B2C1
:1002F00001E000F8012B491EFBD270470022F6E70F
:1003000010B513460A4604461946FFF7F0FF20468B
:1003100010BD202A04DB203A21FA02F000217047A8
:1003200021FA02F3D040C2F120029140084319465D
:1003300070470000064C074D06E0E06840F00103FE
:1003400094E8070098471034AC42F6D3FFF722FF39
:1003500088740008A874000870B58C1810F8015B48
:1003600015F0070301D110F8013B2A1106D110F84E
:10037000012B03E010F8016B01F8016B5B1EF9D152
:100380002B0705D40023521E0DD401F8013BFAE7D8
:1003900010F8013BCB1A921C03E013F8015B01F843
:1003A000015B521EF9D5A142D8D3002070BD0000D8
:1003B000054800680068C0F3C01018B180200249E9
:1003C00009680860704700004424002070B50446A6
:1003D000206803F0FDFF0646206803F0FEFF70B3BF
:1003E0006EBB2068806800F00D0001280AD12068EB
:1003F0008168174A1140891C816000BF0320216871
:10040000086009E0606D40F010006065A06D40F08C
:100410000100A065012070BD02F0AAFC05460FE0B6
:1004200002F0A6FC401B02280AD9606D40F01000C3
:100430006065A06D40F00100A0650120EBE705E0DC
:100440002068806800F001000028E9D10020E2E780
:10045000C0FFFF7F70B50446206803F0BEFF88BB75
:10046000206880681849084048B1606D40F010006D
:100470006065A06D40F00100A065012070BD20689E
:1004800003F090FF02F074FC054615E0206803F0CD
:10049000A4FF10B9206803F085FF02F069FC401B3F
:1004A000022809D9606D40F010006065A06D40F031
:1004B0000100A0650120E1E72068006800F001006C
:1004C0000028E3D00020D9E73F0000802DE9F84361
:1004D00004464FF0FF39002002230522611D0090E1
:1004E000194806F06AFC01F0A3FA05460E464FF0E3
:1004F000FA73EA1846F10000010641EA122738466D
:1005000000F0A6FE002210490C2001F054F8012250
:1005100000210C2001F062F80121802000F0A9FEEA
:10052000012000F06BFF4FFA80F9FF2004F0B0FDCE
:10053000F82200210F2000F0ECFF0021802000F0C5
:1005400098FEBDE8F883000071010020F0B593B07B
:1005500005464FF0FF37082000F0AEFC012000F008
:100560005FFE0020022307222946009012A805F012
:1005700095FA00200223052212A90090DE4806F019
:100580001CFC01F055FADD4A03C2DC48D0E900202A
:100590004FF0FA73D21840F10000010641EA12262A
:1005A000304600F055FEFA2000F085FE4FF42F7023
:1005B00000F09CFE0022D0490F2000F0FCFF00223A
:1005C00011460F2001F00AF8032000F017FF47B290
:1005D0000120CB490870FF2004F05AFD0020C849D3
:1005E000087000210F2000F062FDC649086000F489
:1005F000804000287ED04FF4814200210F2000F07F
:1006000088FF0021102000F052FD00F07F04372CFD
:1006100071DC00222146BC4800F0A2FDBA48407AB5
:100620000D2869D104214FF0904002F097FBB748A4
:100630000088401CB549088001F010FAB44A03C292
:1006400001F0F6F9B34A03C210A9AF480A3001F02D
:1006500054F90EA9AC480F3001F04FF90CA9AA4883
:10066000143001F04AF90AA80890AA4803C8CDE955
:100670000601DDE90C01CDE90401DDE90E01CDE95A
:100680000201A34903C9CDE900019C480CC8DDE97A
:10069000100106F0E5FC0A9880B29F490860BDF899
:1006A000480000F047F99D490870084690F900009D
:1006B000401C00287ED0084690F90000984991F926
:1006C000001088421DD0964890F9000000EB4000D1
:1006D000944901EB8000007A98B9914890F90000A4
:1006E000401C70B100218E4890F9000000F046F9DE
:1006F0008D4802E0E4E0F4E0D7E00068401C8A495D
:1007000008600020854991F9001001EB4101854AFC
:1007100002EB81010872814890F90000804908705D
:100720007E4890F9000000EB4000114601EB80008C
:10073000807980B90020794991F9001001EB4101DD
:1007400002EB81014872754991F9001001EB4101FA
:1007500002EB81018872BDF84800704991F90010E0
:1007600001EB41016F4A22F821006B48008881B2F9
:100770006A4890F9000000EB400002EB8000801C0A
:10078000664A92F9002002EB4202664B03EB8202BA
:10079000927920F81210614890F9000000EB4000B7
:1007A000194601EB8000801C5C4991F9001001EBB7
:1007B000410100E078E01A4602EB8101497A30F805
:1007C000110055490968884209DA544890F9000037
:1007D00000EB4000114601EB8000807908E04F48B3
:1007E00090F9000000EB40004E4901EB8000407A98
:1007F0004A4991F9001001EB41014A4A02EB81019B
:100800004872464890F9000000EB4000114601EBA9
:100810008000801C414991F9001001EB410102EB7D
:100820008101897A30F811003B490968884209DD65
:100830003A4890F9000000EB4000114601EB8000BF
:10084000807908E0354890F9000000EB4000354918
:1008500001EB8000807A314991F9001001EB4101F0
:10086000304A02EB810188722C4890F9000000EBBD
:100870004000114601EB80008079401CC0B227493E
:1008800091F9001001EB410102EB8101887101280F
:100890000AD10021214890F9000000F06FF82248A9
:1008A0000068401C204908601BE018480088401C74
:1008B000164908801D480088401C1C49088010E02B
:1008C0001B4A00210F2000F024FE00F094FC0F488A
:1008D0000088401C0D49088014480088401C1349BA
:1008E0000880002000F09CFC00F00AFB002000F0D3
:1008F000E3FA13B0F0BD00006201002038010020CF
:100900008201002058010020102300207E010020D9
:10091000400100204801002030010020600100203B
:1009200061010020482300205401002080010020A4
:100930000090272410B502464FF0FF33002115E048
:1009400001EB41000B4C34F82000904201D10846E5
:1009500010BD01EB4100074C04EB8000C07908B9E1
:10096000084600E018460346481C41B20A29E7DB66
:100970001846EDE74823002000BFFEE730B50A46E1
:10098000D2B3002123E000EB4003604C04EB83036F
:100990005B7A8B4219D000EB400304EB83039B7A14
:1009A0008B4212D000EB400304EB83039B1C33F813
:1009B000113000EB4004554D05EB8404A48823441A
:1009C00000EB400405EB8404A3804B1CD9B200EB80
:1009D00040034E4C04EB83039B798B42D3DC00EB4A
:1009E000400304EB83039B799B1E00EB4004474DBF
:1009F00005EB8404A37120E0FFE7002115E000EB84
:100A00004003424C04EB83039B1C33F8113000EB92
:100A100040043E4D05EB8404A488234400EB4004CD
:100A200005EB8404A3804B1CD9B200EB4003374C88
:100A300004EB83039B798B42E1DC00EB4003334CF6
:100A400004EB83039C8800EB4003304D05EB8303EC
:100A50009B795B1C94FBF3F300EB400405EB8404EF
:100A6000A380002300EB400405EB8404A371012361
:100A700000EB400405EB8404237200EB40032C469A
:100A800004EB83039B88224C2488A34213DA00EBF7
:100A900040032C4604EB8303DB7963B9012300EBAD
:100AA000400405EB8404E3711A4B1B785B1C5BB2BA
:100AB000184C237029E000EB4003144C04EB830333
:100AC0009B88134C2488A3421FDD00EB40030F4C8E
:100AD00004EB8303DB79012B17D1002300EB4004E7
:100AE0000A4D05EB8404E3714FF6FF7300EB4004FD
:100AF00005EB8404A380074B1B785B1E5BB2054C9F
:100B00002370002B01DA0023237030BD482300201E
:100B10005E0100205C0100202DE9F04104460D46F5
:100B200016461F463A463146284600F01CFF8046CE
:100B3000A04502D10120BDE8F0810020FBE70000C4
:100B400038B500F0DDF94FF4C87000F0B4FB4FF495
:100B50007A7000F0CBFB002223490A2000F02BFD25
:100B6000012200210A2000F039FD022000F046FC9D
:100B700045B200BF00210F2000F099FA1B49086020
:100B80001B4908400028F5D01848008800F4804030
:100B900000B34FF4814200210F2000F0BAFC002185
:100BA000102000F084FAC0F30904372C19DC00226D
:100BB0002146104800F0D4FA0E48407A102810D18F
:100BC0000020022307220B4900900B4804F066FF27
:100BD000012038BD094A00210F2000F09AFC00F0E6
:100BE0008FF90020F5E70000B0000020D0000020C1
:100BF00000D02704101F00201C010020F89027249B
:100C000010B50446204606F01FFB10BD2DE9F05F2D
:100C100004464FF00009CA4625786079864931F8C4
:100C200010806078401EC6B2042D01D0072D01D17E
:100C3000012000E000208346E07950B97F48006839
:100C4000406940F480007D49096848614FEAE8083E
:100C500007E07A480068406920F480007749096815
:100C60004861207A754909680872744800684069CB
:100C700020F4403071490968486170480068406953
:100C8000217A4FF4403202EA014108436B49096876
:100C900048616A48006800214269042000F039FC7C
:100CA000424642F604012E2000F022FC304606F0B7
:100CB000F5F8634800F0F2F86248405D624951F887
:100CC000202007212B2000F024FC5E48405D5F4976
:100CD0000A5C0B212B2000F030FC5D4810F80B2043
:100CE0000B21282000F029FC5648405D594951F855
:100CF00020200C21282000F00CFCE079564901EB63
:100D00008000A17930F811200221272000F0F0FBAB
:100D1000524830F816200421272000F0E9FBE07942
:100D200028B964220621272000F0E2FB17E0A07812
:100D300004280AD110220621272000F0D9FB102216
:100D40002621272000F0F9FB09E020220621272098
:100D500000F0CEFB28222621272000F0EEFB4048A1
:100D600000EB0610E17850F821200821272000F040
:100D7000D0FB608910B941F2410060816289202175
:100D8000272000F0B5FB37480C210268232000F033
:100D9000C0FB3448001D30F816200421232000F049
:100DA000A7FBA07950B1E0792F490A5C00212120EE
:100DB00000F0C3FB4FF003094FF0010A05F00F00EC
:100DC000F02101EA0511084361784FF4402202EA5C
:100DD00081410843910001EA095108434FF4003171
:100DE00001EA4A41084321794FF0F86202EA815151
:100DF00008436179520102EAC16140EA01073A46BB
:100E000000211F2000F085FBA078617808430004D2
:100E1000E17940EA413009490968C860074800683B
:100E20000021C268082000F074FB422200210D203E
:100E300000F083FB00F01AB824730008D0010020F2
:100E400028000020A8720008C8720008E07200089C
:100E5000E6720008B0720008F4720008007300081F
:100E600004730008E8720008F072000830BCBDE8A6
:100E7000C09F000070B504460D4607480068008B0F
:100E80000443224600212C2000F032FB2A46062192
:100E90002C2000F052FB70BDD001002010B504469C
:100EA00022780B212A2000F048FB00211E206268D6
:100EB00000F02FFB10BD000070B505460021042096
:100EC00000F0F5F80A4900EA010435B124F4FF7492
:100ED00005F4FF70401C044301E024F001040548C0
:100EE0000068446122460021042000F012FB70BD1E
:100EF000FFFF47F0D001002010B506F08BF810BDC1
:100F000070B500210E2000F0D2F8054600F084FBF9
:100F10000446002211460E2000F0FBFA4022002178
:100F20000D2000F00AFB0A4A00210F2000F0F1FA20
:100F300006F05FF92A4600210E2000F0EAFA20466A
:100F400000F063FB002003490968887670BD00004B
:100F5000F8FF2704D00100202DE9F04104460025C8
:100F60000027002046490968487445490968887681
:100F70004349096808834249096888624049096809
:100F8000C8623F49096808633D490968486300F041
:100F9000AFF83C49884202D08817BDE8F08100F0E4
:100FA000E9F9002005F093FF04220021242000F03D
:100FB000C4FA1E2006F016F885B2280A30490968DE
:100FC0004872042006F00EF80746F8B260B102221B
:100FD00012212D2000F0B1FA29480068008B40F45E
:100FE0008050274909680883062005F0FBFF244943
:100FF00009680860072005F0F5FF21490968486085
:1010000005F01F001E49096808741D480068007C2F
:1010100018B910201A490968087419490968087C28
:1010200000F09CF904F0010050B105F0CAFF14482B
:101030000068008B40F400601149096808830DE0E6
:101040000521362000F020F806464FF6FF500640F6
:1010500032460521362000F04BFA00BF012005F092
:1010600036FF00220A212C2000F067FA002104201C
:1010700000F01DF802490968486100208DE7000072
:10108000D00100203001CADEF8B504460D46002626
:10109000A9B2A0B26B46022200F030F89DF8000021
:1010A0009DF8011000EB012086B23046F8BDF8B57E
:1010B00005460E460027B1B2A8B26B46042200F0E6
:1010C0001DF8032404E01DF8040000EB0727641E4C
:1010D000002CF8DA3846F8BD38B504460D46A9B2FA
:1010E000A0B26B46012200F009F89DF8000038BD5F
:1010F00010B500210846FFF7DAFF10BD2DE9F843CF
:1011000006460C461746984600252CB9F2B22846EA
:101110006D1C0DF800201BE0F0B240F040022846A4
:101120006D1C0DF800207F2C05DCE2B228466D1CFA
:101130000DF800200CE0E0B240F0800228466D1C63
:101140000DF80020C4F3C71228466D1C0DF80020CE
:10115000A8B243463A46694604F0BCFCBDE8F883B1
:1011600070B504460D46164623462A4631461120E0
:10117000FFF7C4FF70BD10B50446234605220021C9
:101180001520FFF7BBFF10BD10B50446234605220E
:1011900000211720FFF7B2FF10BD70B5044604F020
:1011A000040008B906F025F84FF4807504F001003A
:1011B00008B145F400752A4600210D2000F098F989
:1011C00004F00100A8B103210F20FFF785FF0646B8
:1011D00006F0080068B1FFF793FE04F0020028B99A
:1011E0004FF4807200210D2000F082F94FF0FF30A3
:1011F00070BD0020FCE710B5E0220321362000F08E
:101200009CF9F0220321362000F097F910BD10B5AB
:10121000044622460021032000F06AF910BD0000B8
:1012200070B5054600210420FFF741FF074900EA99
:10123000010415B144F0005401E024F000542246AA
:101240000021042000F065F970BD0000FFFF47F0A9
:1012500010B50446224601210A2000F05AF910BDBB
:1012600010B50446234608220021012000F06FF942
:1012700010BD2DE9F04104460E4600F0CDF90746B9
:1012800000210E20FFF713FF05460EB1254300E0B5
:10129000A5432A4600210E2000F03BF9384600F015
:1012A000B4F9BDE8F08110B50446224602210320BE
:1012B00000F01EF910BD70B5054600211A20FFF799
:1012C000F6FE04466FF31304C5F3130004432246ED
:1012D00000211A2000F01DF970BD10B50446224609
:1012E00041F604012E2000F003F910BD70B504464C
:1012F00003210420FFF7F0FE0546002C14DD2246F2
:1013000000210C2000F0F4F845F010050E480068AC
:10131000406940F080500C49096848612A46032121
:10132000042000F00AF90EE025F0100506480068D8
:10133000406920F080500449096848612A46032129
:10134000042000F0FAF870BDD001002010B504466A
:1013500022460021182000F0CBF810BD70B50446DD
:1013600004F01F0040F060052A460E212B2000F0FB
:10137000E4F870BD10B505F068FE002211462C207F
:1013800000F0B6F8002206212C2000F0D6F805F077
:1013900041FE00220321362000F0CFF80120FFF7A4
:1013A0002FFCF0220321362000F0C7F8002002496C
:1013B0000968887610BD0000D001002070B5044691
:1013C0000D46FFF795FE0C49884209D023462A4670
:1013D00000210846FFF792FE0520FFF711FC01E00F
:1013E000002070BDFFF784FE0349884201D08817B2
:1013F000F7E70020F5E700003001CADE2DE9F041F3
:10140000044600260025002704F0020048B180258C
:101410002A4600210D2000F090F8012019490968A2
:10142000887604F0010018B345F006052A4600212D
:101430000D2000F082F801210620FFF738FE002180
:10144000114A03C203210F20FFF71EFE074607F4CF
:10145000816008B9002612E040252A4600210D20AF
:1014600000F06BF80020074909688876461E06E000
:1014700045F002052A4600210D2000F05EF83046B6
:10148000BDE8F081D0010020D801002010B5FFF7A1
:101490002FFE1449884219D001220221124801F07E
:1014A00061FC0220FFF7ACFB002202210E4801F094
:1014B00059FC04F07DFB0520FFF7A2FB44F2380045
:1014C000FFF744FF0948FFF7CBFE01E0002010BD05
:1014D000FFF70EFE0349884201D08817F7E7002086
:1014E000F5E700003001CADE0004004808000020D3
:1014F000F8B505460E461446E0B28DF800002012FD
:101500008DF80100B1B2A8B26B46022200F01FF8BC
:10151000F8BDF8B506460F461446002504E0E0B2D3
:101520000DF80500240A6D1C042DF8DBB9B2B0B229
:101530006B46042200F00BF8F8BD37B504460D46A3
:10154000A9B2A0B202AB012200F001F83EBD2DE924
:10155000F84306460C461746984600253CB9F0B2BB
:1015600040F0800228466D1C0DF800201BE0F0B210
:1015700040F0C00228466D1C0DF800207F2C05DCD1
:10158000E2B228466D1C0DF800200CE0E0B240F0FD
:10159000800228466D1C0DF80020C4F3C7122846AF
:1015A0006D1C0DF80020A8B243463A46694605F086
:1015B00023FCBDE8F88370B504460E46154628198D
:1015C000B0F5806F07DCA21E334629460920FFF7DD
:1015D000BEFF002070BD4FF0FF30FBE72DE9F0416A
:1015E00004460D46164607480068C068204340EA96
:1015F000855040EAC6373A4600210820FFF789FFA8
:10160000BDE8F081D0010020704710B5044614B148
:10161000062001F011FC10BD10B5062000F030F8D6
:10162000044614B1062001F0F9FB204610BD10B5A8
:1016300003F088F9012001F09DFA03F09DF910BD37
:1016400010B503F07FF90748006800F0080030B1DA
:101650000820044908600448006803F079FA03F0A0
:101660008BF910BD140401409401002010B503F063
:1016700069F9802001F07EFA03F07EF910BD0000C8
:10168000F0B5014600200022C1F30045064F07EBEC
:1016900045131C6801F01F0606EA04020AB1012086
:1016A00000E00020F0BD00000004014010B54FF440
:1016B00082714FF0904001F051FB04214FF09040B7
:1016C00001F04CFB642003F039FD10BD70B50546F8
:1016D0000C4601F087F90948056001200749486078
:1016E000204600F079F9054988600120C860044966
:1016F000024801F087F801F00BF970BD24240020A6
:10170000880100201849087F012801D0032811D141
:1017100000BF1649096841F40061144A116011467E
:10172000096821F40061116000BF1146096841F4A5
:1017300000711160022801D0032811D100BF0B49AC
:10174000096841F48051094A11601146096821F481
:101750008051116000BF1146096841F48061116039
:101760000021014A11777047AC010020002002409F
:1017700000F0010129B10649496941F00401044A18
:1017800051610349496941F48031014A516170470F
:1017900000200240094A526922F47E72C3B242EA32
:1017A000C302064B5A611A46526942F002025A615C
:1017B0001A46526942F480325A6170470020024052
:1017C00010B50449496941F00101024C61610260B0
:1017D000436010BD0020024070B5402204460B4615
:1017E000084D6D6945F48025064E756172B600BFDF
:1017F0001D682560241D1B1D551EEAB2002AF7D165
:1018000062B670BD0020024070B5441803E014F8C1
:10181000015B02F8015B1D1EA3F10106B3B2F6D114
:1018200070BD000070B5054601F0A2FA064608E05A
:10183000681C30B101F09CFA801BA84201D3032040
:1018400070BD1B480069C0F300400028F0D1184863
:101850000069184900EA01041548806900F0004059
:101860000443CCB11448406820431349486000BF8A
:1018700004F0404030B10E48806904F04041084314
:101880000B49886124F0404018B124F040400849D9
:10189000086100BF0120D3E70548006900F001009E
:1018A00020B100BF01200249086100BF0020C7E746
:1018B00000200240FAC30200AC0100202DE9F047ED
:1018C00005460E4614469A4605EB060901F08AF8CD
:1018D0000AE0D4E900733A464946002001F022F8B4
:1018E00010B909F108090834BAF10000AAF1010A97
:1018F000EFD101F00DF8BDE8F0872DE9F35F8846E0
:1019000000BF0021C8F80010C8F80410894615E08F
:10191000009810F8096000274FEAC90234463D4696
:1019200020462946D8E900ABFEF7D2FC1AEB0000AE
:101930004BEB010BC8E9000B09F10109B9F1050FE7
:10194000E6D300F000B83CBCBDE8C09F70B50146CE
:10195000002005E00A54140A44EA03621B0A401CF2
:101960000528F7DB70BD2DE9F04306460B46174608
:10197000FF21FF22184622E016F8008088EA0101C4
:101980004FF0000817E00C4615464910521005F0BC
:101990000109B9F1000F01D041F0800104F0010903
:1019A000B9F1000F03D081F0010182F0A00208F12B
:1019B000010909F0FF08B8F1080FE4DB401C03EB54
:1019C00007088045D8D8944601EB0C201FFA80FC0C
:1019D0006046BDE8F083000001460020134A12680B
:1019E0004FF6FF739A4202D14FF4003203E00F4AE0
:1019F00012881205920A02F100628A4203D9A1F10B
:101A00000062D00A10E0094A12684FF6FF739A424A
:101A100002D14FF4003203E0044A12881205920A00
:101A200002F100628A1AD00A70470000E075FF1FB9
:101A30007CB500210C460D466846FFF79CFB04264A
:101A400007E0280240EA146524021DF8060004435A
:101A5000761E002EF5DA204629467CBD7CB5002195
:101A60000C460D466846FFF78FFB042607E0280268
:101A700040EA146524021DF806000443761E002E79
:101A8000F5DA204629467CBDF8B504460E4600200E
:101A9000009000BF94F85000012801D10220F8BD49
:101AA000012084F8500000BF2046FEF78FFC054659
:101AB0009DBB606D20F4885040F002006065206896
:101AC000806820F08040304321688860206880680A
:101AD00040F000402168886013E00098401C0090AE
:101AE0000098B0F5912F0CD3606D20F0020040F00B
:101AF0001000606500BF002084F8500000BF012086
:101B0000CDE720688168C90F0029E6D1606D20F01B
:101B1000020040F00100606504E0FFE7606D40F006
:101B20001000606500BF002084F8500000BF284608
:101B3000B5E700002DE9F04399B004460E464FF09A
:101B40000008306800B100BF00BF94F850000128C1
:101B500003D1022019B0BDE8F083012084F85000C1
:101B600000BF33492068884202D13248009001E02A
:101B700000200090009850B9606D40F02000606532
:101B800000BF002084F8500000BF0120E2E7009869
:101B900002F037FC0746206802F033FCC8BBC7BB25
:101BA000254D3068F8B194F83000716841EA403052
:101BB000A96821F460410843A8601D4802F012FCA6
:101BC00081461C4802F00EFC49EA0009B9F1000FF9
:101BD00026D1B16830680843A96840F61F72914366
:101BE0000843A8601CE0A86820F46040A860104882
:101BF00002F0F8FB81460F4802F0F4FB49EA0009C5
:101C0000B9F1000F0CD1A86840F61F718843A86095
:101C100006E0FFE7606D40F0200060654FF00108CE
:101C200000BF002084F8500000BF404692E700004B
:101C30000000045000010450000304502DE9F04757
:101C400004460D464FF0000A6868B0F5400F07D013
:101C50006868B0F1A07F03D06868B0F1E07F00D180
:101C600000BF94F83800012800D100E000BF00BF99
:101C700094F85000012802D10220BDE8F08701202D
:101C800084F8500000BF206802F0B6FB814620684F
:101C900002F099FB0646B9F1000F7AD1002EFCD173
:101CA000A949286888427DD16868B0F1A07F1BD01F
:101CB00009DCB0F5000F2BD0B0F5400F0AD0B0F121
:101CC000807F37D12AE0B0F1C07F2DD0B0F1E07F26
:101CD00030D113E0A96821F07C7141F440029A49A7
:101CE000206802F093FB2BE0A96821F07C7141F0A1
:101CF000A0729549206802F089FB21E0A96821F0D3
:101D00007C7141F0E0729049206802F07FFB17E09F
:101D10008E4A8D49206802F079FB11E08C4A8A498D
:101D2000206802F073FB0BE08A4A8749206802F0C2
:101D30006DFB05E000228449206802F067FB00BFCC
:101D400000BF28692168C968C1F3C101490000FAD0
:101D500001F768692168C968C1F3C101490000FA47
:101D600001F8296843463A46206802F00BFB606D93
:101D700020F48030606520688021016000BF287BEE
:101D8000012808D12068416841F08001416000BF0E
:101D9000D3E0CCE006E02068416821F0800141609A
:101DA00000BFCAE06868B0F1A07F12D009DCB0F5CE
:101DB000000F45D0B0F5400F0AD0B0F1807F47D179
:101DC0003FE0B0F1C07F3DD0B0F1E07F40D101E015
:101DD00000BF00BF60492868884218D12068D0F849
:101DE000A010A868C0F3120018B9A868C0F38460F6
:101DF00004E0A86890FAA0F0B0FA80F000F01F02AA
:101E00000120904001432068C0F8A01017E020682E
:101E1000D0F8A410A868C0F3120018B9A868C0F3DD
:101E2000846004E0A86890FAA0F0B0FA80F000F0B6
:101E30001F020120904001432068C0F8A4100DE06B
:101E400000BF00BF2968434A206802F0DFFA05E0BE
:101E500029680022206802F0D9FA00BF00BF20687C
:101E6000C06800F0180018280BD028692168C968DC
:101E7000C1F3C1010422A2EB410101F01F01C840DE
:101E800001E02869800007462068C06800F018005B
:101E900018280BD068692168C968C1F3C101042200
:101EA000A2EB410101F01F01C84001E06869800018
:101EB0008046296843463A46206802F063FA26497C
:101EC0002868884219D1606D20F400306065206870
:101ED0004FF48071016000BF287B012806D1206883
:101EE000416841F48071416000BF26E0206841688C
:101EF00021F48071416000BF1FE0606D20F48020FC
:101F0000606520684FF40071016000BF287B0128E4
:101F100006D12068416841F40071416000BF0CE0C7
:101F20002068416821F40071416000BF05E0606DE8
:101F300040F0200060654FF0010A00BF002084F8E7
:101F4000500000BF504698E60000C07DFFFF8700AC
:101F5000FFFF0701FFFF8701FFFF17002DE9F84F83
:101F600005460C464FF0000A00200090FE49E0684C
:101F7000884200D000E000BF00BF95F85000012863
:101F800002D1022000F050BA012085F8500000BFB5
:101F9000286802F031FA002872D1606805281AD842
:101FA0006068022806D0032807D0042808D0052836
:101FB0000DD108E00C2060600CE01220606009E0A8
:101FC0001820606006E04FF48070606002E0062038
:101FD000606000BF00BF2968D4E9002001F1300C27
:101FE000C0F3012B0CEB8B0300F01F0E4FF01F0B07
:101FF0000BFA0EFBD3F800C02CEA0B0C00F01F0B01
:10200000C2F3846E0EFA0BFE4CEA0E0CC3F800C04D
:1020100000BF286802F0F0F98146286802F0D3F981
:102020008046B9F1000F2AD1B8F1000FFBD1A268A8
:102030002168286802F002FA60692968C968C1F35A
:10204000C101490000FA01F72069042819D0286865
:102050002268216900F1600C0CEB8103DFF80CB3FE
:10206000D3F800C00CEA0B0C02F0F84B4BF0004B1D
:102070004BEA070B4CEA0B0CC3F800C000BFA8E00A
:10208000B9E10021286802F095F9C0F3120030B9D7
:102090000021286802F08EF9C0F3846007E0002177
:1020A000286802F087F990FAA0F0B0FA80F0216871
:1020B000C1F3120119B92168C1F3846104E02168F8
:1020C00091FAA1F1B1FA81F1884204D100221146BE
:1020D000286802F0CDF90121286802F06BF9C0F3FD
:1020E000120030B90121286802F064F9C0F384605D
:1020F00007E00121286802F05DF990FAA0F0B0FA3B
:1021000080F02168C1F3120119B92168C1F384611B
:1021100004E0216891FAA1F1B1FA81F1884204D179
:1021200000220121286802F0A3F90221286802F0A8
:1021300041F9C0F3120030B90221286802F03AF9DF
:10214000C0F3846007E00221286802F033F990FAB6
:10215000A0F0B0FA80F02168C1F3120119B921682A
:10216000C1F3846104E0216891FAA1F1B1FA81F12F
:10217000884204D100220221286802F079F9032163
:10218000286802F017F9C0F3120030B9032128685B
:1021900002F010F9C0F3846007E00321286802F020
:1021A00009F990FAA0F0B0FA80F02168C1F31201A9
:1021B00019B92168C1F3846104E0216891FAA1F1A1
:1021C000B1FA81F1884204D100220321286802F08B
:1021D0004FF9286802F001F9002872D12868E268F6
:1021E0002168D0F8B030C1F3120C23EA0C0302F0DE
:1021F000180BDFF87CC12CFA0BFC0CEA010C43EA4B
:102200000C03C0F8B03000BF5749E068884258D18D
:102210002368C3F312031BB92368C3F3846304E088
:10222000236893FAA3F3B3FA83F35B1C03F01F0351
:10223000092B3ED82368C3F312031BB92368C3F3E9
:10224000846304E0236893FAA3F3B3FA83F35B1C7B
:1022500003F01F034FF0010C0CFA03FC2368C3F3D7
:1022600012031BB92368C3F3846304E0236893FA61
:10227000A3F3B3FA83F35B1C03F01F034CEA836CF4
:102280002368C3F312031BB92368C3F3846304E018
:10229000236893FAA3F3B3FA83F35B1C03F01F03E1
:1022A00003EB43034FF0000B4BEA03534CEA0303E9
:1022B0003FE02368C3F3120323B92368C3F38463A5
:1022C00005E03BE0236893FAA3F3B3FA83F35B1CC6
:1022D00003F01F034FF0010C0CFA03FC2368C3F357
:1022E00012031BB92368C3F3846304E0236893FAE1
:1022F000A3F3B3FA83F35B1C03F01F034CEA836C74
:102300002368C3F312031BB92368C3F3846304E097
:10231000236893FAA3F3B3FA83F35B1C03F01F0360
:102320000A3B03EB43034FF0007B4BEA03534CEAB9
:1023300003031946A268286802F080F80D49206856
:10234000084070B300BF0C48806800F0E07600BF22
:102350000A49206888422CD106F4000048BB08498D
:10236000286888424DD10DE000007F4000F0FF0357
:10237000FFFF07000000088000030450000052C760
:102380000000045046F40001214802F06BF8214897
:1023900000682149B0FBF1F000EB400080000090A4
:1023A00003E016E00098401E009000980028F9D144
:1023B00027E01A49206888420CD106F0807048B99D
:1023C0001749286888421CD146F08071104802F0F5
:1023D00049F816E013492068884212D106F48000BB
:1023E00078B90F49286888420BD146F48001084823
:1023F00002F038F805E0686D40F0200068654FF0A5
:10240000010A00BF002085F8500000BF5046B9E522
:1024100000030450CC010020400D0300000084CBD9
:10242000000004500100008018BCBDE8E08F0000EF
:102430002DE9F84F04464FF000090020009014B930
:10244000012000F0FDB8206920B12020005D0128A6
:1024500000D100BF606D30B9204600F00FF90020B8
:10246000A06584F8500020688168C1F3407131B1E3
:10247000206881686A4A1140816000BF00BF2068FF
:1024800001F0B5FFA0B920688168664A114041F0AB
:102490008051816000BF644800686449B0FBF1F07E
:1024A000009002E00098401E009000980028F9D1AA
:1024B000206801F09CFF48B9606D40F01000606535
:1024C000A06D40F00100A0654FF00109206801F007
:1024D00093FF0646606D00F01000002876D1002EB4
:1024E000FCD1606D20F4807040F0020060652068CF
:1024F00001F073FFA8B94E4801F06FFF82464D48C6
:1025000001F06BFF4AEA000ABAF1000F09D16068D6
:102510004949896821F47C110143474A916000BF11
:1025200000BF607E616B41EA4030E1680843A1680A
:1025300008432021095D40EA01452020005D012873
:1025400003D1A08C401E45EA4045A06A28B1208DE9
:1025500000F47070E16A084305432068C068374999
:10256000084028432168C860206801F045FF804684
:10257000206801F028FF0746B8F1000F2DD127BBD6
:10258000207E002141EA803194F8300041EA400584
:102590002068C06844F20201884328432168C8606B
:1025A00094F83800012812D1E06B40F00101206C52
:1025B0000843616C0843A16C08432168096940F233
:1025C000FC72914308432168086106E01FE020681F
:1025D000006920F00100216808612069012809D103
:1025E0002068006B20F00F00E169491E0843216854
:1025F000086305E02068006B20F00F002168086385
:10260000606D20F0020040F00100606505E0606D43
:1026100040F0100060654FF00109484611E70000E6
:10262000C0FFFF5FC0FFFF7FCC010020400D030013
:1026300000000450000104500003045007C0F0FFE4
:1026400018BCBDE8E08F000010B5044609492068B9
:1026500088420DD10848C06C20F400500649C86477
:1026600002214FF0904000F0D5F9122000F0D6FB87
:1026700010BD0000000004500010024010B586B0EC
:102680000446142101A8FDF739FE1A492068884242
:102690002DD100BF1848C06C40F400501649C864E2
:1026A0000846C06C00F40050009000BF00BF00BF9F
:1026B0000846C06C40F00100C8640846C06C00F0D9
:1026C0000100009000BF00BF022001900B2002908B
:1026D0000220039001A94FF0904000F059FA002227
:1026E0000A21122000F0B5FB122000F0A5FB06B075
:1026F00010BD0000000004500010024070B50C46F0
:102700000568C5F30043057805F01F06012505FAA5
:1027100006F2024D05EB43110A6070BD140401403E
:10272000F0B507460A4607B10AB90120F0BD1068A6
:1027300038601068C0F30046107800F01F050120D3
:1027400000FA05F4106800F00070002837D02B481C
:1027500000EB46131968107A00F0010008B121431C
:1027600000E0A14319602548001D00EB46131968DD
:10277000107A00F0020008B1214300E0A143196083
:10278000106800F0C060B0F1C06F18D11C484FEA6B
:10279000950C50F82C10A8074FEA107C072000FA7F
:1027A0000CF081434FEA857C4FEA1C7CD06800FA2C
:1027B0000CF0014312484FEA950C40F82C10DFF85A
:1027C0003CC0ACF1080C0CEB46131968107900F012
:1027D000010008B1214300E0A14319600748001F30
:1027E00000EB46131968107900F0020008B121438C
:1027F00000E0A1431960002098E7000008040140B0
:10280000080001402DE9F04104460F4600BF3E4854
:102810000078012802D10220BDE8F08101203A4968
:10282000087000BF4CF25030FEF7FCFF0646002E49
:1028300063D1354948603548006800F40070B8B18C
:102840003248006820F4007030490860084600688B
:1028500000F4806040B10846006820F480600860A1
:1028600003202949087715E001202749087711E05E
:102870002648006800F4806048B12448006820F4CD
:1028800080602249086002201F49087702E000208A
:102890001D490877206801280ED16068FEF768FF9F
:1028A0004CF25030FEF7BEFF06461848406920F053
:1028B0000400164948611EE04FF0FF303860A568FB
:1028C00013E028466168FEF765FF4CF25030FEF7D2
:1028D000A9FF06460D48406940F2FA3188430B498A
:1028E00048610EB13D6005E06D1CD4E90201084469
:1028F000A842E6D800BFFEF705FF00BF002002494E
:10290000087000BF304687E7AC010020002002407D
:102910000348406940F00040014948610020704789
:10292000002002402DE9F0470446884615461E4621
:102930004FF0000900BF29480078012802D1022089
:10294000BDE8F08701202549087000BF4CF25030E7
:10295000FEF768FF0746002F38D12049486020481D
:10296000006800F4806048B11D48006820F4806071
:102970001B49086002201949087702E00020174926
:1029800008773CB92A4633464046FEF719FF4FF018
:1029900001090BE0012C01D0022C07D12946404649
:1029A000FEF71AFF022C01D14FF480294CF250306F
:1029B000FEF738FF0746B9F1000F05D00848406917
:1029C00020EA090006494861FEF79CFE00BF00208E
:1029D0000249087000BF3846B2E70000AC01002091
:1029E0000020024000200849496901F0004151B12E
:1029F0000649054A9160064991601146496901F00E
:102A0000004101B1012070470020024023016745C9
:102A1000AB89EFCDF0B502460B46002071E00125F1
:102A2000854005EA030100296AD01568470003269E
:102A3000BE4035431560C60802F1200555F8265002
:102A40004607F70E0F26BE40B543C70802F1200621
:102A500046F82750956847000326BE40B543956069
:102A6000556801268640B5435560D5684700032662
:102A7000BE40B543D560254D860855F826408507EC
:102A80002E0F0F25B5402C40B2F1904F01D10025FB
:102A90000FE01F4DAA4201D101250AE01D4DAA42B7
:102AA00001D1022505E01C4DAA4201D1032500E019
:102AB00007258607360FB540A54221D185072E0F81
:102AC0000F2505FA06F4114D860855F82650A54342
:102AD0000E4E870846F82750104D2D688D430F4E37
:102AE0003560351D2D688D43361D3560351D2D68CB
:102AF0008D43361D3560351D2D688D43361D35607F
:102B0000401C23FA00F5002D89D1F0BD08000140DA
:102B10000004004800080048000C00480004014080
:102B200010B50446012C02D0802C1AD115E00021EA
:102B30000F20FEF7BCFA0C49084068B10B4800783A
:102B4000012803D1092002F0FFF905E007480078C9
:102B500010B9082002F0F8F903E08021044800F0E1
:102B6000F5F800BF10BD000080D027041800002039
:102B70000004004810B5044604480068204020B115
:102B8000024804602046FFF7CBFF10BD140401404B
:102B900078B503460022C6E0012696400D6805EA96
:102BA0000604002C72D04D68022D02D04D68122D03
:102BB00013D1D60803F1200555F826005507EE0E6F
:102BC0000F25B540A8435607F60E0D69B5402843BA
:102BD000D60803F1200545F826001868560003259D
:102BE000B540A8430D7905F003055600B5402843CC
:102BF00018604D68012D08D04D68022D05D04D6834
:102C0000112D02D04D68122D13D19868560003255E
:102C1000B540A8435600CD68B54028439860586831
:102C200001259540A8430D79C5F30015954028432B
:102C30005860D86856000325B540A84356008D68F3
:102C4000B5402843D8604D6805F08055B5F1805FE8
:102C500068D100BF374D2D6E45F00105354E356604
:102C600035462D6E05F00105009500BF00BF4FEA07
:102C7000B635960855F8260095072E0F0F25B54056
:102C8000A843B3F1904F02D1002510E04AE02A4D4D
:102C9000AB4201D101250AE0284DAB4201D102250A
:102CA00005E0274DAB4201D1032500E0072596073B
:102CB000360FB5402843234D960845F82600224D8F
:102CC0002868A0434D6805F48035B5F5803F00D1F4
:102CD00020431D4D28602D1D2868A0434D6805F434
:102CE0000035B5F5003F00D12043174D2D1D28605C
:102CF0002D1D2868A0434D6805F48015B5F5801F8B
:102D000000D12043104D083528602D1D2868A043B0
:102D10004D6805F40015B5F5001F00D120430A4D9C
:102D20000C352860521C0D68D540002D7FF434AF5F
:102D300078BD000000100240000400480008004870
:102D4000000C0048080001400004014002461369DD
:102D50000B400BB1012000E00020704742694A405F
:102D6000426170470AB1816100E0816270470000F2
:102D70000148006870470000A80100200248006870
:102D8000401C014908607047A801002010B50024CC
:102D9000032000F09FF80F2000F008F808B101248C
:102DA00001E000F01BF8204610BD000070B504469D
:102DB0000025094800684FF47A71B0FBF1F63046FF
:102DC00001F038FA08B1012504E000222146501E26
:102DD00000F03FF8284670BDCC01002008B500BFC8
:102DE0000D48006E40F001000B4908660846006E71
:102DF00000F00100009000BF00BF00BF0846806DDA
:102E000040F0805088650846806D00F0805000904A
:102E100000BF00BF08BD00000010024000BF00F06E
:102E20001F0201219140034A430942F8231000BFC9
:102E30007047000080E100E000BF00F01F020121A8
:102E400091404209920002F1E022C2F8001100BF55
:102E500070472DE9F05F80460D461646002701F0C9
:102E600041FD074639462A46334601F00700C0F1C6
:102E7000070ABAF1040F02D94FF0040A01E0C0F1C9
:102E8000070AD14600F1040ABAF1070F02D24FF047
:102E9000000A01E0A0F1030AD4464FF0010A0AFA41
:102EA00009FAAAF1010A0AEA020A0AFA0CFA4FF030
:102EB000010B0BFA0CFBABF1010B0BEA030B4AEA1B
:102EC0000B042146404601F015FD00F000B830BC6F
:102ED000BDE8C09F00BF00F00702064B19684FF61F
:102EE000FF031940044B0B4343EA0221014B1960D5
:102EF00000BF70470CED00E00000FA050246B2F595
:102F0000007F2AD11D48006800F4C060B0F5007F42
:102F100032D01A48006820F4C06040F40070174BAB
:102F200018601748006832235843164BB0FBF3F083
:102F3000411C00E0491E1148406900F48060B0F572
:102F4000806F01D10029F5D10C48406900F4806000
:102F5000B0F5806F10D1032070470848006800F476
:102F6000C060B0F5806F07D00448006820F4C060EE
:102F700040F48060014B18600020EDE700700040D5
:102F8000CC01002040420F001A49096821F00701D6
:102F9000184A11601849096841F00401164A116085
:102FA000012801D130BF02E040BF20BF20BF12493D
:102FB000096821F00401104A11601049096841F0C4
:102FC00080710E4A116000BF0C49096801F0007160
:102FD0000029F9D00949896821F00301C91C074A71
:102FE000916000BF0549896801F00C010C29F9D1F5
:102FF000704700000070004010ED00E0001002403B
:103000000248006800F4C060704700000070004093
:103010002DE9F84304460026B046206800F400304D
:10302000B0F5003F74D1B146A048806D012121EA7E
:10303000107078B100BF9D48806D40F080509B4972
:1030400088650846806D00F08050009000BF00BF8A
:103050004FF001099648006840F480709449086078
:10306000FFF786FE074606E0FFF782FEC01B022838
:1030700001D9032605E08E48006800F4807000281E
:10308000F2D000BF002E46D188489030006800F48E
:103090004075CDB1206BA84216D0844890300068AE
:1030A00020F440758148D0F8900040F480307F498A
:1030B000C1F890000846D0F8900020F48030C1F8A4
:1030C00090000846C0F8905005F00100A0B1FFF74D
:1030D0004FFE074608E0FFF74BFEC01B41F2883168
:1030E000884201D9032606E070489030006800F05D
:1030F00002000028EFD000BF5EB96C489030006835
:1031000020F44070216B08436849C1F8900003E047
:103110000CE0B04600E0B046B9F1010F05D16348BC
:10312000806D20F080506149886500BF207800F0F4
:10313000010048B15D488830006820F003006168F4
:1031400008435A49C1F88800207800F0020002289C
:1031500009D156488830006820F00C00A168084367
:103160005249C1F88800207800F00400042809D1F1
:103170004E488830006820F03000E16808434B4931
:10318000C1F88800207800F02000202809D14748A5
:103190008830006820F44060216908434349C1F841
:1031A0008800208800F40070B0F5007F09D13F4806
:1031B0008830006820F44020216A08433B49C1F868
:1031C0008800208800F48060B0F5806F09D137480E
:1031D0008830006820F44010616A08433349C1F820
:1031E0008800207800F04000402809D12F4888301E
:1031F000006820F44050616908432C49C1F88800F8
:10320000207800F08000802809D1284888300068A4
:1032100020F44040A16908432449C1F8880020886F
:1032200000F48070B0F5807F09D1204888300068B4
:1032300020F44030E16908431C49C1F88800208827
:1032400000F40050B0F5005F13D1184888300068D2
:1032500020F04060A16A0843144988310860A06AE0
:10326000B0F1006F05D11148C06840F480100F49DB
:10327000C860206800F48020B0F5802F13D10B487F
:103280008830006820F04060E16A084307498831CF
:103290000860E06AB0F1006F05D10448C06840F4EE
:1032A00080100249C8604046BDE8F8830010024023
:1032B000007000402DE9F04104460D4614B901208C
:1032C000BDE8F0815548006800F00700A8420ED222
:1032D0005248006820F0070028435049086008461B
:1032E000006800F00700A84201D00120E8E720783C
:1032F00000F00100002840D06068032806D148484B
:10330000006800F00070D8B90120D9E76068022891
:1033100006D14348006800F4003088B90120CFE7A7
:10332000606830B93E48006800F0020040B90120F2
:10333000C6E73B48006800F4806008B90120BFE799
:103340003748806820F0030061680843344988608A
:10335000FFF70EFD064608E0FFF70AFD801B41F26D
:103360008831884201D90320AAE72D48806800F0FF
:103370000C006168B0EB810FEED1207800F0020004
:10338000022807D12648806820F0F000A168084391
:10339000234988602148006800F00700A8420ED940
:1033A0001E48006820F0070028431C4908600846B2
:1033B000006800F00700A84201D0012080E72078D3
:1033C00000F00400042807D11548806820F4E0606C
:1033D000E168084312498860207800F00800082856
:1033E00008D10F48806820F46050216940EAC1008C
:1033F0000B49886000F090F809498968C1F303110E
:10340000084A515C01F01F01C840074908600F20BD
:10341000FFF7CCFC0746384652E700000020024088
:103420000010024060720008CC01002010B5364840
:10343000006840F0010034490860FFF799FC044639
:1034400006E0FFF795FC001B022801D9032010BD00
:103450002D48006800F002000028F2D02A480068D9
:1034600020F0F00040F060002749086000208860EC
:103470002648274908600F20FFF798FC08B1012073
:10348000E5E7FFF775FC044608E0FFF771FC001B59
:1034900041F28831884201D90320D8E71A48806870
:1034A00000F00C000028F0D11748006819490840C6
:1034B00015490860FFF75CFC044606E0FFF758FC7E
:1034C000001B022801D90320C1E70F48006800F063
:1034D00000700028F2D10C49C8600846C06840F46A
:1034E0008050C8600846006820F4802008600020F2
:1034F0008861401E086204489430006840F400006F
:10350000C1F894000020A2E70010024000093D002D
:10351000CC010020FFF4FEFE2DE9F0410024002044
:10352000DFF800C1DCF808C00CF00C01DFF8F4C0D3
:10353000DCF80CC00CF0030719B10C291ED1012FC7
:103540001CD1DFF8E0C0DCF800C00CF0080CBCF1C6
:10355000000F06D1DFF8CCC0DCF894C0CCF3032414
:1035600005E0DFF8C0C0DCF800C0CCF30314DFF8DE
:10357000B8C05CF8244041B9204606E0042901D1D6
:103580002A4802E0082900D129480C2947D1DFF850
:1035900094C0DCF80CC00CF00305DFF888C0DCF840
:1035A0000CC0CCF3021C0CF10103012D1FD0022D25
:1035B00002D0032D1AD10CE0DFF870C0BCFBF3FC85
:1035C000DFF86080D8F80C80C8F306280CFB08F2FE
:1035D00018E0DFF85CC0BCFBF3FCDFF84880D8F8EB
:1035E0000C80C8F306280CFB08F20BE000BFB4FB0C
:1035F000F3FCDFF83080D8F80C80C8F306280CFB09
:1036000008F200BF00BFDFF81CC0DCF80CC0CCF330
:10361000416C0CF1010C4FEA4C06B2FBF6F0BDE830
:10362000F081000000100240787200080024F400CD
:1036300000127A002DE9F843044614B90120BDE8D0
:10364000F883F948806800F00C06F748C06800F07D
:103650000307207800F01000102875D11EB10C2E41
:1036600074D1012F72D1F048006800F0020018B147
:10367000E06908B90120E2E7EB48616A006800F000
:10368000080020B1E848006800F0F00005E0E648D6
:103690009430006800F47060000981421FD9606AAC
:1036A00002F0B6F808B10120C9E700BFDE480068A3
:1036B00040F00800DC4908600846006820F0F0008F
:1036C000616A0843D849086000BF0846406820F492
:1036D0007F40216A40EA0120D34948601EE000BFD4
:1036E000D148006840F00800CF49086008460068EB
:1036F00020F0F000616A0843CB49086000BF08462B
:10370000406820F47F40216A40EA0120C6494860B1
:10371000606A02F07DF808B1012090E7FFF7FCFE37
:10372000C1498968C1F30311C04A515C01F01F010E
:10373000C840BF4908600F20FFF738FB8146B9F148
:10374000000F4ED048467AE74BE0FFE7E06980B3D0
:10375000B548006840F00100B3490860FFF708FB76
:10376000054606E0FFF704FB401B022801D90320B1
:1037700065E7AD48006800F002000028F2D000BF05
:10378000A948006840F00800A7490860084600689A
:1037900020F0F000616A0843A349086000BF0846B2
:1037A000406820F47F40216A40EA01209E49486039
:1037B00017E0FFE79C48006820F001009A49086084
:1037C000FFF7D6FA054606E0FFF7D2FA401B0228BB
:1037D00001D9032033E79448006800F00200002874
:1037E000F2D1207800F0010000285CD0082E03D030
:1037F0000C2E0AD1032F08D18B48006800F400304A
:1038000088B3606878BB012019E700BF6068B0F535
:10381000803F06D18448006840F4803082490860C7
:103820001AE06068B0F5A02F0BD17F48006840F423
:1038300080207D4908600846006840F480300860B8
:103840000AE07948006820F480307749086008462B
:10385000006820F48020086000BF606890B1FFF726
:1038600087FA054607E01EE0FFF782FA401B64284E
:1038700001D90320E3E66C48006800F4003000281A
:10388000F2D010E0FFF774FA054606E0FFF770FA91
:10389000401B642801D90320D1E66348006800F486
:1038A00000300028F2D1207800F00200022852D126
:1038B000042E03D00C2E14D1022F12D15A480068C6
:1038C00000F4806018B1E06808B90120B7E65648F6
:1038D000406820F0FE40217C40EA01605249486087
:1038E00039E0E06800B35048006840F480704E4909
:1038F0000860FFF73DFA054606E0FFF739FA401B7E
:10390000022801D903209AE64748006800F4806045
:103910000028F2D04448406820F0FE40217C40EA74
:1039200001604149486016E03F48006820F480701B
:103930003D490860FFF71CFA054606E0FFF718FA54
:10394000401B022801D9032079E63748006800F4BB
:1039500080600028F2D1207800F00800082876D195
:103960006069E0B330489430D0F8008008F010016E
:10397000A06988422FD008F00200022804D108F084
:10398000010008B901205AE608F00100C8B1264834
:103990009430006820F001002349C1F89400FFF73B
:1039A000E7F9054606E0FFF7E3F9401B112801D9C6
:1039B000032044E61C489430006800F00200002810
:1039C000F1D119489430006820F01000A169084333
:1039D0001549C1F8940014489430006800E017E0DD
:1039E00040F001001049C1F89400FFF7C1F9054605
:1039F00006E0FFF7BDF9401B112801D903201EE6A0
:103A000009489430006800F002000028F1D01EE060
:103A100005489430006820F001000349C1F8940083
:103A2000FFF7A6F905460CE000100240607200089E
:103A3000CC010020FFF79CF9401B112801D903207D
:103A4000FDE5BF48006800F002000028F2D12078B0
:103A500000F00400042879D14FF00008B8489438E9
:103A6000806D00F0805088B900BFB5489438806DF3
:103A700040F08050B249943988650846806D00F066
:103A80008050009000BF00BF4FF00108AD480068B3
:103A900000F48070B0B9AB48006840F48070A94968
:103AA0000860FFF765F9054606E0FFF761F9401B7E
:103AB000022801D90320C2E5A248006800F4807002
:103AC0000028F2D0207A00F0010048B39C48001F83
:103AD000006820F08000217A01F0800108439849B5
:103AE000091F0860207A00F0040078B108460068D9
:103AF00040F0040092499439C1F890000846D0F88B
:103B0000900040F00100C1F8900019E08C48001FBF
:103B1000006840F001008A499439C1F890000FE034
:103B20008748001F006820F0010085499439C1F8DA
:103B300090000846D0F8900020F00400C1F89000F2
:103B4000A068A8B1FFF714F9054609E039E0FFF7CE
:103B50000FF9401B41F28831884201D903206EE5FC
:103B60007748001F006800F002000028EFD01CE03A
:103B7000FFF7FEF8054608E0FFF7FAF8401B41F2B0
:103B80008831884201D9032059E56D48001F00683B
:103B900000F002000028EFD16948001F006820F003
:103BA000800067499439C1F89000B8F1010F07D13E
:103BB00063489438806D20F080506149943988655D
:103BC00000BF207800F02000202838D1A06AD8B1AA
:103BD0005B48001D006840F0010059499439C1F864
:103BE0009800FFF7C5F8054606E0FFF7C1F8401B4F
:103BF000022801D9032022E55148001D006800F089
:103C000002000028F1D01AE04D48001D006820F0A5
:103C100001004B499439C1F89800FFF7A9F805460F
:103C200006E0FFF7A5F8401B022801D9032006E5AE
:103C30004348001D006800F002000028F1D1E06A4E
:103C4000E8B30C2E78D0E06A02284FD13C48943873
:103C5000006820F080703A4994390860FFF788F8CE
:103C6000054606E0FFF784F8401B022801D903202F
:103C7000E5E433489438006800F000700028F1D182
:103C8000606B401E0101A06B41EA0020216B0843DC
:103C9000A18F0122C2EB510140EA41514020005D59
:103CA000C2EB500041EA406025499439C86008469B
:103CB000006840F0807008600846C06800E03DE0A1
:103CC00040F08070C860FFF753F8054606E0FFF744
:103CD0004FF8401B022801D90320B0E4184894385B
:103CE000006800F000700028F1D027E014489438F4
:103CF000006820F080701249943908600846C06856
:103D000020F00300C8600846C06820F08870C860D2
:103D1000FFF72EF8054607E0FFF72AF8401B0228B8
:103D200002D903208BE407E005489438006800F0CE
:103D300000700028F0D101E0012080E400207EE442
:103D400094100240007000402DE9F04104460D46F9
:103D50000026002700BF2079012802D10220BDE8FB
:103D6000F0810120207100BF6079012820D102205C
:103D70006071FEF7FDFF06460CE0FEF7F9FF801BC1
:103D8000022807D90420607100BF0020207100BF05
:103D90000320E4E72068406800F001000028ECD030
:103DA00020688068E060E06828600120607100E0C1
:103DB000012700BF0020207100BF3846CFE710B5B3
:103DC000044604F10C012046FFF7BEFF08B9E06885
:103DD00010BD0020FCE710B504460CB9012010BD51
:103DE000607920B900202071204600F00FF80220F1
:103DF00060712068006840F00400216808600120BC
:103E000060710020A06000BFE9E7000008B500BFB6
:103E10000649C96C41F48021044AD1641146C96C39
:103E200001F48021009100BF00BF08BD00100240D6
:103E30002DE9F04104460F4690461E4600BF94F817
:103E40002800012802D10220BDE8F081012084F879
:103E5000280000BF022084F8290000BFCA20216882
:103E6000486253202168486200BF2068806900F4DE
:103E70008060F0B1FEF77CFF054614E0FEF778FFA6
:103E8000401BB0F57A7F0ED900BFFF202168486241
:103E900000BF032084F8290000BF002084F8280018
:103EA00000BF0320D0E72068C06800F004000128AC
:103EB000E4D02068806920F4806021688861042053
:103EC0002168C865FEF754FF054614E0FEF750FF71
:103ED000401BB0F57A7F0ED900BFFF2021684862F1
:103EE00000BF032084F8290000BF002084F82800C8
:103EF00000BF0320A8E72068C06800F00400002885
:103F0000E4D047EA0640216848612168886920F0CA
:103F1000070040EA08002168886136B11848006847
:103F200040F480101649086007E01548001F00683B
:103F300040F480101249091F08601148001D0068F4
:103F400040F480100E49091D08602068806940F423
:103F50008040216888612068806940F48060216821
:103F6000886100BFFF202168486200BF012084F8FB
:103F7000290000BF002084F8280000BF00BF63E7CD
:103F80000404014070B504460125002C70D00025C2
:103F900094F8290028B9002084F82800204600F071
:103FA0006BF84FF440606060022084F8290000BF85
:103FB000CA202168486253202168486200BF204619
:103FC00001F0DAFC48B100BFFF202168486200BF61
:103FD000042084F8290001254AE0206880692549E9
:103FE0000840216888616169A0680843E169084365
:103FF000216889690843216888612168206908610E
:1040000020680169A08941EA0040216808612068B0
:10401000C06820F080002168C8602068806900F0D6
:10402000200060B9204600F028F840B100BFFF2012
:104030002168486200BF042084F829000125BDB929
:104040002068806920F0604021688861D4E9081008
:104050000843A16908432168896908432168886188
:1040600000BFFF202168486200BF012084F82900BA
:10407000284670BDBFFF8FFB704770B504462068AF
:10408000C06820F0A0002168C860FEF771FE0546F8
:1040900007E0FEF76DFE401BB0F57A7F01D90320E3
:1040A00070BD2068C06800F020000028F1D000201A
:1040B000F6E770B504460CB9012070BD606A00B91E
:1040C00000BF0021A16294F85D0028B9002084F8A7
:1040D0005C00204600F064F8022084F85D0020684F
:1040E000006820F0400021680860E068B0F5E06FEB
:1040F00001D9002501E04FF48055E068B0F5706FFC
:1041000005D0E068B0F5E06F01D00021A162206B1E
:1041100040B9E068B0F5E06F02D90221216301E007
:1041200001212163D4E90101084321690843616940
:104130000843218B01F400710843E1690843216AB7
:104140000843A16A0843216808600421A06901EAC4
:104150001040616A0843616B0843E16808432843E3
:104160002168486000202066012084F85D0000205E
:10417000A3E7000010B504460749206888420AD129
:104180000648006E20F4805004490866E0214FF094
:104190009040FEF73FFC10BD00300140001002408F
:1041A00010B586B00446142101A8FCF7A7F81F49F2
:1041B0002068884238D100BF1D48006E40F480500E
:1041C0001B4908660846006E00F48050009000BF4E
:1041D00000BF00BF0846C06C40F00100C86408463C
:1041E000C06C00F00100009000BF00BF20200190D3
:1041F00002200290012003900320049005200590E6
:1042000001A94FF09040FEF7C3FCC02001900220AE
:10421000029000200390032004900520059001A93E
:104220004FF09040FEF7B4FC06B010BD00300140E6
:104230000010024070B504462546681EB0F1807F2C
:1042400001D301200FE0681E4FF0E02148610F21EB
:104250004FF0FF3000F04EFB00204FF0E02188616E
:1042600007200861002070BD00BFFEE708B500BF51
:104270006A4600211A48006800F0F2FB082119483C
:10428000FEF764FD012812D117490870FEF770FD92
:1042900041F288310844154908600120144908702A
:1042A000FEF766FD00F57A7012490860E0E700202D
:1042B0000D49087010480078401C0F4908700846E6
:1042C00000780228D4D10A4800780128D0D10020F3
:1042D0000870074908700948006800F039FCC7E712
:1042E00094010020000400489A0100209C01002055
:1042F0009B010020A00100209901002074000020F3
:1043000000B58BB0142106A8FBF7F8FF0820069033
:10431000134807900220089006A91248FEF738FCBF
:10432000002204210920FEF794FD0920FEF784FDF8
:10433000002000F069FB0C490860032000214FF4C5
:1043400080720A4BCDE90132CDE903100520034606
:10435000074A0090074800F0A3FC0BB000BD000026
:10436000000031100004004894010020D4240020F3
:10437000D02800206D42000800BF4FF47A7000F092
:10438000DDFEFAE770B500F12005C1F3015605EB3B
:104390008604256805F0F02543EA0246354325608A
:1043A00070BD00008168024A1140491C816070475D
:1043B000C0FFFF7F024602F1600000EB8103186836
:1043C00000F0F840704701468868C0F3C0007047AD
:1043D00001468868C0F3400070470146886800F0D5
:1043E000010070470146886800F0010070470146EF
:1043F0008868C0F30070704701468868C0F3800089
:10440000704701468868C0F38000704730B501F0FE
:10441000010404EBC404C1F3015505EB840500F16C
:104420000C0404EB8503044D0D401C68AC4302EA08
:1044300001052C431C6030BDFFFFC77D70B500F146
:104440001404C1F3406504EB8503C1F3045607254A
:10445000B5401C68AC43C1F3045502FA05F52C4382
:104460001C6070BD826822F0E0720A43826070476F
:1044700010B500F1600404EB81031C6824F00044D3
:1044800014431C6010BD000070B500264FF42F705F
:10449000FCF72CFFA9E00020FCF77FFE00BF002105
:1044A0000F20FCF704FE51490860514908400028DC
:1044B000F5D04E48006800F4003000286CD04B481E
:1044C000008800F4DE40002866D14FF4003200215D
:1044D0000F20FDF71EF847480188002001F0E6F99B
:1044E00004464FF6FF7101EA840000F027FE002029
:1044F000FCF753FE00BF00210F20FCF7D8FD3B491D
:1045000008603B4908400028F5D03848006800F4AE
:104510000030E8B13548008800F4DE40C0B94FF4FF
:10452000003200210F20FCF7F4FF00200646314A3C
:10453000118801EBD17252100AB9012204E02D4A10
:10454000108800EBD07252102A4B1A80012070BDE7
:104550002648008800F4804040B34FF48042002198
:104560000F20FCF7D6FF00211020FCF7A0FD00F083
:104570007F05372D1ADC002229461F48FCF7F0FD85
:104580001D48407A0F2803D01B48407A10280DD1CF
:10459000642000F0D3FD09E0184A00210F20FCF749
:1045A000B8FFFCF728FE002015490870701CC6B241
:1045B000104800881921B1EB400F01DC192002E0FE
:1045C0000C48008840000B490880084600881928DC
:1045D00003D10C480088401C01E00A4800880949C2
:1045E0000880102E01D10020B1E754E7D000002050
:1045F00000D0272410010020101F002000FF2724D6
:10460000120100202601002000B58FB000200C9080
:104610000D900E90182106A8FBF770FE1821684631
:10462000FBF76CFE3148324908604FF44030486077
:1046300000212F488160C160016104214161002196
:10464000017641760121C161002180F8201081624C
:10465000C16280F83010416380F83810C1632021B6
:1046600001640021416401218164FDF7E1FE08B18C
:10467000FDF71CF800200C900CA91D48FDF75AFA14
:1046800008B1FDF713F81B4806904FF4400007905F
:104690001948089001208DF8240040F6FF700A9018
:1046A00000200B9006A91248FDF7C8FA08B1FCF7E4
:1046B000FDFF1148009006200190002002907F200D
:1046C0000390042004900020059069460848FDF7F7
:1046D00045FC08B1FCF7EAFF7F210548FDF7D4F956
:1046E0000348FBF7B7FE0FB000BD00000000045008
:1046F000442400200000C07D4000201900B587B090
:10470000142102A8FBF7FAFD00BF5848C06C40F026
:1047100001005649C8640846C06C00F001000190D1
:1047200000BF00BF00BF0846C06C40F00200C86474
:104730000846C06C00F00200019000BF00BF00BF3F
:104740000846C06C40F00400C8640846C06C00F025
:104750000400019000BF00BF0820029000200390D9
:104760000120049002A94FF09040FEF711FA1020AA
:1047700002900120039004900320059002A94FF0BD
:104780009040FEF705FA012002903948039002207C
:10479000049002A93748FEF7FBF90220029001209D
:1047A0000390002004900320059002A93148FEF7F1
:1047B000EFF94FF4827002900120039002200490E0
:1047C0000320059002A94FF09040FEF7E1F9042084
:1047D000029001200390022004900320059002A97A
:1047E0004FF09040FEF7D4F98020029022480390C9
:1047F0000220049002A91F48FEF7CAF94FF4006096
:104800000290012003900220049002A94FF09040F2
:10481000FEF7BEF9002203211720FEF71AFB17202E
:10482000FEF70AFB002208210620FEF712FB0620F5
:10483000FEF702FB012210214FF09040FEF792FAA2
:10484000002202210B48FEF78DFA00224FF48271FC
:104850004FF09040FEF786FA00224FF400614FF0CF
:104860009040FEF77FFA07B000BD00000010024044
:1048700000001110000400480000311010B5154868
:10488000154908604FF48270486000211248816029
:104890004FF4E061C16002210161012141614902DF
:1048A00081610821C16100210162416281620721A9
:1048B000C162002101634163FFF7FBFB08B1FCF714
:1048C000F5FE05480068006840F0400002490968AC
:1048D000086010BD00300140C023002000BFFEE78B
:1048E0007047000002480068C0F3022070470000D3
:1048F0000CED00E010B5002807DA0A07140E054A8F
:1049000000F00F031B1FD45403E00A07130E024AE2
:10491000135410BD18ED00E000E400E010B500F005
:104920000FF800F0C1FD00F0DDFD00F0FFFD00F02C
:1049300093FD00F059FD00F02DFE00F002F810BDCF
:104940007047704710B500240948007801280ED13F
:10495000FBF738FC044607480078FF2807D20548D3
:104960000078401C034908702046FBF72FFC10BD5F
:10497000F5010020EC01002010B500241A48007851
:10498000012830D1FBF71EFC0446184800780028A7
:1049900004DD16480078401E14490870134800785A
:1049A000F0B913480078D8B900F060FE11480078DB
:1049B00011490978884213D010480E49097850F8F7
:1049C00021000F49086008460068406B401C0968D8
:1049D00048630C480068401C0A490860FBF70EFC5D
:1049E0002046FBF7F3FB10BDF5010020EC01002091
:1049F000ED010020EF010020EE010020D830002062
:104A000004020020E001002070B50546002612488F
:104A10000078002801DD002070BDFBF7D3FB0646BF
:104A20000E480468006820B10C48006840680B49D3
:104A300008603046FBF7CAFB5CB10320207025817B
:104A4000002060603F20E07300212174204600F0C8
:104A5000BDFC2046E0E70000EC010020E40100205E
:104A60002DE9F04105460E46144600272878032814
:104A700003D001202070BDE8F08132480078002882
:104A800002DD02202070F6E72F480078002802DDC2
:104A90000D202070EFE7FBF795FB074628890028DB
:104AA00008DD2889401E28813846FBF78FFB00204F
:104AB0002070E0E72548006890F82C0040F00100E5
:104AC0002249096881F82C0000202049096881F8F2
:104AD0002D001E4800684685284600F039FC3846FF
:104AE000FBF774FB00F088FDFBF76CFB07461748EB
:104AF000006890F82D0020B1012809D0022806D1C5
:104B000002E0002020700BE00E20207008E000BFC3
:104B100029460E48006800F006FC0A20207000BFFD
:104B200000BF00200949096881F82C00074909687D
:104B300081F82D0005490968C8613846FBF746FB36
:104B400000BF98E7EC010020ED010020FC010020EF
:104B500070B5044600252078032801D0012070BDDF
:104B6000FBF730FB0546A07A60B10023012219460D
:104B7000204600F093FB2846FBF728FB00F03CFDA5
:104B80000020ECE720894FF6FF71884207D2208988
:104B9000401C20812846FBF719FB0020DFE7284650
:104BA000FBF714FB3220DAE710B50B48007890B918
:104BB00000F05CFD09480078094908700948074978
:104BC000097850F82100084908600846006807493C
:104BD0000860FBF7FEFA10BDF5010020EF01002090
:104BE000EE010020D830002004020020FC0100204B
:104BF000704700002DE9FE4F06460F4690461C46C2
:104C00004FF00009FBF7DEFA8146204800780028C3
:104C100005DD4846FBF7DAFA3C2000F03DB81C48B9
:104C200050F8240060BB0120194941F8240048468F
:104C3000FBF7CCFA002342463946304600F0DAF959
:104C400082460020009001900346024651460290A1
:104C5000204600F039FD054635B90E480078012898
:104C60000CD100F0C9FC09E0FBF7ACFA814600204A
:104C7000074941F824004846FBF7A8FA2846CCE744
:104C80004846FBF7A3FA2820C7E70000EC01002004
:104C9000D8300020F50100201EBCBDE8E08F0000E8
:104CA0002DE9F04F85B00746884691461C46DDE960
:104CB00011B6DDF838A000200390FBF783FA0390CB
:104CC00020480078002806DD0398FBF77FFA3C2097
:104CD00005B000F03DB81C4850F8240060BB01202E
:104CE000194941F824000398FBF770FA33464A4605
:104CF0004146384600F07EF9049010985346CDE9BD
:104D000001B6009020460F9A049900F0DDFC05469C
:104D100035B90E48007801280CD100F06DFC09E08F
:104D2000FBF750FA03900020074941F8240003984C
:104D3000FBF74CFA2846CBE70398FBF747FA282005
:104D4000C6E70000EC010020D8300020F50100206B
:104D500030BCBDE8C08F70472DE9F0410546002703
:104D60004A480078002802DD4020BDE8F0811F2D70
:104D700001D13E20F9E7FBF725FA0746FF2D03D1C5
:104D80004348006890F82E50424850F8254024B916
:104D90003846FBF71BFA4320E7E7012C04D13846DD
:104DA000FBF714FA3D20E0E714F8300F3A49085CAD
:104DB000617888432178384A505414F830091146F4
:104DC000085C30B994F8321034480078884333498D
:104DD0000870E06918B12046E16900F0A4FA666A3B
:104DE00016B1304600F026FB0020608584F82C00C8
:104DF00084F82D002A480078FF2804D2284800783B
:104E0000401C274908703846FBF7E0F900F045FAE6
:104E1000FBF7D8F9074622480078002804DD20482F
:104E20000078401E1E490870204600F043F81D48D7
:104E30000078401E1B4908700020164941F82500E3
:104E4000A06930B90020616988611749606908600C
:104E500005E0D4E905014861D4E9051088611348EB
:104E600000686061114804603F2084F84800002118
:104E7000492001553846FBF7A9F90D48007801286B
:104E800001D100F0B9FB00206FE70000EC01002029
:104E9000FC010020D8300020F1010020F0010020AA
:104EA000ED010020F6010020080200200002002091
:104EB000F5010020704770472DE9F0470646884607
:104EC00014464FF000091D480078002803DD122029
:104ED0002070BDE8F087FBF775F98146FF2E03D1FE
:104EE0001748006890F82E60164850F826502DB9E3
:104EF0004846FBF76BF943202070EAE7012D05D106
:104F00004846FBF763F943202070E2E7404600F093
:104F1000D1FB07460F2F05DD4846FBF757F9412027
:104F20002070D6E7414605F1480000F0B5FB484641
:104F3000FBF74CF90020207000BFCAE7EC0100200D
:104F4000FC010020D830002070B505460026FBF794
:104F500039F90646234850F8254024B93046FBF776
:104F600035F9462070BD012C04D13046FBF72EF9EF
:104F70004320F7E794F82C0000F0080060B314F821
:104F80002C0F20F00800207014F82C09F8B9608D5F
:104F9000C8B93034A0781449097808431249087018
:104FA00020781249085C6178084314F830190F4AD8
:104FB00050543046FBF70AF90D480078012809D112
:104FC00000F01AFB06E03046FBF700F902E030463D
:104FD000FBF7FCF80020C5E73046FBF7F7F8442064
:104FE000C0E70000D8300020F0010020F1010020CF
:104FF000F501002070B5044610464FF0807505603D
:10500000051F28462C606FF00106051F28462E60FC
:105010004FF01236051F28462E604FF00336051F4D
:1050200028462E604FF00236051F28462E60761067
:10503000051F28462E60051F284629604FF01136AF
:10504000051F28462E604FF01036051F28462E609B
:105050004FF00936051F28462E604FF00836051F11
:1050600028462E604FF00736051F28462E604FF069
:105070000636051F28462E604FF00536051F2846C8
:105080002E604FF00436051F28462E6070BD0000CC
:105090002DE9F04105464FF00008FBF793F88046F4
:1050A000FF2D05D12048006890F82E50012608E019
:1050B0001D48006890F82E00A84201D1012600E0AA
:1050C00000261A4850F825402CB94046FBF77EF8D8
:1050D0004820BDE8F081012C04D14046FBF776F86A
:1050E0004320F6E794F830701148C05D94F8311011
:1050F00088430F49C8550846C05D30B994F832104E
:105100000C48007888430B49087094F82C0040F054
:10511000080084F82C004046FBF758F8012E01D116
:1051200000F06AFA0020D4E7FC010020D83000200B
:10513000F1010020F00100207047000070B5054625
:10514000002616480078002800DD70BD002D23DD04
:10515000FBF738F806461248006890F830401148CE
:10516000005D0F49096891F8311088430D490855D1
:105170000846005D40B90A48006890F832100A48B5
:10518000007888430849087005480068458530461E
:10519000FBF71CF800F030FA00BFD6E7EC01002066
:1051A000FC010020F1010020F001002070B5002674
:1051B00000F072F8FBF706F8064631480068401C1C
:1051C0002F4908603046FBF701F82E480078012887
:1051D00053D12D48007820B1012804D0022809D1EC
:1051E00003E001250BE0002509E001250120264907
:1051F000087004E0012500202349087000BF00BFAB
:1052000005B970BD2148046833E0FAF7DBFF0646B4
:10521000608D50B3608D401E80B2608528BB94F8CD
:105220002C0000F0370040B114F82C0F20F03700AC
:105230002070012060702C3C02E0002084F82D00DA
:1052400094F82C0000F0080078B93034A0781049A8
:10525000097808430E49087020780E49085C617887
:10526000084314F830190B4A505464693046FAF771
:10527000ADFF94F82E001F28C7D100BFC1E7000082
:1052800010020020F50100200C020020080200207E
:10529000F0010020F1010020704770472DE9F04F28
:1052A00005460F4690469946A87A19490E5C05F1C5
:1052B0000B00805D11F800B00BEBC60000F0FF0A98
:1052C000144850F82A400020203460812760207B59
:1052D00020EA0800207384F80D90207B203C00F029
:1052E000080068B994F832000B49097808430A4964
:1052F00008700A48805D94F83110084307498855C2
:105300002946204600F00FF8504600F009B800008A
:1053100088730008D8300020F0010020F10100203F
:1053200030BCBDE8C08F10B590F8302001F10B0300
:105330009B5C90F83140A34301F10B04A354234636
:105340009B5C23B98B7A90F83240A3438B7210BDDB
:1053500010B51B4A1268D061194A126892F83030B1
:1053600000F10B02D25C164B1B6893F831301A43E4
:10537000134B1B6893F8304000F10B031A55827AE7
:105380000F4B1B6893F832301A4382720C4A126832
:1053900092F830100B4A525C094B1B6893F831307D
:1053A0009A43084B5A541A46525C42B9044A12684E
:1053B00092F83230044A12789A43034B1A7010BDA7
:1053C000FC010020F1010020F00100200023837285
:1053D00000F10B01002204E0002301F8013B531C03
:1053E000DAB2042AF8DB704770B58C210F4800F060
:1053F000F9F80E4C04F11C0600250AE0002020708C
:1054000066603F20A0720021E1721C341C36681CCB
:1054100085B2042DF2DB0020207060603F20A07276
:105420000021E17201480249086070BD4C2E002045
:10543000E801002030B501464A6808682AB9CC68FE
:10544000606028B10025456002E0106000B1426054
:105450008B6800255D6230BD30B54FF4A0711048F7
:1054600000F0C0F80E4B03F1200500240AE00020F4
:1054700018705D603F20D8730021197420332035E7
:10548000601C84B2092CF2DB0020187058603F20A9
:10549000D8730021197402480249086030BD000029
:1054A0000C2D0020E4010020002007490860074976
:1054B00008700749087007490870074908700749CC
:1054C000086007490860704710020020EC010020C6
:1054D000ED010020F6010020F5010020E001002090
:1054E000F801002000220B4B1A700B49002004E049
:1054F000002201F8012B421CD0B20428F8DB002264
:10550000064B1A70064B1A70064B1A60064B1A604F
:1055100070470000F0010020F1010020EE010020A2
:10552000EF01002004020020FC01002030B54FF400
:10553000E761144800F056F88021134800F052F853
:10554000104B03F1580500240AE05D613F2083F809
:10555000480000214920C15458335835601CC4B25A
:10556000142CF2D3002058613F2083F8480000211A
:105570004920C154002005490860024804490860D8
:1055800030BD000058310020D83000200802002033
:105590000002002000B587B00320002180220A4BC2
:1055A000CDE90132CDE903104FF6FF701F23074A02
:1055B00000900748FFF774FB06AA06A11F20FFF71B
:1055C0007BFC07B000BD0000D82E0020D4300020A6
:1055D000ED57000875432F4F532D49492049646CFE
:1055E0006500000004E0002200F8012B4A1E91B281
:1055F0000029F8DC7047000010B50024FAF7E2FD3E
:10560000044613480078F0B912480078D8B900F081
:105610002DF81148007811490978884213D01048B4
:105620000D49097850F821000E49086008460068C5
:10563000406B401C096848630B480068401C0A49DD
:105640000860FAF7D6FD2046FAF7C0FD10BD00004D
:10565000EC010020ED010020EF010020EE01002010
:10566000D830002004020020E00100200649074A4B
:105670001278885C0649095C034A515C01EBC00161
:10568000044A11707047000088730008F001002080
:10569000F1010020EF0100200246002005E011F892
:1056A000013B02F8013B431CD8B20B78002BF6D12A
:1056B000137070470146002002E0491C421CD0B222
:1056C0000A78002AF9D170472DE9F84F05460E46B1
:1056D00017469846DDE90BABDDF8289000200090D6
:1056E000FAF770FD009039480468002C69D054F82E
:1056F000140F364908600098FAF768FD44F8146CF6
:10570000A576002020766076E08244F810AC44F85C
:10571000089C44F80C7C24F804BC24F8028CE07744
:10572000E810207705F00700E076217F012088400F
:10573000A077E17E0120884060770020A060206192
:10574000E0602062A0626062E06220633F2084F833
:105750003400143C0021492001552046FFF748FA47
:105760002046FFF7F8FAFAF72DFD0090184840F8A8
:1057700025401848006860610020A0611548006855
:1057800010B1144800688461124804603034A07875
:105790001149097808431049087020780F49085CBE
:1057A0006178084314F830190C4A50540C480078BA
:1057B000401C0B4908700098FAF708FD002000F023
:1057C00011B80098FAF702FD4220F8E70002002025
:1057D000D830002008020020F0010020F101002054
:1057E000F601002018BCBDE8E08F0000002400BFD7
:1057F000FAF7E8FC044605480068401C03490860C5
:105800002046FAF7E3FCFFF756FBF1E7F80100202A
:10581000F8B5044600262348806D00F0805018B18A
:10582000FDF7EEFB054616E000BF1E48806D40F018
:1058300080501C4988650846806D00F080500090BB
:1058400000BF00BFFDF7DCFB05461648806D20F069
:10585000805014498865B5F5007F07D1802C10D998
:10586000A02C01D902260CE001260AE0802C01D9E7
:10587000032606E0802C01D1022602E0702C00D124
:1058800001260948006820F00700304306490860F7
:105890000846006800F00700B04201D00120F8BDC2
:1058A0000020FCE7001002400020024070B50446D2
:1058B0000D460648FEF783FA291B491CB0FBF1F29E
:1058C00001FB1200204480B270BD0000342400208F
:1058D00010B50348034908600846FEF77CFA10BD7E
:1058E00000080650342400201FB5002000900190CD
:1058F000029003901B48006840F400401949903919
:10590000C1F89000184819490860002088607F217C
:105910001648C160FF2101614FF4C00141610021BF
:105920008161C1610162FEF72DFB08B1FBF7BEFE8C
:105930000F48009001200190029069460D48FCF745
:10594000EFFE002205210320FDF783FA0320FDF777
:1059500073FA06480068806920F48060034909688A
:1059600088611FBD9010024000280040A82400203C
:10597000140000128C01002070B504462068C06835
:1059800000F04000B8B92068C06840F0800021688D
:10599000C860FDF7EDF9054607E0FDF7E9F9401BA2
:1059A000B0F57A7F01D9032070BD2068C06800F08F
:1059B00040000028F1D00020F6E7000010B5FEF707
:1059C000C1FF0F480068006D00F0040058B10420CA
:1059D0000B490968C8650A480068806920F480603E
:1059E00007490968886101210648FCF787FE4FF4E2
:1059F00080714FF09040FDF7B1F9FEF7BDFF10BD8B
:105A0000A82400208C01002010B50823204A102172
:105A10002048FBF7F9FE1E4800781F4981F89000E6
:105A20001B4801680079020442EA11401A49C885FE
:105A30001748007981F82D0015488088000A81F800
:105A40002C0013484068000C088108230A461946B8
:105A50001048FBF7D9FE20230F4A0C3218210D48BD
:105A6000FBF7D2FE20230C4A303238210948FBF7DD
:105A7000CBFE2023084A503258210648FBF7C4FECB
:105A80002023054A703278210248FBF7BDFE10BD85
:105A90000001002000F80108781A0020F0B5044643
:105AA000059E6EB10025184607E017187F1ECF5DD2
:105AB00067556F1CFDB2471EF8B20028F5DC08E000
:105AC000002004E015184D5D2554451CE8B29842AD
:105AD000F8DBF0BD2DE9F0478046894617461E46A3
