:020000040800F2
:10000000E0330020A101000895340008F130000819
:1000100091340008590D000811520008000000003A
:1000200000000000000000000000000095490008EA
:10003000551900080000000007020008994900084F
:10004000BB010008BB010008BB010008E94700082C
:10005000BB010008BB0100087B190008BB010008B8
:10006000BB010008BB010008BB010008BB01000880
:10007000BB010008BB010008BB010008BB01000870
:10008000BB010008BB010008BB0100080000000024
:10009000000000000000000000000000BB0100089C
:1000A000BB010008BB010008BB010008BB01000840
:1000B000BB0100080000000000000000BB010008B8
:1000C000BB010008BB010008BB010008BB01000820
:1000D000BB010008BB010008BB010008BB01000810
:1000E000BB010008BB010008000000000000000088
:1000F0000000000000000000000000000000000000
:1001000000000000000000000000000000000000EF
:100110000000000000000000BB010008000000001B
:10012000BB010008BB010008BB010008BB010008BF
:10013000BB010008000000000000000000000000FB
:10014000BB010008BB010008BB010008BB0100089F
:10015000BB010008BB010008BB010008BB0100088F
:10016000BB010008BB010008000000000000000007
:1001700000000000BB0100080000000000000000BB
:10018000BB010008BB010008BB010008DFF80CD070
:1001900000F018FB0048004751600008E0330020E1
:1001A0000648804706480047FEE7FEE7FEE7FEE711
:1001B000FEE7FEE7FEE7FEE7FEE7FEE7A94A0008E6
:1001C0008D010008EFF3108072B6704780F310883D
:1001D00070471D484FF0FF010170002080F309882F
:1001E0001A48012101701A484FF08051016062B62F
:1001F000FEE717484FF080510160704714484FF0F8
:1002000080510160704772B6EFF3098028B1203841
:1002100080E8F00F0F490968086000B50E48804774
:100220005DF804EB0D480E490A78027009480D4943
:100230000A680260106890E8F00F203080F30988A7
:100240004EF0040E62B6704722ED00E0BD010020C2
:1002500004ED00E0C4010020753F0008B601002055
:10026000B7010020CC0100202DE9F05F05460020F9
:1002700092469B4688460646814640241BE0284617
:1002800041464746224600F0EDF953465A46C01A09
:10029000914110D311461846224600F019F82D1A44
:1002A00067EB01084F4622460120002100F010F8BC
:1002B00017EB00094E41201EA4F10104DFDC484683
:1002C00031462A46434600F000B830BCBDE8C09F26
:1002D000202A04DB203A00FA02F100207047914006
:1002E000C2F1200320FA03F3194390407047D2B2C1
:1002F00001E000F8012B491EFBD270470022F6E70F
:1003000010B513460A4604461946FFF7F0FF20468B
:1003100010BD2DE9FE4F804681EA0300C00F0C4658
:10032000009021F0004123F00045B8EB0200A94104
:1003300005D24046214690461C460B46024623F015
:100340000040104347D0270DC7F30A00C3F30A51FA
:100350000290401A019040286BDAC3F3130040F476
:10036000801B0098924620B10023D2EB030A63EB76
:100370000B0B01985946C0F140025046FFF7A8FF09
:1003800006460D4650465946019A00F07BF910EB9F
:1003900008006141002487EA115284EAE7731A4396
:1003A00040D0009A62B3019A012A4FEA075215DC45
:1003B000001B61EB02014FF0004202EA0752CDE957
:1003C0000042001C41F5801132462B4600F07BF9BB
:1003D00003B000F045B840462146F9E7001B61EB49
:1003E0000201001C41F5801300185B412018A2F5A2
:1003F000001747EB030140EAD570B6196D4111E0D3
:100400006D084FEA360645EAC0754FEA0752001BF1
:1004100061EB0201001C41F5801149084FEA3000F0
:100420000019514132462B4603B000F01CB800F0D1
:100430003BB90098012240000023D0EB020263EB9D
:10044000E073009821464FEAE074B8EB000061EBDE
:100450000401E9E783F000435BE781F0004158E7DE
:1004600030BCBDE8C08F30BCBDE8C04FFFF7DFBF78
:100470002DE9FE4F81EA030404F0004421F000411D
:1004800000944FF0000B23F0004350EA01045ED0CB
:1004900052EA03045BD0C3F30A54C1F30A552C4457
:1004A000A4F2F3340194A0FB0254C1F3130141F40C
:1004B0008011C3F3130343F4801301FB024400FBD8
:1004C000034E840A970A44EA815447EA8357A4FBFF
:1004D000076802958D0A05FB07854FEA932C04FBFC
:1004E0000C542705029D4FEA065847EA1637B5EB2C
:1004F00008056EEB070C870E920E47EA811742EA59
:100500008312A7FB0201B6EB0B0164EB00042B0D79
:1005100043EA0C335E1844EB1C50DA465146E7FBC5
:100520000201C5F313044FEA0B3343EA14534FEAB5
:100530000432019C43EA0603A4F10C040294009CDB
:10054000CDE900B400F0BFF803B000F003B800201C
:100550000146F9E730BCBDE8C08F2DE9F04D81EAD6
:10056000030404F0004B21F0004514464FF0000A4C
:1005700023F0004150EA050220D054EA01021DD0C8
:10058000C5F30A570246C5F31303C1F31300C1F3C1
:100590000A5640F4801543F48013A7EB0608101B9D
:1005A000D64608F2FD3873EB050002D308F10108C6
:1005B00001E092185B41B8F1000F03DA0020014618
:1005C000BDE8F08D00204FF48011064684460EE011
:1005D000171B73EB050705D3121B63EB05030643DB
:1005E0004CEA010C49084FEA300092185B4150EA8E
:1005F0000107EDD152EA030012D082EA040083EA37
:100600000501084305D0101BAB4106D2012200238F
:1006100006E000224FF0004302E06FF001025310A9
:100620001AEB06004CEB085110EB0A0041EB0B01F2
:10063000BDE8F04D00F038B830B50B46014600205B
:100640002022012409E021FA02F59D4205D303FA94
:1006500002F5491B04FA02F52844151EA2F1010215
:10066000F1DC30BD202A04DB203A21FA02F000211F
:10067000704721FA02F3D040C2F1200291400843B2
:1006800019467047202A06DBCB17203A41FA02F0C0
:1006900043EAE07306E041FA02F3D040C2F12002DF
:1006A000914008431946704710B5141E73F10004B9
:1006B00008DA401C41F1000192185B411A4301D154
:1006C00020F0010010BD2DE9F04D92469B4611B17E
:1006D000B1FA81F202E0B0FA80F220329046FFF7E0
:1006E000F7FD04460F4640EA0A0041EA0B01534673
:1006F0005A46084313D0114653EA010019D0C8F1F5
:1007000040025046FFF7AEFF05460E46504659469A
:100710004246FFF7DDFD084305D0012004E02046F6
:100720003946BDE8F08D0020054346EAE0762C43CB
:1007300037430A986305E40AA0EB08000022FD0A8B
:1007400044EA47540A3002D500200146E9E7010592
:1007500010196941DDE9084500196941BDE8F04D0E
:10076000A2E7C1F30A52C1F3130140F2FF3341F48F
:1007700080119A4202DA00200146704740F233436A
:100780009A42A2F2334202DC5242FFF76BBFFFF7FC
:100790009FBD000030B5041E71F1000404DB4FF072
:1007A0000044404264EB0101141E73F1000405DBB8
:1007B0001C464FF00043524263EB0403994208BFCA
:1007C000904230BD064C074D06E0E06840F0010362
:1007D00094E8070098471034AC42F6D3FFF7DAFCF0
:1007E000D86A0008F86A000870B58C1810F8015B28
:1007F00015F0070301D110F8013B2A1106D110F8BA
:10080000012B03E010F8016B01F8016B5B1EF9D1BD
:100810002B0705D40023521E0DD401F8013BFAE743
:1008200010F8013BCB1A921C03E013F8015B01F8AE
:10083000015B521EF9D5A142D8D3002070BD000043
:100840002DE9F84304464FF0FF390020022305222A
:10085000611D0090194804F0DDFC01F002F9054625
:100860000E464FF0FA73EA1846F10000010641EA1D
:100870001227384600F0C4FE002210490C2001F077
:1008800040F8012200210C2001F04EF801218020C7
:1008900000F0C7FE012000F089FF4FFA80F9FF2029
:1008A00003F014FBF82200210F2000F0D8FF0021F4
:1008B000802000F0B6FEBDE8F88300007101002042
:1008C0002DE9F04194B005464FF0FF37082000F0C5
:1008D000CFFC012000F07CFE0020022307222946E5
:1008E000009012A803F09EFF00200223052212A907
:1008F0000090F24804F08EFC01F0B3F8F04A03C215
:10090000EF48D0E900204FF0FA73D21840F1000010
:10091000010641EA1226304600F072FEFA2000F08D
:10092000A2FE4FF42F7000F0B9FE0022E3490F2021
:1009300000F0E7FF002211460F2000F0F5FF032032
:1009400000F034FF47B20120DE490870FF2003F0B9
:10095000BDFA0020DB49087000210F2000F07FFD68
:10096000D949086000F4804000287DD04FF48142CE
:1009700000210F2000F073FF0021102000F06FFD18
:1009800000F07F04372C70DC00222146CF4800F0B5
:10099000BFFDCE48407A0D2868D14FF48041CC4845
:1009A00001F01CFACB480088401CCA49088001F0BD
:1009B0006EF8C94A03C201F054F8C84A03C210A92C
:1009C000C2480A3001F017F80EA9C0480F3001F0F4
:1009D00012F80CA9BD48143001F00DF80AA8BF495F
:1009E000089003C9CDE90601DDE90C01CDE9040158
:1009F000DDE90E01CDE90201B74903C9CDE90001E6
:100A0000AF480CC8DDE9100105F02EFA0A9880B253
:100A1000B3490860BDF8480000F07CF9B14908709E
:100A2000084690F90000401C00287CD0084690F948
:100A30000000AD4991F9001088421DD0AA4890F9F4
:100A4000000000EB4000A94901EB8000007A98B952
:100A5000A54890F90000401C70B10021A24890F90F
:100A6000000000F07BF902E00CE11CE1FFE0A0488F
:100A70000068401C9E49086000209A4991F90010C6
:100A800001EB4101994A02EB81010872954890F906
:100A9000000095490870934890F9000000EB400071
:100AA000114601EB8000807980B900208D4991F9D1
:100AB000001001EB410102EB81014872894991F973
:100AC000001001EB410102EB81018872BDF8480082
:100AD000844991F9001001EB4101844A22F8210078
:100AE0007F48008881B27F4890F9000000EB400009
:100AF00002EB8000801C7B4A92F9002002EB42024C
:100B00007A4B03EB8202927920F81210754890F923
:100B1000000000EB4000194601EB8000801C714989
:100B200091F9001000E0A1E001EB41011A4602EB4F
:100B30008101497A30F8110069490968884209DA67
:100B4000684890F9000000EB4000114601EB80007E
:100B5000807908E0634890F9000000EB40006349A9
:100B600001EB8000407A5F4991F9001001EB4101EF
:100B70005E4A02EB810148725A4890F9000000EB8E
:100B80004000114601EB8000801C564991F900108D
:100B900001EB410102EB8101897A30F811005049E3
:100BA0000968884209DD4F4890F9000000EB4000D9
:100BB000114601EB8000807908E04A4890F9000076
:100BC00000EB4000494901EB8000807A454991F9EA
:100BD000001001EB4101454A02EB81018872414856
:100BE00090F9000000EB4000114601EB8000807995
:100BF000401CC0B23B4991F9001001EB410102EBEE
:100C00008101887101280AD10021364890F900003D
:100C100000F0A4F836480068401C354908603448A4
:100C200000680A2822D302F053FC012005F0F8F9ED
:100C3000804643462FA20021084602F074FD0220A0
:100C400005F0EEF9804643462CA20121002002F077
:100C50006AFD032005F0E4F98046434629A20221FB
:100C6000002002F060FD0020214908601BE01948C7
:100C70000088401C1749088024480088401C2349EC
:100C8000088010E0224A00210F2000F0E8FD00F06B
:100C90008AFC10480088401C0E4908801B480088C8
:100CA000401C1A490880002000F092FC00F000FB74
:100CB000002000F0DDFA14B0BDE8F08162010020F0
:100CC000380100208201002058010020D02200209D
:100CD000000800487E01002040010020480100205B
:100CE0003001002060010020610100200823002065
:100CF00054010020313A253364000000323A253394
:100D000064000000333A25336400000080010020B5
:100D10000090272410B502464FF0FF33002115E064
:100D200001EB41000B4C34F82000904201D1084601
:100D300010BD01EB4100074C04EB8000C07908B9FD
:100D4000084600E018460346481C41B20A29E7DB82
:100D50001846EDE70823002000BFFEE730B50A463D
:100D6000D2B3002123E000EB4003604C04EB83038B
:100D70005B7A8B4219D000EB400304EB83039B7A30
:100D80008B4212D000EB400304EB83039B1C33F82F
:100D9000113000EB4004554D05EB8404A488234436
:100DA00000EB400405EB8404A3804B1CD9B200EB9C
:100DB00040034E4C04EB83039B798B42D3DC00EB66
:100DC000400304EB83039B799B1E00EB4004474DDB
:100DD00005EB8404A37120E0FFE7002115E000EBA0
:100DE0004003424C04EB83039B1C33F8113000EBAF
:100DF00040043E4D05EB8404A488234400EB4004EA
:100E000005EB8404A3804B1CD9B200EB4003374CA4
:100E100004EB83039B798B42E1DC00EB4003334C12
:100E200004EB83039C8800EB4003304D05EB830308
:100E30009B795B1C94FBF3F300EB400405EB84040B
:100E4000A380002300EB400405EB8404A37101237D
:100E500000EB400405EB8404237200EB40032C46B6
:100E600004EB83039B88224C2488A34213DA00EB13
:100E700040032C4604EB8303DB7963B9012300EBC9
:100E8000400405EB8404E3711A4B1B785B1C5BB2D6
:100E9000184C237029E000EB4003144C04EB83034F
:100EA0009B88134C2488A3421FDD00EB40030F4CAA
:100EB00004EB8303DB79012B17D1002300EB400403
:100EC0000A4D05EB8404E3714FF6FF7300EB400419
:100ED00005EB8404A380074B1B785B1E5BB2054CBB
:100EE0002370002B01DA0023237030BD082300207B
:100EF0005E0100205C01002038B500F0D9F94FF404
:100F0000C87000F0B0FB4FF47A7000F0C7FB00220D
:100F100023490A2000F0F5FC012200210A2000F0FC
:100F200003FD022000F042FC45B200BF00210F206B
:100F300000F095FA1B4908601B4908400028F5D0CD
:100F40001848008800F4804000B34FF4814200212B
:100F50000F2000F084FC0021102000F080FAC0F384
:100F60000904372C19DC00222146104800F0D0FA81
:100F70000E48407A102810D10020022307220B4986
:100F800000900B4803F04EFC012038BD094A0021B7
:100F90000F2000F064FC00F08BF90020F5E7000062
:100FA000B0000020D000002000D02704D01E002078
:100FB0001C010020F890272410B50446204605F0B7
:100FC0005FF810BD2DE9F05F04464FF00009CA46F6
:100FD00025786079864931F810806078401EC6B265
:100FE000042D01D0072D01D1012000E0002083460F
:100FF000E07950B97F480068406940F480007D493D
:10100000096848614FEAE80807E07A4800684069E3
:1010100020F48000774909684861207A7549096899
:10102000087274480068406920F4403071490968CA
:101030004861704800684069217A4FF4403202EA02
:10104000014108436B49096848616A48006800210A
:101050004269042000F003FC424642F604012E20BF
:1010600000F0ECFB304604F0A1F9634800F0F2F820
:101070006248405D624951F8202007212B2000F092
:10108000EEFB5E48405D5F490A5C0B212B2000F0BF
:10109000FAFB5D4810F80B200B21282000F0F3FB31
:1010A0005648405D594951F820200C21282000F075
:1010B000D6FBE079564901EB8000A17930F8112088
:1010C0000221272000F0BAFB524830F816200421F4
:1010D000272000F0B3FBE07928B9642206212720FD
:1010E00000F0ACFB17E0A07804280AD110220621FA
:1010F000272000F0A3FB10222621272000F0C3FBAD
:1011000009E020220621272000F098FB2822262132
:10111000272000F0B8FB404800EB0610E17850F8BB
:1011200021200821272000F09AFB608910B941F2A4
:101130004100608162892021272000F07FFB374831
:101140000C210268232000F08AFB3448001D30F88F
:1011500016200421232000F071FBA07950B1E07922
:101160002F490A5C0021212000F08DFB4FF003097C
:101170004FF0010A05F00F00F02101EA05110843C4
:1011800061784FF4402202EA81410843910001EA6C
:10119000095108434FF4003101EA4A4108432179DB
:1011A0004FF0F86202EA815108436179520102EA84
:1011B000C16140EA01073A4600211F2000F04FFBC1
:1011C000A078617808430004E17940EA4130094998
:1011D0000968C860074800680021C268082000F05C
:1011E0003EFB422200210D2000F04DFB00F01AB81A
:1011F000746900089801002028000020F8680008A1
:10120000186900083069000836690008006900089C
:1012100044690008506900085469000838690008EA
:101220004069000830BCBDE8C09F000070B50446AE
:101230000D4607480068008B0443224600212C20FD
:1012400000F0FCFA2A4606212C2000F01CFB70BDA1
:101250009801002010B5044622780B212A2000F0C6
:1012600012FB00211E20626800F0F9FA10BD000098
:1012700070B505460021042000F0F1F80A4900EAA3
:10128000010435B124F4FF7405F4FF70401C0443DD
:1012900001E024F001040548006844612246002171
:1012A000042000F0DCFA70BDFFFF47F09801002039
:1012B00070B500210E2000F0D2F8054600F052FB78
:1012C0000446002211460E2000F0C9FA40220021F7
:1012D0000D2000F0D8FA0A4A00210F2000F0BFFAD2
:1012E00004F08BFE2A4600210E2000F0B8FA2046BA
:1012F00000F031FB002003490968887670BD0000CA
:10130000F8FF2704980100202DE9F041044600254C
:1013100000270020464909684874454909688876CD
:101320004349096808834249096888624049096855
:10133000C8623F49096808633D490968486300F08D
:10134000AFF83C49884202D08817BDE8F08100F030
:10135000E9F9002004F043F804220021242000F0E1
:1013600092FA1E2004F0C6F885B2280A30490968AE
:101370004872042004F0BEF80746F8B260B10222B9
:1013800012212D2000F07FFA29480068008B40F4DC
:101390008050274909680883062004F0ABF82449E7
:1013A00009680860072004F0A5F821490968486029
:1013B00005F01F001E49096808741D480068007C7C
:1013C00018B910201A490968087419490968087C75
:1013D00000F09CF904F0010050B104F07AF81448D0
:1013E0000068008B40F400601149096808830DE033
:1013F0000521362000F020F806464FF6FF50064043
:1014000032460521362000F019FA00BF012003F012
:10141000E6FF00220A212C2000F035FA00210420EA
:1014200000F01DF802490968486100208DE70000BE
:10143000980100203001CADEF8B504460D460026AA
:10144000A9B2A0B26B46022200F030F89DF800006D
:101450009DF8011000EB012086B23046F8BDF8B5CA
:1014600005460E460027B1B2A8B26B46042200F032
:101470001DF8032404E01DF8040000EB0727641E98
:10148000002CF8DA3846F8BD38B504460D46A9B246
:10149000A0B26B46012200F009F89DF8000038BDAB
:1014A00010B500210846FFF7DAFF10BD2DE9F8431B
:1014B00006460C461746984600252CB9F2B2284637
:1014C0006D1C0DF800201BE0F0B240F040022846F1
:1014D0006D1C0DF800207F2C05DCE2B228466D1C47
:1014E0000DF800200CE0E0B240F0800228466D1CB0
:1014F0000DF80020C4F3C71228466D1C0DF800201B
:10150000A8B243463A46694603F0A8F9BDE8F88315
:1015100070B504460D46164623462A46314611202C
:10152000FFF7C4FF70BD10B5044623460522002115
:101530001520FFF7BBFF10BD10B50446234605225A
:1015400000211720FFF7B2FF10BD70B5044604F06C
:10155000040008B904F051FD4FF4807504F0010057
:1015600008B145F400752A4600210D2000F066F907
:1015700004F00100A8B103210F20FFF785FF064604
:1015800006F0080068B1FFF793FE04F0020028B9E6
:101590004FF4807200210D2000F050F94FF0FF3021
:1015A00070BD0020FCE710B5E0220321362000F0DA
:1015B0006AF9F0220321362000F065F910BD10B55C
:1015C000044622460021032000F038F910BD000037
:1015D00070B5054600210420FFF741FF074900EAE6
:1015E000010415B144F0005401E024F000542246F7
:1015F0000021042000F033F970BD0000FFFF47F028
:1016000010B50446224601210A2000F028F910BD39
:1016100010B50446234608220021012000F03DF9C0
:1016200010BD2DE9F04104460E4600F09BF9074637
:1016300000210E20FFF713FF05460EB1254300E001
:10164000A5432A4600210E2000F009F9384600F093
:1016500082F9BDE8F08110B504462246022103203C
:1016600000F0ECF810BD70B5054600211A20FFF718
:10167000F6FE04466FF31304C5F313000443224639
:1016800000211A2000F0EBF870BD10B50446224688
:1016900041F604012E2000F0D1F810BD70B50446CB
:1016A00003210420FFF7F0FE0546002C14DD22463E
:1016B00000210C2000F0C2F845F010050E4800682B
:1016C000406940F080500C49096848612A4603216E
:1016D000042000F0D8F80EE025F010050648006858
:1016E000406920F080500449096848612A46032176
:1016F000042000F0C8F870BD9801002010B5044621
:1017000022460021182000F099F810BD70B504465B
:1017100004F01F0040F060052A460E212B2000F047
:10172000B2F870BD10B503F03EFF002211462C2028
:1017300000F084F8002206212C2000F0A4F803F029
:10174000F1FE00220321362000F09DF80120FFF772
:1017500033FCF0220321362000F095F800200249E6
:101760000968887610BD00009801002070B5044615
:101770000D46FFF795FE0C49884209D023462A46BC
:1017800000210846FFF792FE0520FFF715FC01E057
:10179000002070BDFFF784FE0349884201D08817FE
:1017A000F7E70020F5E700003001CADE2DE9F0413F
:1017B000044600260025002704F0020048B18025D9
:1017C0002A4600210D2000F05EF801201949096821
:1017D000887604F0010018B345F006052A4600217A
:1017E0000D2000F050F801210620FFF738FE0021FF
:1017F000114A03C203210F20FFF71EFE074607F41C
:10180000816008B9002612E040252A4600210D20FB
:1018100000F039F80020074909688876461E06E07E
:1018200045F002052A4600210D2000F02CF8304634
:10183000BDE8F08198010020A0010020F8B5054620
:101840000E461446E0B28DF8000020128DF801001B
:10185000B1B2A8B26B46022200F01FF8F8BDF8B58D
:1018600006460F461446002504E0E0B20DF80500D8
:10187000240A6D1C042DF8DBB9B2B0B26B46042209
:1018800000F00BF8F8BD37B504460D46A9B2A0B27A
:1018900002AB012200F001F83EBD2DE9F8430646F7
:1018A0000C461746984600253CB9F0B240F080023D
:1018B00028466D1C0DF800201BE0F0B240F0C0027D
:1018C00028466D1C0DF800207F2C05DCE2B228466E
:1018D0006D1C0DF800200CE0E0B240F080022846BC
:1018E0006D1C0DF80020C4F3C71228466D1C0DF8BE
:1018F0000020A8B243463A46694603F0A9FCBDE879
:10190000F88370B504460E4615462819B0F5806F69
:1019100007DCA21E334629460920FFF7BEFF002040
:1019200070BD4FF0FF30FBE72DE9F04104460D4656
:10193000164607480068C068204340EA855040EAE0
:10194000C6373A4600210820FFF789FFBDE8F0813D
:1019500098010020704710B5044614B1062000F02D
:10196000ABFA10BD10B5062000F010F8044614B113
:10197000062000F093FA204610BD10B501F000FFDC
:10198000012000F03FF901F015FF10BDF0B5014650
:1019900000200022C1F30045064F07EB45131C68E9
:1019A00001F01F0606EA04020AB1012000E000204F
:1019B000F0BD00000004014010B506214FF090403A
:1019C00000F00CFA4FF48041034800F007FA64205D
:1019D00002F0D2FA10BD00000008004870B54418AB
:1019E00003E014F8015B02F8015B1D1EA3F1010680
:1019F000B3B2F6D170BD2DE9F35F884600BF002178
:101A0000C8F80010C8F80410894615E0009810F8CE
:101A1000096000274FEAC90234463D462046294660
:101A2000D8E900ABFEF754FC1AEB00004BEB010BBE
:101A3000C8E9000B09F10109B9F1050FE6D300F07F
:101A400000B83CBCBDE8C09F70B50146002005E071
:101A50000A54140A44EA03621B0A401C0528F7DBF7
:101A600070BD7CB500210C460D466846FFF75BFD56
:101A7000042607E0280240EA146524021DF8060047
:101A80000443761E002EF5DA204629467CBD7CB53F
:101A900000210C460D466846FFF74EFD042607E080
:101AA000280240EA146524021DF806000443761E4D
:101AB000002EF5DA204629467CBD000070B50C46A4
:101AC0000568C5F30043057805F01F06012505FAF2
:101AD00006F2024D05EB43110A6070BD140401408B
:101AE000F0B507460A4607B10AB90120F0BD1068F3
:101AF00038601068C0F30046107800F01F05012020
:101B000000FA05F4106800F00070002837D02B4868
:101B100000EB46131968107A00F0010008B1214368
:101B200000E0A14319602548001D00EB4613196829
:101B3000107A00F0020008B1214300E0A1431960CF
:101B4000106800F0C060B0F1C06F18D11C484FEAB7
:101B5000950C50F82C10A8074FEA107C072000FACB
:101B60000CF081434FEA857C4FEA1C7CD06800FA78
:101B70000CF0014312484FEA950C40F82C10DFF8A6
:101B80003CC0ACF1080C0CEB46131968107900F05E
:101B9000010008B1214300E0A14319600748001F7C
:101BA00000EB46131968107900F0020008B12143D8
:101BB00000E0A1431960002098E7000008040140FC
:101BC0000800014010B50446012C15D100210F205A
:101BD000FFF745FC0949084068B109480078012829
:101BE00003D1072002F0CEF805E00548007810B9CF
:101BF000062002F0C7F800BF00BF10BD80D0270448
:101C00001800002010B5044604480068204020B1A8
:101C1000024804602046FFF7D5FF10BD14040140C0
:101C200078B503460022C6E0012696400D6805EA15
:101C30000604002C72D04D68022D02D04D68122D82
:101C400013D1D60803F1200555F826005507EE0EEE
:101C50000F25B540A8435607F60E0D69B540284339
:101C6000D60803F1200545F826001868560003251C
:101C7000B540A8430D7905F003055600B54028434B
:101C800018604D68012D08D04D68022D05D04D68B3
:101C9000112D02D04D68122D13D1986856000325DE
:101CA000B540A8435600CD68B540284398605868B1
:101CB00001259540A8430D79C5F3001595402843AB
:101CC0005860D86856000325B540A84356008D6873
:101CD000B5402843D8604D6805F08055B5F1805F68
:101CE00068D100BF374D2D6E45F00105354E356684
:101CF00035462D6E05F00105009500BF00BF4FEA87
:101D0000B635960855F8260095072E0F0F25B540D5
:101D1000A843B3F1904F02D1002510E04AE02A4DCC
:101D2000AB4201D101250AE0284DAB4201D1022589
:101D300005E0274DAB4201D1032500E007259607BA
:101D4000360FB5402843234D960845F82600224D0E
:101D50002868A0434D6805F48035B5F5803F00D173
:101D600020431D4D28602D1D2868A0434D6805F4B3
:101D70000035B5F5003F00D12043174D2D1D2860DB
:101D80002D1D2868A0434D6805F48015B5F5801F0A
:101D900000D12043104D083528602D1D2868A04330
:101DA0004D6805F40015B5F5001F00D120430A4D1C
:101DB0000C352860521C0D68D540002D7FF434AFDF
:101DC00078BD0000001002400004004800080048F0
:101DD000000C0048080001400004014042694A40EC
:101DE000426170470AB1816100E081627047000082
:101DF00001480068704700008C010020024800681C
:101E0000401C0149086070478C01002010B5002477
:101E1000032000F09FF80F2000F008F808B101241B
:101E200001E000F01BF8204610BD000070B504462C
:101E30000025094800684FF47A71B0FBF1F630468E
:101E400001F03CF908B1012504E000222146501EB2
:101E500000F03FF8284670BD9001002008B500BF93
:101E60000D48006E40F001000B4908660846006E00
:101E700000F00100009000BF00BF00BF0846806D69
:101E800040F0805088650846806D00F080500090DA
:101E900000BF00BF08BD00000010024000BF00F0FE
:101EA0001F0201219140034A430942F8231000BF59
:101EB0007047000080E100E000BF00F01F02012138
:101EC00091404209920002F1E022C2F8001100BFE5
:101ED00070472DE9F05F80460D461646002701F059
:101EE000DBFA074639462A46334601F00700C0F1BF
:101EF000070ABAF1040F02D94FF0040A01E0C0F159
:101F0000070AD14600F1040ABAF1070F02D24FF0D6
:101F1000000A01E0A0F1030AD4464FF0010A0AFAD0
:101F200009FAAAF1010A0AEA020A0AFA0CFA4FF0BF
:101F3000010B0BFA0CFBABF1010B0BEA030B4AEAAA
:101F40000B042146404601F0AFFA00F000B830BC67
:101F5000BDE8C09F00BF00F00702064B19684FF6AE
:101F6000FF031940044B0B4343EA0221014B196064
:101F700000BF70470CED00E00000FA050246B2F524
:101F8000007F2AD11D48006800F4C060B0F5007FD2
:101F900032D01A48006820F4C06040F40070174B3B
:101FA00018601748006832235843164BB0FBF3F013
:101FB000411C00E0491E1148406900F48060B0F502
:101FC000806F01D10029F5D10C48406900F4806090
:101FD000B0F5806F10D1032070470848006800F406
:101FE000C060B0F5806F07D00448006820F4C0607E
:101FF00040F48060014B18600020EDE70070004065
:102000009001002040420F000248006800F4C060C8
:1020100070470000007000402DE9F8430446002698
:10202000B046206800F40030B0F5003F74D1B146EE
:10203000A048806D012121EA107078B100BF9D4851
:10204000806D40F080509B4988650846806D00F0A7
:102050008050009000BF00BF4FF001099648006813
:1020600040F4807094490860FFF7C2FE074606E01E
:10207000FFF7BEFEC01B022801D9032605E08E48EB
:10208000006800F480700028F2D000BF002E46D116
:1020900088489030006800F44075CDB1206BA842AC
:1020A00016D084489030006820F440758148D0F8FC
:1020B000900040F480307F49C1F890000846D0F885
:1020C000900020F48030C1F890000846C0F890508D
:1020D00005F00100A0B1FFF78BFE074608E0FFF70F
:1020E00087FEC01B41F28831884201D9032606E0F1
:1020F00070489030006800F002000028EFD000BF68
:102100005EB96C489030006820F44070216B084341
:102110006849C1F8900003E00CE0B04600E0B0462A
:10212000B9F1010F05D16348806D20F080506149FD
:10213000886500BF207800F0010048B15D48883014
:10214000006820F00300616808435A49C1F888001C
:10215000207800F00200022809D156488830006833
:1021600020F00C00A16808435249C1F8880020788B
:1021700000F00400042809D14E488830006820F09F
:102180003000E16808434B49C1F88800207800F02E
:102190002000202809D147488830006820F440609A
:1021A000216908434349C1F88800208800F4007081
:1021B000B0F5007F09D13F488830006820F4402006
:1021C000216A08433B49C1F88800208800F48060F8
:1021D000B0F5806F09D137488830006820F440108E
:1021E000616A08433349C1F88800207800F0400054
:1021F000402809D12F488830006820F44050616998
:1022000008432C49C1F88800207800F0800080281D
:1022100009D128488830006820F44040A16908436B
:102220002449C1F88800208800F48070B0F5807FD0
:1022300009D120488830006820F44030E169084323
:102240001C49C1F88800208800F40050B0F5005FF8
:1022500013D118488830006820F04060A16A084314
:10226000144988310860A06AB0F1006F05D11148A7
:10227000C06840F480100F49C860206800F48020D6
:10228000B0F5802F13D10B488830006820F04060F3
:10229000E16A0843074988310860E06AB0F1006FDD
:1022A00005D10448C06840F480100249C860404627
:1022B000BDE8F88300100240007000402DE9F041B5
:1022C00004460D4614B90120BDE8F0815548006868
:1022D00000F00700A8420ED25248006820F0070024
:1022E0002843504908600846006800F00700A842EB
:1022F00001D00120E8E7207800F00100002840D05C
:102300006068032806D14848006800F00070D8B91A
:102310000120D9E76068022806D14348006800F42C
:10232000003088B90120CFE7606830B93E480068C6
:1023300000F0020040B90120C6E73B48006800F405
:10234000806008B90120BFE73748806820F00300AB
:102350006168084334498860FFF74AFD064608E093
:10236000FFF746FD801B41F28831884201D90320E6
:10237000AAE72D48806800F00C006168B0EB810F7F
:10238000EED1207800F00200022807D126488068AC
:1023900020F0F000A16808432349886021480068C4
:1023A00000F00700A8420ED91E48006820F0070080
:1023B00028431C4908600846006800F00700A8424E
:1023C00001D0012080E7207800F00400042807D124
:1023D0001548806820F4E060E1680843124988608D
:1023E000207800F00800082808D10F48806820F401
:1023F0006050216940EAC1000B49886000F090F804
:1024000009498968C1F30311084A515C01F01F01B1
:10241000C840074908600F20FFF708FD0746384607
:1024200052E700000020024000100240B06800089F
:102430009001002010B53648006840F00100344992
:102440000860FFF7D5FC044606E0FFF7D1FC001B4F
:10245000022801D9032010BD2D48006800F00200B9
:102460000028F2D02A48006820F0F00040F0600018
:1024700027490860002088602648274908600F2007
:10248000FFF7D4FC08B10120E5E7FFF7B1FC0446F3
:1024900008E0FFF7ADFC001B41F28831884201D90A
:1024A0000320D8E71A48806800F00C000028F0D11B
:1024B000174800681949084015490860FFF798FC5B
:1024C000044606E0FFF794FC001B022801D9032014
:1024D000C1E70F48006800F000700028F2D10C49F5
:1024E000C8600846C06840F48050C860084600686C
:1024F00020F48020086000208861401E08620448A3
:102500009430006840F40000C1F894000020A2E775
:102510000010024000093D0090010020FFF4FEFE83
:102520002DE9F04100240020DFF800C1DCF808C0EC
:102530000CF00C01DFF8F4C0DCF80CC00CF0030761
:1025400019B10C291ED1012F1CD1DFF8E0C0DCF835
:1025500000C00CF0080CBCF1000F06D1DFF8CCC0B5
:10256000DCF894C0CCF3032405E0DFF8C0C0DCF84D
:1025700000C0CCF30314DFF8B8C05CF8244041B9C4
:10258000204606E0042901D12A4802E0082900D1AA
:1025900029480C2947D1DFF894C0DCF80CC00CF0B6
:1025A0000305DFF888C0DCF80CC0CCF3021C0CF18A
:1025B0000103012D1FD0022D02D0032D1AD10CE0F2
:1025C000DFF870C0BCFBF3FCDFF86080D8F80C804B
:1025D000C8F306280CFB08F218E0DFF85CC0BCFB6F
:1025E000F3FCDFF84880D8F80C80C8F306280CFB11
:1025F00008F20BE000BFB4FBF3FCDFF83080D8F842
:102600000C80C8F306280CFB08F200BF00BFDFF8FF
:102610001CC0DCF80CC0CCF3416C0CF1010C4FEA8F
:102620004C06B2FBF6F0BDE8F0810000001002405D
:10263000C86800080024F40000127A002DE9F8436D
:10264000044614B90120BDE8F883F948806800F019
:102650000C06F748C06800F00307207800F010006F
:10266000102875D11EB10C2E74D1012F72D1F048F3
:10267000006800F0020018B1E06908B90120E2E743
:10268000EB48616A006800F0080020B1E848006883
:1026900000F0F00005E0E6489430006800F4706057
:1026A000000981421FD9606A01F0D0FF08B1012002
:1026B000C9E700BFDE48006840F00800DC49086058
:1026C0000846006820F0F000616A0843D8490860B5
:1026D00000BF0846406820F47F40216A40EA01209C
:1026E000D34948601EE000BFD148006840F00800B0
:1026F000CF4908600846006820F0F000616A08438E
:10270000CB49086000BF0846406820F47F40216A3A
:1027100040EA0120C6494860606A01F097FF08B1AD
:10272000012090E7FFF7FCFEC1498968C1F303115E
:10273000C04A515C01F01F01C840BF4908600F202A
:10274000FFF774FB8146B9F1000F4ED048467AE797
:102750004BE0FFE7E06980B3B548006840F0010056
:10276000B3490860FFF744FB054606E0FFF740FB6E
:10277000401B022801D9032065E7AD48006800F03E
:1027800002000028F2D000BFA948006840F008000D
:10279000A74908600846006820F0F000616A084315
:1027A000A349086000BF0846406820F47F40216AC2
:1027B00040EA01209E49486017E0FFE79C48006816
:1027C00020F001009A490860FFF712FB054606E079
:1027D000FFF70EFB401B022801D9032033E7944882
:1027E000006800F002000028F2D1207800F001001B
:1027F00000285CD0082E03D00C2E0AD1032F08D15C
:102800008B48006800F4003088B3606878BB012012
:1028100019E700BF6068B0F5803F06D184480068C2
:1028200040F48030824908601AE06068B0F5A02F5B
:102830000BD17F48006840F480207D49086008463D
:10284000006840F4803008600AE07948006820F4AD
:102850008030774908600846006820F480200860CE
:1028600000BF606890B1FFF7C3FA054607E01EE0BD
:10287000FFF7BEFA401B642801D90320E3E66C4849
:10288000006800F400300028F2D010E0FFF7B0FA42
:10289000054606E0FFF7ACFA401B642801D9032087
:1028A000D1E66348006800F400300028F2D12078B7
:1028B00000F00200022852D1042E03D00C2E14D1B5
:1028C000022F12D15A48006800F4806018B1E06805
:1028D00008B90120B7E65648406820F0FE40217C48
:1028E00040EA01605249486039E0E06800B350486E
:1028F000006840F480704E490860FFF779FA054699
:1029000006E0FFF775FA401B022801D903209AE67A
:102910004748006800F480600028F2D044484068CE
:1029200020F0FE40217C40EA01604149486016E009
:102930003F48006820F480703D490860FFF758FA6E
:10294000054606E0FFF754FA401B022801D9032090
:1029500079E63748006800F480600028F2D12078DA
:1029600000F00800082876D16069E0B33048943060
:10297000D0F8008008F01001A06988422FD008F03C
:102980000200022804D108F0010008B901205AE62B
:1029900008F00100C8B126489430006820F001001A
:1029A0002349C1F89400FFF723FA054606E0FFF734
:1029B0001FFA401B112801D9032044E61C4894301B
:1029C000006800F002000028F1D119489430006836
:1029D00020F01000A16908431549C1F8940014487B
:1029E0009430006800E017E040F001001049C1F8A1
:1029F0009400FFF7FDF9054606E0FFF7F9F9401BE3
:102A0000112801D903201EE609489430006800F01F
:102A100002000028F1D01EE005489430006820F044
:102A200001000349C1F89400FFF7E2F905460CE004
:102A300000100240B068000890010020FFF7D8F9AC
:102A4000401B112801D90320FDE5BF48006800F0B4
:102A500002000028F2D1207800F00400042879D187
:102A60004FF00008B8489438806D00F0805088B965
:102A700000BFB5489438806D40F08050B249943919
:102A800088650846806D00F08050009000BF00BF50
:102A90004FF00108AD48006800F48070B0B9AB4851
:102AA000006840F48070A9490860FFF7A1F9054665
:102AB00006E0FFF79DF9401B022801D90320C2E57B
:102AC000A248006800F480700028F2D0207A00F05C
:102AD000010048B39C48001F006820F08000217A64
:102AE00001F0800108439849091F0860207A00F02E
:102AF000040078B10846006840F004009249943917
:102B0000C1F890000846D0F8900040F00100C1F8EC
:102B1000900019E08C48001F006840F001008A49CD
:102B20009439C1F890000FE08748001F006820F03A
:102B3000010085499439C1F890000846D0F890000A
:102B400020F00400C1F89000A068A8B1FFF750F988
:102B5000054609E039E0FFF74BF9401B41F28831A7
:102B6000884201D903206EE57748001F006800F015
:102B700002000028EFD01CE0FFF73AF9054608E014
:102B8000FFF736F9401B41F28831884201D9032012
:102B900059E56D48001F006800F002000028EFD1E1
:102BA0006948001F006820F0800067499439C1F827
:102BB0009000B8F1010F07D163489438806D20F080
:102BC000805061499439886500BF207800F020006A
:102BD000202838D1A06AD8B15B48001D006840F0B9
:102BE000010059499439C1F89800FFF701F90546E9
:102BF00006E0FFF7FDF8401B022801D9032022E57B
:102C00005148001D006800F002000028F1D01AE0D1
:102C10004D48001D006820F001004B499439C1F86F
:102C20009800FFF7E5F8054606E0FFF7E1F8401BDE
:102C3000022801D9032006E54348001D006800F082
:102C400002000028F1D1E06AE8B30C2E78D0E06AE7
:102C500002284FD13C489438006820F080703A49EF
:102C600094390860FFF7C4F8054606E0FFF7C0F89E
:102C7000401B022801D90320E5E43348943800685A
:102C800000F000700028F1D1606B401E0101A06BC4
:102C900041EA0020216B0843A18F0122C2EB5101C0
:102CA00040EA41514020005DC2EB500041EA4060E3
:102CB00025499439C8600846006840F08070086073
:102CC0000846C06800E03DE040F08070C860FFF753
:102CD0008FF8054606E0FFF78BF8401B022801D964
:102CE0000320B0E418489438006800F00070002811
:102CF000F1D027E014489438006820F08070124921
:102D0000943908600846C06820F00300C86008468F
:102D1000C06820F08870C860FFF76AF8054607E0D1
:102D2000FFF766F8401B022802D903208BE407E076
:102D300005489438006800F000700028F0D101E0E8
:102D4000012080E400207EE49410024000700040E6
:102D50002DE9F04104460D460026002700BF2079EA
:102D6000012802D10220BDE8F0810120207100BFBE
:102D70006079012820D102206071FFF739F80646FA
:102D80000CE0FFF735F8801B022807D9042060719A
:102D900000BF0020207100BF0320E4E720684068E6
:102DA00000F001000028ECD020688068E060E06856
:102DB00028600120607100E0012700BF0020207121
:102DC00000BF3846CFE710B5044604F10C01204699
:102DD000FFF7BEFF08B9E06810BD0020FCE710B5A2
:102DE00004460CB9012010BD607920B90020207183
:102DF000204600F00FF8022060712068006840F063
:102E0000040021680860012060710020A06000BFFC
:102E1000E9E7000008B500BF0649C96C41F480210C
:102E2000044AD1641146C96C01F48021009100BFAD
:102E300000BF08BD0010024070B504460125002CFB
:102E400070D0002594F8290028B9002084F82800C3
:102E5000204600F06BF84FF440606060022084F878
:102E6000290000BFCA2021684862532021684862B7
:102E700000BF204601F096FC48B100BFFF2021684A
:102E8000486200BF042084F8290001254AE0206838
:102E9000806925490840216888616169A068084304
:102EA000E1690843216889690843216888612168CC
:102EB0002069086120680169A08941EA0040216811
:102EC00008612068C06820F080002168C860206820
:102ED000806900F0200060B9204600F028F840B179
:102EE00000BFFF202168486200BF042084F8290049
:102EF0000125BDB92068806920F0604021688861A3
:102F0000D4E908100843A169084321688969084386
:102F10002168886100BFFF202168486200BF01204E
:102F200084F82900284670BDBFFF8FFB704770B53D
:102F300004462068C06820F0A0002168C860FEF741
:102F400057FF054607E0FEF753FF401BB0F57A7FB9
:102F500001D9032070BD2068C06800F0200000285F
:102F6000F1D00020F6E770B504460CB9012070BD21
:102F7000606A00B900BF0021A16294F85D0028B921
:102F8000002084F85C00204600F04EF8022084F80F
:102F90005D002068006820F0400021680860E0685B
:102FA000B0F5E06F01D9002501E04FF48055E068ED
:102FB000B0F5706F05D0E068B0F5E06F01D000218A
:102FC000A162206B40B9E068B0F5E06F02D9022140
:102FD000216301E001212163D4E901010843216952
:102FE000084361690843218B01F400710843E169DA
:102FF0000843216A0843A16A084321680860042144
:10300000A06901EA1040616A0843616B0843E16806
:10301000084328432168486000202066012084F886
:103020005D000020A3E7000010B586B0044614211F
:1030300001A8FDF763F91F492068884238D100BF15
:103040001D48006E40F480501B4908660846006E1B
:1030500000F48050009000BF00BF00BF0846C06C65
:1030600040F00100C8640846C06C00F00100009008
:1030700000BF00BF20200190022002900120039099
:10308000032004900520059001A94FF09040FEF721
:10309000C7FDC02001900220029000200390032071
:1030A00004900520059001A94FF09040FEF7B8FD6F
:1030B00006B010BD003001400010024070B504465B
:1030C0002546681EB0F1807F01D301200FE0681E05
:1030D0004FF0E02148610F214FF0FF3000F0E4F99C
:1030E00000204FF0E021886107200861002070BDBA
:1030F00000BFFEE710B5012240210948FEF772FE2D
:10310000012280210648FEF76DFE0022802104483E
:10311000FEF768FE002240210148FEF763FE10BD65
:103120000004004810B5012240210748FEF75AFE6E
:10313000002280210448FEF755FE0122802102482A
:10314000FEF750FE10BD00000004004810B501223B
:1031500040210448FEF746FE002240210148FEF7C8
:1031600041FE10BD0004004800BF4FF47A7000F02B
:1031700003FF04214FF09040FEF730FEF5E700001A
:1031800070B500264FF42F70FEF788FAA9E00020F2
:10319000FEF7DBF900BF00210F20FEF760F951496F
:1031A0000860514908400028F5D04E48006800F4F6
:1031B000003000286CD04B48008800F4DE40002826
:1031C00066D14FF4003200210F20FEF748FB47483C
:1031D0000188002001F088FA04464FF6FF7101EAE9
:1031E000840000F0C9FE0020FEF7AFF900BF002107
:1031F0000F20FEF734F93B4908603B49084000289E
:10320000F5D03848006800F40030E8B1354800884F
:1032100000F4DE40C0B94FF4003200210F20FEF769
:103220001EFB00200646314A118801EBD172521074
:103230000AB9012204E02D4A108800EBD072521026
:103240002A4B1A80012070BD2648008800F4804077
:1032500040B34FF4804200210F20FEF700FB002115
:103260001020FEF7FCF800F07F05372D1ADC002255
:1032700029461F48FEF74CF91D48407A0F2803D015
:103280001B48407A10280DD1642000F075FE09E03B
:10329000184A00210F20FEF7E2FAFEF784F9002019
:1032A00015490870701CC6B2104800881921B1EB8E
:1032B000400F01DC192002E00C48008840000B4957
:1032C000088008460088192803D10C480088401C53
:1032D00001E00A48008809490880102E01D1002029
:1032E000B1E754E7D000002000D0272410010020CF
:1032F000D01E002000FF27241201002026010020FC
:1033000000B587B0142102A8FCF7F8FF00BF4448BD
:10331000C06C40F001004249C8640846C06C00F02F
:103320000100019000BF00BF00BF0846C06C40F024
:103330000200C8640846C06C00F00200019000BFA3
:1033400000BF00BF0846C06C40F00400C8640846D7
:10335000C06C00F00400019000BF00BF0820029084
:10336000002003900120049002A94FF09040FEF746
:1033700057FC102002900120039004900320059038
:1033800002A94FF09040FEF74BFC01200290254827
:1033900003900220049002A92348FEF741FC02207A
:1033A000029001200390002004900320059002A9C0
:1033B0001D48FEF735FC06200290012003900220F4
:1033C00004900320059002A94FF09040FEF728FCDE
:1033D0004FF48040029001200390022004900320CB
:1033E000059002A91148FEF71BFC002208210620C7
:1033F000FEF76FFD0620FEF75FFD012210214FF062
:103400009040FEF7EFFC002202210748FEF7EAFC9D
:10341000002206214FF09040FEF7E4FC07B000BD0B
:10342000001002400000111000040048000800488D
:1034300010B51548154908604FF4827048600021A6
:10344000124881604FF4E061C160022101610121F5
:103450004161490281610821C1610021016241622B
:1034600081620721C162002101634163FFF77BFD97
:1034700008B1FEF7A1FA05480068006840F0400076
:1034800002490968086010BD003001408023002017
:1034900000BFFEE77047000002480068C0F302204A
:1034A000704700000CED00E010B5002807DA0A07AD
:1034B000140E054A00F00F031B1FD45403E00A0743
:1034C000130E024A135410BD18ED00E000E400E0B2
:1034D00070B5002418E004F1B000002100F017F9E5
:1034E0000021084600F013F90021102000F00FF928
:1034F000002505E00121002000F009F9681CC5B293
:10350000802DF7DB601CC4B2082CE4DB70BD00002A
:1035100000B585B014216846FCF7F0FEC02000908D
:103520000120019002200290032003906946024886
:10353000FEF776FB05B000BD0004004810B5FFF7AC
:10354000E7FFC82000F018FD0021AE2000F0DFF8F2
:103550000021402000F0DBF80021B02000F0D7F877
:103560000021C82000F0D3F80021812000F0CFF81E
:103570000021FF2000F0CBF80021A12000F0C7F8C7
:103580000021A62000F0C3F80021A82000F0BFF819
:1035900000211F2000F0BBF80021D32000F0B7F875
:1035A0000021084600F0B3F80021D52000F0AFF864
:1035B0000021F02000F0ABF80021D92000F0A7F89E
:1035C0000021222000F0A3F80021DA2000F09FF86B
:1035D0000021022000F09BF80021DB2000F097F88A
:1035E0000021492000F093F800218D2000F08FF891
:1035F0000021142000F08BF80021AF2000F087F8A4
:10360000FFF766FF10BD70B504460D4605F1B0002A
:10361000002100F07CF8102141EA1410002100F094
:1036200076F804F00F00002100F071F870BD000082
:103630002DE9F04707460E4690469946002500249E
:10364000A8F12000C5B27F2F02DD0027B01CC6B252
:10365000B9F1100F24D131463846FFF7D4FF0024CA
:1036600008E004EB0511194A505C012100F04FF805
:10367000601CC4B2082CF4DB701CC1B23846FFF7E2
:10368000C2FF002409E004EB051108310F4A505C29
:10369000012100F03CF8601CC4B2082CF3DB12E0FE
:1036A00031463846FFF7AFFF00240AE005EB45013D
:1036B000074A02EB4101085D012100F028F8601C77
:1036C000C4B2062CF2DBBDE8F0870000C06200083F
:1036D000986000082DE9F04104460F4615469846CB
:1036E00000260FE0AA5D434639462046FFF7A0FFBB
:1036F00004F10800C4B2782C02DD0024B81CC7B263
:10370000701CC6B2A85D0028ECD1BDE8F08170B590
:1037100004460D461DB1E0B201F032FE02E0E0B217
:1037200001F018FE70BD0FB430B589B004460D46E7
:103730000FA8009001A8009A0E9901F013FF08232A
:1037400001AA29462046FFF7C5FF0020009009B0D6
:1037500030BC5DF814FB10B500F00FF800F0C2FDAE
:1037600000F0DEFD00F000FE00F094FD00F05AFDD8
:1037700000F02EFE00F002F810BD70477047000008
:1037800010B500240948007801280ED1FCF71AFD75
:10379000044607480078FF2807D205480078401CF7
:1037A000034908702046FCF711FD10BDBD01002043
:1037B000B401002010B500241A480078012830D147
:1037C000FCF700FD044618480078002804DD164880
:1037D0000078401E1449087013480078F0B9134867
:1037E0000078D8B900F060FE1148007811490978D6
:1037F000884213D010480E49097850F821000F492B
:10380000086008460068406B401C096848630C4823
:103810000068401C0A490860FCF7F0FC2046FCF7F1
:10382000D5FC10BDBD010020B4010020B501002071
:10383000B7010020B601002024280020CC01002080
:10384000A801002070B5054600261248007800281F
:1038500001DD002070BDFCF7B5FC06460E4804688B
:10386000006820B10C48006840680B490860304689
:10387000FCF7ACFC5CB10320207025810020606067
:103880003F20E07300212174204600F0BDFC20465B
:10389000E0E70000B4010020AC0100202DE9F04178
:1038A00005460E46144600272878032803D0012039
:1038B0002070BDE8F08132480078002802DD022047
:1038C0002070F6E72F480078002802DD0D202070D8
:1038D000EFE7FCF777FC07462889002808DD2889F0
:1038E000401E28813846FCF771FC00202070E0E77C
:1038F0002548006890F82C0040F001002249096832
:1039000081F82C0000202049096881F82D001E480C
:1039100000684685284600F039FC3846FCF756FC1E
:1039200000F088FDFCF74EFC07461748006890F849
:103930002D0020B1012809D0022806D102E0002084
:1039400020700BE00E20207008E000BF29460E48D2
:10395000006800F006FC0A20207000BF00BF0020B5
:103960000949096881F82C000749096881F82D0088
:1039700005490968C8613846FCF728FC00BF98E78C
:10398000B4010020B5010020C401002070B5044638
:1039900000252078032801D0012070BDFCF712FC1F
:1039A0000546A07A60B1002301221946204600F0A6
:1039B00093FB2846FCF70AFC00F03CFD0020ECE7F6
:1039C00020894FF6FF71884207D22089401C208150
:1039D0002846FCF7FBFB0020DFE72846FCF7F6FB58
:1039E0003220DAE710B50B48007890B900F05CFDA2
:1039F000094800780949087009480749097850F8CA
:103A00002100084908600846006807490860FCF77B
:103A1000E0FB10BDBD010020B7010020B601002071
:103A200024280020CC010020C401002070470000A1
:103A30002DE9FE4F06460F4690461C464FF0000902
:103A4000FCF7C0FB814620480078002805DD484689
:103A5000FCF7BCFB3C2000F03DB81C4850F82400AB
:103A600060BB0120194941F824004846FCF7AEFB31
:103A7000002342463946304600F0DAF982460020FB
:103A8000009001900346024651460290204600F005
:103A900039FD054635B90E48007801280CD100F0F3
:103AA000C9FC09E0FCF78EFB81460020074941F87C
:103AB00024004846FCF78AFB2846CCE74846FCF73A
:103AC00085FB2820C7E70000B4010020242800203F
:103AD000BD0100201EBCBDE8E08F00002DE9F04FC5
:103AE00085B00746884691461C46DDE911B6DDF8EB
:103AF00038A000200390FCF765FB03902048007875
:103B0000002806DD0398FCF761FB3C2005B000F0BF
:103B10003DB81C4850F8240060BB0120194941F809
:103B200024000398FCF752FB33464A464146384688
:103B300000F07EF9049010985346CDE901B600904C
:103B400020460F9A049900F0DDFC054635B90E4871
:103B5000007801280CD100F06DFC09E0FCF732FB85
:103B600003900020074941F824000398FCF72EFB3E
:103B70002846CBE70398FCF729FB2820C6E700007E
:103B8000B401002024280020BD01002030BCBDE885
:103B9000C08F70472DE9F041054600274A4800785C
:103BA000002802DD4020BDE8F0811F2D01D13E201C
:103BB000F9E7FCF707FB0746FF2D03D143480068F0
:103BC00090F82E50424850F8254024B93846FCF76A
:103BD000FDFA4320E7E7012C04D13846FCF7F6FA5A
:103BE0003D20E0E714F8300F3A49085C61788843DB
:103BF0002178384A505414F830091146085C30B91D
:103C000094F8321034480078884333490870E069EA
:103C100018B12046E16900F0A4FA666A16B1304690
:103C200000F026FB0020608584F82C0084F82D002D
:103C30002A480078FF2804D228480078401C2749E9
:103C400008703846FCF7C2FA00F045FAFCF7BAFAF9
:103C5000074622480078002804DD20480078401EEE
:103C60001E490870204600F043F81D480078401EA9
:103C70001B4908700020164941F82500A06930B999
:103C800000206169886117496069086005E0D4E92E
:103C900005014861D4E90510886113480068606136
:103CA000114804603F2084F8480000214920015554
:103CB0003846FCF78BFA0D480078012801D100F056
:103CC000B9FB00206FE70000B4010020C401002010
:103CD00024280020B9010020B8010020B5010020EF
:103CE000BE010020D0010020C8010020BD0100203D
:103CF000704770472DE9F0470646884614464FF056
:103D000000091D480078002803DD12202070BDE85E
:103D1000F087FCF757FA8146FF2E03D11748006859
:103D200090F82E60164850F826502DB94846FCF7FA
:103D30004DFA43202070EAE7012D05D14846FCF7F3
:103D400045FA43202070E2E7404600F0D1FB0746E9
:103D50000F2F05DD4846FCF739FA41202070D6E7E1
:103D6000414605F1480000F0B5FB4846FCF72EFA45
:103D70000020207000BFCAE7B4010020C401002069
:103D80002428002070B505460026FCF71BFA0646DD
:103D9000234850F8254024B93046FCF717FA46204E
:103DA00070BD012C04D13046FCF710FA4320F7E730
:103DB00094F82C0000F0080060B314F82C0F20F0E9
:103DC0000800207014F82C09F8B9608DC8B9303497
:103DD000A0781449097808431249087020781249DC
:103DE000085C6178084314F830190F4A5054304683
:103DF000FCF7ECF90D480078012809D100F01AFB16
:103E000006E03046FCF7E2F902E03046FCF7DEF966
:103E10000020C5E73046FCF7D9F94420C0E7000090
:103E200024280020B8010020B9010020BD01002095
:103E300070B5044610464FF080750560051F284692
:103E40002C606FF00106051F28462E604FF01236D9
:103E5000051F28462E604FF00336051F28462E60AA
:103E60004FF00236051F28462E607610051F2846A3
:103E70002E60051F284629604FF01136051F284681
:103E80002E604FF01036051F28462E604FF0093681
:103E9000051F28462E604FF00836051F28462E6065
:103EA0004FF00736051F28462E604FF00636051FD7
:103EB00028462E604FF00536051F28462E604FF02D
:103EC0000436051F28462E6070BD00002DE9F04124
:103ED00005464FF00008FCF775F98046FF2D05D127
:103EE0002048006890F82E50012608E01D48006820
:103EF00090F82E00A84201D1012600E000261A48C1
:103F000050F825402CB94046FCF760F94820BDE840
:103F1000F081012C04D14046FCF758F94320F6E724
:103F200094F830701148C05D94F8311088430F49FF
:103F3000C8550846C05D30B994F832100C48007876
:103F400088430B49087094F82C0040F0080084F86E
:103F50002C004046FCF73AF9012E01D100F06AFA34
:103F60000020D4E7C401002024280020B90100204B
:103F7000B80100207047000070B5054600261648BD
:103F80000078002800DD70BD002D23DDFCF71AF954
:103F900006461248006890F830401148005D0F490D
:103FA000096891F8311088430D4908550846005DAD
:103FB00040B90A48006890F832100A4800788843EF
:103FC000084908700548006845853046FCF7FEF84A
:103FD00000F030FA00BFD6E7B4010020C401002091
:103FE000B9010020B801002070B5002600F072F879
:103FF000FCF7E8F8064631480068401C2F49086085
:104000003046FCF7E3F82E480078012853D12D48BC
:10401000007820B1012804D0022809D103E001254D
:104020000BE0002509E0012501202649087004E085
:10403000012500202349087000BF00BF05B970BDED
:104040002148046833E0FCF7BDF80646608D50B3A4
:10405000608D401E80B2608528BB94F82C0000F073
:10406000370040B114F82C0F20F0370020700120E9
:1040700060702C3C02E0002084F82D0094F82C00A5
:1040800000F0080078B93034A07810490978084366
:104090000E49087020780E49085C6178084314F8CE
:1040A00030190B4A505464693046FCF78FF894F885
:1040B0002E001F28C7D100BFC1E70000D801002093
:1040C000BD010020D4010020D0010020B801002053
:1040D000B9010020704770472DE9F04F05460F46A3
:1040E00090469946A87A19490E5C05F10B00805D4F
:1040F00011F800B00BEBC60000F0FF0A144850F8AE
:104100002A400020203460812760207B20EA0800BC
:10411000207384F80D90207B203C00F0080068B9E3
:1041200094F832000B49097808430A4908700A4894
:10413000805D94F831100843074988552946204688
:1041400000F00FF8504600F009B80000D8690008E8
:1041500024280020B8010020B901002030BCBDE8AF
:10416000C08F10B590F8302001F10B039B5C90F8E4
:104170003140A34301F10B04A35423469B5C23B9B4
:104180008B7A90F83240A3438B7210BD10B51B4A56
:104190001268D061194A126892F8303000F10B02AF
:1041A000D25C164B1B6893F831301A43134B1B68D3
:1041B00093F8304000F10B031A55827A0F4B1B68BD
:1041C00093F832301A4382720C4A126892F8301017
:1041D0000B4A525C094B1B6893F831309A43084BE9
:1041E0005A541A46525C42B9044A126892F8323064
:1041F000044A12789A43034B1A7010BDC401002080
:10420000B9010020B80100200023837200F10B01E6
:10421000002204E0002301F8013B531CDAB2042A17
:10422000F8DB704770B58C210F4800F0F9F80E4CA0
:1042300004F11C0600250AE00020207066603F2083
:10424000A0720021E1721C341C36681C85B2042D5A
:10425000F2DB0020207060603F20A0720021E1723C
:1042600001480249086070BD98250020B001002077
:1042700030B501464A6808682AB9CC68606028B140
:104280000025456002E0106000B142608B680025A7
:104290005D6230BD30B54FF4A071104800F0C0F839
:1042A0000E4B03F1200500240AE0002018705D6029
:1042B0003F20D8730021197420332035601C84B24C
:1042C000092CF2DB0020187058603F20D8730021C1
:1042D000197402480249086030BD000058240020CB
:1042E000AC01002000200749086007490870074911
:1042F00008700749087007490870074908600749AE
:1043000008607047D8010020B4010020B5010020EA
:10431000BE010020BD010020A8010020C001002036
:1043200000220B4B1A700B49002004E0002201F818
:10433000012B421CD0B20428F8DB0022064B1A7075
:10434000064B1A70064B1A60064B1A607047000045
:10435000B8010020B9010020B6010020B7010020FB
:10436000CC010020C401002030B54FF4E7611448AF
:1043700000F056F88021134800F052F8104B03F17A
:10438000580500240AE05D613F2083F848000021C1
:104390004920C15458335835601CC4B2142CF2D390
:1043A000002058613F2083F8480000214920C15473
:1043B00000200549086002480449086030BD00003B
:1043C000A428002024280020D0010020C8010020BB
:1043D00000B587B00320002180220A4BCDE90132CD
:1043E000CDE903104FF6FF701F23074A00900748DE
:1043F000FFF774FB06AA06A11F20FFF77BFC07B09E
:1044000000BD0000242600202028002029460008A6
:1044100075432F4F532D49492049646C65000000B6
:1044200004E0002200F8012B4A1E91B20029F8DCBA
:104430007047000010B50024FBF7C4FE0446134883
:104440000078F0B912480078D8B900F02DF811487A
:10445000007811490978884213D010480D4909782D
:1044600050F821000E49086008460068406B401C67
:10447000096848630B480068401C0A490860FBF75C
:10448000B8FE2046FBF7A2FE10BD0000B4010020DC
:10449000B5010020B7010020B6010020242800202B
:1044A000CC010020A80100200649074A1278885C48
:1044B0000649095C034A515C01EBC001044A1170D2
:1044C00070470000D8690008B8010020B901002039
:1044D000B70100200246002005E011F8013B02F878
:1044E000013B431CD8B20B78002BF6D113707047F8
:1044F0000146002002E0491C421CD0B20A78002A82
:10450000F9D170472DE9F84F05460E4617469846F3
:10451000DDE90BABDDF8289000200090FBF752FEA0
:10452000009039480468002C69D054F8140F3649BB
:1045300008600098FBF74AFE44F8146CA57600204A
:1045400020766076E08244F810AC44F8089C44F889
:104550000C7C24F804BC24F8028CE077E810207767
:1045600005F00700E076217F01208840A077E17EFA
:104570000120884060770020A0602061E060206218
:10458000A0626062E06220633F2084F83400143C43
:104590000021492001552046FFF748FA2046FFF741
:1045A000F8FAFBF70FFE0090184840F8254018482D
:1045B000006860610020A0611548006810B11448CF
:1045C00000688461124804603034A0781149097889
:1045D00008431049087020780F49085C6178084347
:1045E00014F830190C4A50540C480078401C0B4900
:1045F00008700098FBF7EAFD002000F011B8009861
:10460000FBF7E4FD4220F8E7C80100202428002041
:10461000D0010020B8010020B9010020BE01002017
:1046200018BCBDE8E08F0000002400BFFBF7CAFD06
:10463000044605480068401C034908602046FBF713
:10464000C5FDFFF756FBF1E7C0010020F8B50446B1
:1046500000262348806D00F0805018B1FDF7D4FC8F
:10466000054616E000BF1E48806D40F080501C4992
:1046700088650846806D00F08050009000BF00BF44
:10468000FDF7C2FC05461648806D20F080501449A5
:104690008865B5F5007F07D1802C10D9A02C01D9F1
:1046A00002260CE001260AE0802C01D9032606E050
:1046B000802C01D1022602E0702C00D1012609488D
:1046C000006820F00700304306490860084600688B
:1046D00000F00700B04201D00120F8BD0020FCE747
:1046E000001002400020024070B504460D46064806
:1046F000FEF769FB291B491CB0FBF1F201FB12001C
:10470000204480B270BD0000E423002010B50348AF
:10471000034908600846FEF762FB10BD000806501A
:10472000E42300201FB50020009001900290039028
:104730001748006840F4004015499039C1F89000CE
:10474000144815490860002088607F211248C16024
:10475000FF2101614FF4C001416100218161C1610C
:104760000162FEF769FB08B1FDF726F90B480090DE
:1047700001200190029069460948FDF7B1F9002235
:1047800002210320FDF7A5FB0320FDF795FB1FBDCC
:104790009010024000280040F42300201400001272
:1047A0008401002070B504462068C06800F0400015
:1047B000B8B92068C06840F080002168C860FDF783
:1047C00017FB054607E0FDF713FB401BB0F57A7FAA
:1047D00001D9032070BD2068C06800F040000028A7
:1047E000F1D00020F6E7000010B5FEF7C9FF0B4836
:1047F0000068006D00F0040018B104200749096842
:10480000C86501210648FDF759F904214FF0904091
:10481000FDF7E4FAFEF7CEFF10BD0000F423002000
:1048200084010020F0B50446059E6EB100251846AF
:1048300007E017187F1ECF5D67556F1CFDB2471E3E
:10484000F8B20028F5DC08E0002004E015184D5D02
:104850002554451CE8B29842F8DBF0BD2DE9F0473D
:104860008046894617461E460024FDF77BF882469F
:1048700010204FF09041886200BF1AE000BF23482B
:10488000806800F002000028F9D0172519F804000C
:104890001E49087302E06D1E05B92BE01B488068B5
:1048A00000F001000028F6D01848C0683070601C85
:1048B00084B24445E2DB002412E0172500201349AE
:1048C000087302E06D1E05B914E01048806800F01E
:1048D00001000028F6D00D48C0683055601C84B235
:1048E000BC42EAD310204FF0904188615046FDF75A
:1048F00032F800BF3DB9002403E000203055601CB1
:1049000084B2BC42F9D30020BDE8F08700300140FA
:1049100000B585B014216846FBF7F0FC0820009034
:1049200001200190022002900320039069464FF07D
:104930009040FDF775F9002208214FF09040FDF7F7
:1049400051FA082000900020019001200290694651
:104950004FF09040FDF764F9022001F091FB05B0A3
:1049600000BD000001460020044A126890B24FF6D4
:10497000C77210400843014A106070470030014080
:1049800000B50820FFF7EEFF00BD00B52020FFF7BF
:10499000E9FF00BD7047000010B5FEF7F1FEFFF71C
:1049A00023FBFDF72BFA0F480078B0B9FDF720FA8A
:1049B00004460D480078012806D10C48006884425E
:1049C00002D101200A4908700A480068844203D1D4
:1049D00009480068FEF7DAFF00BF00BFFEF7EAFEF5
:1049E00010BD00001800002012010020140100205A
:1049F00013010020180100207000002000B5A3B0B2
:104A0000442112A8FBF77AFC14210DA8FBF776FCD1
:104A100034216846FBF772FCFDF70CFD4FF4007083
:104A2000FDF7ACFA08B1FCF7C7FF10201290012087
:104A3000199000201A9060201B9002201D900121E7
:104A40001E911F91482112A881630621C163042190
:104A50000164FDF7F3FD08B1FCF7AEFF0F200D90E8
:104A600003200E9000200F904FF4806010900020E3
:104A7000119004210DA8FDF721FC08B1FCF79CFF63
:104A800008480090002001904FF400700C908004C2
:104A90000B906846FDF7C0FA08B1FCF78DFF23B014
:104AA00000BD0000014006000D48006840F0010014
:104AB0000B490860002088600846006809490840E2
:104AC000074908608814C8600846006820F4802000
:104AD000086000208861C80303490860704700002F
:104AE00000100240FFFFF6EA08ED00E070B54FF05D
:104AF000FF360820FCF7BCFB0120FCF769FD002114
:104B00005348FCF78EFD9620FCF7ADFD40F68C2057
:104B1000FCF7C4FD00224F490C20FCF7F2FE0022F6
:104B200011460C20FCF700FF0220FCF73FFE46B2C6
:104B300000BF00210F20FCF792FC4749086047495D
:104B400008400028F5D04448008800F48040002840
:104B50006ED04FF4814200210F20FCF780FE00212F
:104B60001020FCF77CFC00F07F04372C04DC0022D2
:104B700021463B48FCF7CCFC3948407A0C2856D1FA
:104B8000FCF785FF374A03C2FCF76BFF364A03C2C6
:104B90003548D0E900204FF0C873D21840F100002A
:104BA000010641EA12252846FCF72AFD25F00100FE
:104BB0000021090241EA1061020244F23803D218CE
:104BC00041F100012948C0E9002126480CC82848C5
:104BD000FCF73AFF24480CC82548401DFCF734FF79
:104BE00022480CC822480A30FCF72EFF21480078E2
:104BF0001F490A39887000221B20FCF782FE01221F
:104C000000211B20FCF790FE0120FCF7CFFD46B2EF
:104C100000BF00210F20FCF722FC00F080000028DC
:104C2000F7D0802200210F20FCF719FE00BF06E01C
:104C3000114A00210F20FCF712FEFCF7B4FC002003
:104C4000FCF7C6FCFCF734FB0020FCF711FB70BD41
:104C500000D023047A000020D000002000D02704D8
:104C6000D01E0020D8000020E0000020E800002036
:104C70009F000020CC0000208090270410B5002465
:104C800009E006214FF09040FDF7A8F86420FFF7F7
:104C900073F9601CC4B20A2CF3DB10BD10B586B0EA
:104CA00004464C494C4802680A6042684A60806881
:104CB0008860FDF7ABF8FFF7A1FEFEF721FBFEF7DA
:104CC000B7FBFFF723FDFFF72DFDFEF737FCFEF7DF
:104CD000FFFB4248007820B94FF416714048FCF7BA
:104CE00045FDFFF715FEFFF750FE0120FCF70CFB1A
:104CF000401C48B910233BA202210020FEF7EAFC29
:104D000001E0FCF759FEFCE7FFF73AFE3148FCF7FB
:104D100059F93248007820B9072141F6C810FCF74C
:104D200085FA3348006840680021314A12681268E9
:104D30000B46114318432F4AC2E902102748007856
:104D40001146087044F23800FCF79FFC44F238002A
:104D5000FCF7D4FC2748D0E90210274AC2E900102A
:104D600026480088FCF777FC2348FCF751FC1B23FE
:104D7000234A00212348FEF75BFE1848007880B9DB
:104D8000032000214FF480721F4BCDE90132CDE9A1
:104D90000310062003461D4A00901D48FEF79EFEA4
:104DA00013E00E48007801280FD1032000214FF4B2
:104DB0008072184BCDE90132CDE90310072003467C
:104DC000154A00901548FEF789FEFF20FEF7E2FE27
:104DD00006B010BD340400201A0000201800002086
:104DE000DC0100204661696C65642E2E2E000000F7
:104DF00098010020000000206000002058000020E2
:104E00003C16002069310008400A00203C0E0020BA
:104E1000654F0008400E00203C120020214E000883
:104E20000EB500254249088AFCF7C9FB0020022381
:104E300007223F49103100903E4800F0EBF9002076
:104E4000022307223A49103100903B4800F0E2F972
:104E50003748028A39A101A800F070FB102339A25B
:104E600000210846FEF736FC102301AA002130205D
:104E7000FEF730FC00BF0020FCF710FC0121344895
:104E8000FCF7CFFB0020FCF760FBFF20FFF71EF8CC
:104E900000210F20FCF7E3FA2E49086000F480405F
:104EA00000283DD04FF4804200210F20FCF7D7FCB2
:104EB00000211020FCF7D3FAC0F30904372CDADC08
:104EC000002221462448FCF723FB2348008823497D
:104ED00008800846008800F44C400028CBD10846E2
:104EE000007800F0070040B91B48C0790F2803D1B3
:104EF0001948FBF7A5FC00BFBDE7174840791649E4
:104F0000897940EA01250A48008AA842B3D11248AB
:104F1000407A0B2803D11048FBF7D2FC00BFAAE768
:104F20000F4A00210F20FCF79AFCFCF73CFBA2E79C
:104F3000000000207101002062010020253034644F
:104F400000000000416E6349443A20202020000008
:104F500000D0230458010020D0220020500100205E
:104F6000009027041FB59349088AFCF728FB00200E
:104F7000022307228F49103100908F4800F04AF930
:104F80000020022307228B49103100908B4800F04B
:104F900041F90020022305228649103100908848FB
:104FA00000F038F98348028A86A102A800F0C6FA08
:104FB000102386A200210846FEF78CFB102302AACC
:104FC00000213020FEF786FB0020FEF73BFC8149E4
:104FD0000860FFF753FE80480088FEF7CDFF0823E6
:104FE0007E4A00217E48FCF7F9FC7C4903C9C00FCA
:104FF00040EA4100CD0F0123014619400020414005
:10500000404001430CD0754903C99B1E584059408C
:10501000084305D00120FEF715FC7249086004E042
:105020000120FEF70FFC6F49086000BF6E48007852
:1050300018B16E480078012813D101AA00216948EF
:105040000068FEF72BFC6948007818B9FCF7D0FE21
:10505000643004E0FCF7CCFE41F288310844644936
:10506000086002214FF09040FCF7B8FEFEF788F888
:1050700001287BD1FBF740FF00285ED05B48007819
:10508000012806D15A480068A0F59850243858499C
:105090000860002054490870544908705548008839
:1050A000022808DA00205449088052480078C01CC1
:1050B0005249087017E04F480088FD280BDD4D4825
:1050C0000088801E4C4908804A480088C0F58170DD
:1050D0004A49087007E047480088801E4649088012
:1050E000052046490870002522E0434800882844EE
:1050F0004349088000200223052200902E4800F03A
:1051000089F80020022305223D4900902B4800F039
:1051100081F8002608E0FFF7E9FC002E02DA022001
:10512000FEF72AFF701CC6B2012EF4DB681CC5B264
:10513000324800788542D8DB78E72B48007848B9B8
:10514000012029490870FCF753FE41F288310844D8
:105150002C490860254800780028EDD12A480088AD
:105160001921B1EB400F02DC192003E01DE02648B5
:10517000008840002449088008460088192803D187
:1051800022480088401C01E0204800881F49088010
:105190001D4801880020FFF7A7FA04464FF6FF716B
:1051A00001EA8400FEF7E8FE40E76420FEF7E4FE33
:1051B0003CE70000000000207A000020950000205D
:1051C000B0000020253034640000000054616749BD
:1051D000443A00007400002078000020F000002015
:1051E00000F80108700000201201002013010020C7
:1051F000180100201C0100201E01002022010020B7
:1052000020010020140100201001002026010020B0
:1052100000BFFEE7F0B50446059E7EB100251846A6
:1052200009E011F805C017187F1E04F807C06F1CAD
:10523000FDB2471EF8B20028F3DC08E0002004E0CD
:105240000D5C1718E555451CE8B29842F8DBF0BD37
:105250002DE9F04705460E46174698460024FCF710
:1052600081FB824610204FF09041886200BF16E01B
:1052700000BF1F48806800F002000028F9D0305DB0
:105280001B49087300BF1A48806800F0010000281D
:10529000F9D01748C06800F0FF09601C84B2AC4226
:1052A000E6DB002417E000BF1148806800F0020030
:1052B0000028F9D018F804000D49087300BF0C4805
:1052C000806800F001000028F9D00948C06800F0AB
:1052D000FF09601C84B2BC42E5D310204FF090411E
:1052E00088615046FCF737FB0020BDE8F0870000DE
:1052F000003001402DE9F04105462C4600224021B6
:105300001348FCF76FFD00261DE0274607F08007D5
:10531000802F05D1012280210D48FCF763FD04E0B8
:10532000002280210A48FCF75DFD6006040E012280
:1053300040210748FCF756FD002240210448FCF7B5
:1053400051FD701CC6B2082EDFDBBDE8F081000005
:105350000004004810B50446FDF7CCFE7820FFF7A6
:10536000C9FFFDF7F3FE0020FFF7C4FFFDF7EEFED7
:105370002046FFF7BFFFFDF7E9FEFDF7D3FE10BDA6
:1053800010B50446FDF7B6FE7820FFF7B3FFFDF732
:10539000DDFE4020FFF7AEFFFDF7D8FE2046FFF709
:1053A000A9FFFDF7D3FEFDF7BDFE10BD10B5044605
:1053B0006D2240F606012E20FCF765FA3CB140F262
:1053C000076241F606012E20FCF738FA06E041F2AA
:1053D000076241F606012E20FCF730FA10BD38B501
:1053E00004466B46022200213620FCF75FF80F2CA2
:1053F0005FD2DFE804F012081B5E5E5E5E24335E5F
:105400005E40474E570000208DF800009DF80100D7
:1054100000F0FE008DF801004CE09DF8000000F067
:10542000FC0040F001008DF8000043E09DF8000012
:1054300000F0FC0040F002008DF800003AE09DF81A
:10544000000000F0B30040F048008DF800009DF827
:10545000010040F080008DF801002BE09DF8000075
:1054600000F0B3008DF800009DF8010000F07F000F
:105470008DF801001EE09DF8010040F002008DF85B
:10548000010017E09DF8010000F0FD008DF801001B
:1054900010E09DF8000000F0CF0040F020008DF8F3
:1054A000000007E001208DF8000003208DF80100C6
:1054B00000E000BF00BF6B46012200213620FCF750
:1054C000ECF90DF10103012211463620FCF7E5F954
:1054D00038BD10B50E20FFF782FF4FF400420621C1
:1054E0002D20FCF7ABF90120FBF766FD0120FFF74B
:1054F00076FF10BD70B50446A2B204212D20FCF742
:105500009DF9032206212D20FCF7BDF9002206217A
:105510002D20FCF7B8F90A212D20FBF7A0FF054646
:10552000284670BD10B5002202212C20FCF7ABF9F3
:10553000022211462C20FCF7A6F910BD0FB4084B2F
:1055400010B504A902AA039800F0EEF8044602A9D7
:10555000002000F083FC204610BC5DF814FB000026
:105560005D5E000837B514460846064B6A4621467C
:1055700000F0DAF804466946002000F06FFC20468F
:105580003EBD00005D5E000802E008C8121F08C1B1
:10559000002AFAD170477047002001E001C1121FB4
:1055A000002AFBD1704710B50020FFF718FF00223A
:1055B00004213620FCF742F910BD00002DE9FF5F01
:1055C000DDE90220010DDDF838B0024318D044F6C1
:1055D0001050A1F2FF3141430D140F98012820D043
:1055E000A5EB0B00401C5FEA000A4FF00004474E99
:1055F000DFF81C91A046504616D5CAF1000728E0F6
:105600000F98012443A2012808D0002100980F9B85
:10561000C0E90021C0E9024300F082B86FEA0B0143
:10562000F4E7CBF10000DEE7074612E0F80707D009
:105630002246334640464946FAF71AFF80468946D5
:105640002246334610461946FAF712FF04460E4624
:105650007F10002FEAD1DDE90201BAF1000F4246C6
:105660004B4602DAFAF704FF01E0FAF776FF044648
:105670000E460022284BFBF78DF803D84FF0FF3081
:10568000014607E00022254B20463146FAF741FE4D
:10569000FBF767F8102409E0002C0ADB0A2200233C
:1056A000FAF7E2FD019B30321A55641E50EA0102FE
:1056B000F2D1641C019AC4F1110314440F9A012A17
:1056C00003D0012208430DD10AE0084304D0002092
:1056D0004FF0110B0F9080E7A3EB0B056D1E0DE053
:1056E0005B4504DD4FF0000205F1010504E003DA3B
:1056F0004FF00002A5F10105002AECD000980F99A7
:10570000C0E90231C0E9004586E7000000002440FE
:105710000000F03F300000000000F0430000E03FD8
:105720003FBCBDE8C09F00002DE9FF4F95B09B46F0
:105730008946064600250FE2252877D10024274612
:10574000F84A0121059400E0044316F8013F203B8C
:1057500001FA03F01042F7D130782A2811D06FF007
:105760002F033078A0F13002092A16D8059A44F0A8
:10577000020402EB820203EB42021044761C059005
:10578000EFE759F8042B0592002A03DA504244F45B
:105790000054059044F00204761C30782E2816D16F
:1057A00016F8010F44F004042A280DD06FF02F02E0
:1057B0003078A0F13003092B09D807EB870302EBFF
:1057C0004303C718761CF3E759F8047B761C30783E
:1057D0006C280FD006DC4C2817D068280DD06A281A
:1057E00014D104E0742810D07A280FD10DE044F4CD
:1057F00000140AE044F4801401E044F44014727888
:10580000824202D104F58014761C761C307866281A
:105810000BD013DC582877D009DC002875D0452838
:10582000F6D04628F4D047281AD19DE118E0632825
:1058300035D0642879D0652812D195E1702873D0CD
:1058400008DC6728F1D069286FD06E280DD06F284A
:1058500006D1B5E073282CD0752875D0782874D07F
:105860005A46179990476D1C75E1C4F302500228FF
:1058700009D003280DD0D9F8001004280DD00D60F0
:1058800009F1040967E1D9F80010EA17C1E90052EB
:10589000F6E7D9F800100D80F2E70D70F0E719F87F
:1058A000041B8DF8001000208DF80100EA4601204D
:1058B00003E059F804AB4FF0FF3061074FF00001EF
:1058C00002D40DE008F101018846B9420FDA8045A3
:1058D000F8DB1AF808100029F4D108E008F10101FA
:1058E00088468142FADB1AF808100029F6D105989B
:1058F0005B46A0EB080721463846179A00F097FA56
:10590000284400EB080507E04DE029E10DE01AF816
:10591000010B5A4617999047B8F10108F7D25B4638
:1059200021463846179A13E142E00A220092C4F356
:1059300002524FF0000A022A08D059F804CB032A79
:105940004FEAEC710AD00DE029E02AE009F10701E5
:1059500021F00702F2E802C1914609E00FFA8CFC3F
:105960004FEAEC71042A03D14FFA8CFC4FEAEC7138
:10597000002907DA0A460021DCF1000C61EB020184
:105980002D2202E0220504D52B228DF804200122CD
:1059900003E0E20701D02022F7E7904659E00A2110
:1059A00002E010220DE010214FF0000A00910BE000
:1059B00010224FF0000A44F004040827009203E08C
:1059C00008224FF0000A0092C4F30252022A05D0C6
:1059D00059F804CB0021032A08D009E009F1070196
:1059E00021F00702F2E802C1914605E01FFA8CFCA3
:1059F000042A01D10CF0FF0C4FF00008220728D533
:105A0000702806D0009B83F0100353EA0A0305D0E8
:105A10000EE040228DF80420012208E05CEA010239
:105A200006D030228DF804208DF805000222904621
:105A3000009B83F0080353EA0A030AD15CEA0102DF
:105A400001D1620705D530228DF804204FF00108FE
:105A50007F1E582804D034A003900EA802900DE0B9
:105A600036A0F9E753466046009AFAF7FDFB8446F4
:105A70000398825C0298401E029002705CEA01006A
:105A8000F0D1029806A9081A00F1200A600702D591
:105A900024F4803400E00127574502DDA7EB0A001B
:105AA00000E0002000EB0A01009005984144401AF4
:105AB0000590E00306D45B462146179A059800F04E
:105AC000B6F90544002706E001A85A46C05D1799BB
:105AD00090476D1C7F1C4745F6DBE0030CD55B4609
