:020000040800F2
:10000000683B0020A101000825300008512C0008A1
:1000100021300008D90C0008A14C000800000000A5
:1000200000000000000000000000000095430008F0
:10003000F1170008000000000702000899430008BB
:10004000BB010008BB010008BB010008BB010008A0
:10005000BB010008BB01000817180008BB0100081D
:10006000BB010008BB010008BB010008BB01000880
:10007000BB010008BB010008BB010008BB01000870
:10008000BB010008BB010008BB0100080000000024
:10009000000000000000000000000000BB0100089C
:1000A000BB010008BB010008BB010008BB01000840
:1000B000BB0100080000000000000000BB010008B8
:1000C000BB010008BB010008BB010008BB01000820
:1000D000BB010008D9470008BB010008BB010008AC
:1000E000BB010008BB010008000000000000000088
:1000F0000000000000000000000000000000000000
:1001000000000000000000000000000000000000EF
:100110000000000000000000BB010008000000001B
:10012000BB010008BB010008BB010008BB010008BF
:10013000BB010008000000000000000000000000FB
:10014000BB010008BB010008BB010008BB0100089F
:10015000BB010008BB010008BB010008BB0100088F
:10016000BB010008BB010008000000000000000007
:1001700000000000BB0100080000000000000000BB
:10018000BB010008BB010008BB010008DFF80CD070
:1001900000F00AFB00480047095B0008683B0020AC
:1001A0000648804706480047FEE7FEE7FEE7FEE711
:1001B000FEE7FEE7FEE7FEE7FEE7FEE7A1440008F4
:1001C0008D010008EFF3108072B6704780F310883D
:1001D00070471D484FF0FF010170002080F309882F
:1001E0001A48012101701A484FF08051016062B62F
:1001F000FEE717484FF080510160704714484FF0F8
:1002000080510160704772B6EFF3098028B1203841
:1002100080E8F00F0F490968086000B50E48804774
:100220005DF804EB0D480E490A78027009480D4943
:100230000A680260106890E8F00F203080F30988A7
:100240004EF0040E62B6704722ED00E07901002006
:1002500004ED00E080010020C53A00087201002092
:1002600073010020880100202DE9F05F0546002081
:1002700092469B4688460646814640241BE0284617
:1002800041464746224600F0DFF953465A46C01A17
:10029000914110D311461846224600F016F82D1A47
:1002A00067EB01084F4622460120002100F00DF8BF
:1002B00017EB00094E41201EA4F10104DFDC484683
:1002C00031462A464346BDE8F09F202A04DB203A07
:1002D00000FA02F1002070479140C2F1200320FA99
:1002E00003F3194390407047D2B201E000F8012BAC
:1002F000491EFBD270470022F6E710B513460A46A6
:1003000004461946FFF7F0FF204610BD2DE9FE4FC9
:10031000804681EA0300C00F0C46009021F00041A6
:1003200023F00045B8EB0200A94105D24046214622
:1003300090461C460B46024623F00040104347D02F
:10034000270DC7F30A00C3F30A510290401A019027
:1003500040286BDAC3F3130040F4801B00989246E8
:1003600020B10023D2EB030A63EB0B0B0198594633
:10037000C0F140025046FFF7A8FF06460D46504622
:100380005946019A00F070F910EB08006141002411
:1003900087EA115284EAE7731A4340D0009A62B3A5
:1003A000019A012A4FEA075215DC001B61EB02019A
:1003B0004FF0004202EA0752CDE90042001C41F52D
:1003C000801132462B4600F070F903B0BDE8F08F83
:1003D00040462146F9E7001B61EB0201001C41F594
:1003E000801300185B412018A2F5001747EB0301AA
:1003F00040EAD570B6196D4111E06D084FEA360636
:1004000045EAC0754FEA0752001B61EB0201001C70
:1004100041F5801149084FEA300000195141324638
:100420002B4603B0BDE8F04F00F030B90098012230
:1004300040000023D0EB020263EBE07300982146FA
:100440004FEAE074B8EB000061EB0401E9E783F0E8
:1004500000435BE781F0004158E72DE9FE4F81EA58
:10046000030404F0004421F0004100944FF0000B1D
:1004700023F0004350EA01045ED052EA03045BD04B
:10048000C3F30A54C1F30A552C44A4F2F334019483
:10049000A0FB0254C1F3130141F48011C3F3130311
:1004A00043F4801301FB024400FB034E840A970AC5
:1004B00044EA815447EA8357A4FB076802958D0AF2
:1004C00005FB07854FEA932C04FB0C542705029D7E
:1004D0004FEA065847EA1637B5EB08056EEB070CEE
:1004E000870E920E47EA811742EA8312A7FB0201A8
:1004F000B6EB0B0164EB00042B0D43EA0C335E18E2
:1005000044EB1C50DA465146E7FB0201C5F31304E5
:100510004FEA0B3343EA14534FEA0432019C43EA97
:100520000603A4F10C040294009CCDE900B400F091
:10053000BCF803B0BDE8F08F00200146F9E72DE9D3
:10054000F04D81EA030404F0004B21F0004514460D
:100550004FF0000A23F0004150EA050220D054EA8F
:1005600001021DD0C5F30A570246C5F31303C1F3B8
:100570001300C1F30A5640F4801543F48013A7EB2F
:100580000608101BD64608F2FD3873EB050002D3AF
:1005900008F1010801E092185B41B8F1000F03DA9D
:1005A00000200146BDE8F08D00204FF48011064682
:1005B00084460EE0171B73EB050705D3121B63EB94
:1005C000050306434CEA010C49084FEA3000921833
:1005D0005B4150EA0107EDD152EA030012D082EAF2
:1005E000040083EA0501084305D0101BAB4106D285
:1005F0000122002306E000224FF0004302E06FF0EA
:10060000010253101AEB06004CEB085110EB0A00E4
:1006100041EB0B01BDE8F04D00F038B830B50B46AA
:10062000014600202022012409E021FA02F59D4222
:1006300005D303FA02F5491B04FA02F52844151EF6
:10064000A2F10102F1DC30BD202A04DB203A21FABC
:1006500002F00021704721FA02F3D040C2F12002DB
:100660009140084319467047202A06DBCB17203AF1
:1006700041FA02F043EAE07306E041FA02F3D040A7
:10068000C2F12002914008431946704710B5141E6C
:1006900073F1000408DA401C41F1000192185B413B
:1006A0001A4301D120F0010010BD2DE9F04D924612
:1006B0009B4611B1B1FA81F202E0B0FA80F2203229
:1006C0009046FFF702FE04460F4640EA0A0041EA60
:1006D0000B0153465A46084313D0114653EA010012
:1006E00019D0C8F140025046FFF7AEFF05460E464E
:1006F000504659464246FFF7E8FD084305D0012021
:1007000004E020463946BDE8F08D0020054346EA66
:10071000E0762C4337430A986305E40AA0EB08000F
:100720000022FD0A44EA47540A3002D5002001465F
:10073000E9E7010510196941DDE90845001969413A
:10074000BDE8F04DA2E7C1F30A52C1F3130140F234
:10075000FF3341F480119A4202DA002001467047CB
:1007600040F233439A42A2F2334202DC5242FFF794
:100770006BBFFFF7AABD000030B5041E71F1000485
:1007800004DB4FF00044404264EB0101141E73F19E
:10079000000405DB1C464FF00043524263EB0403A8
:1007A000994208BF904230BD064C074D06E0E06814
:1007B00040F0010394E8070098471034AC42F6D3A8
:1007C000FFF7E8FCA0650008C065000870B58C184C
:1007D00010F8015B15F0070301D110F8013B2A1155
:1007E00006D110F8012B03E010F8016B01F8016B42
:1007F0005B1EF9D12B0705D40023521E0DD401F83E
:10080000013BFAE710F8013BCB1A921C03E013F806
:10081000015B01F8015B521EF9D5A142D8D300203B
:1008200070BD00002DE9F04204464FF0FF3902236D
:100830000522611D1B4804F035FA01F050F8054609
:100840000E464FF09672AA1846F10000010641EAE2
:100850001227384600F04AFE002212490C2000F010
:100860009EFF012200210C2000F0ACFF04E00120DB
:1008700000F0F2FE4FFA80F9B9F1000FF7D100BF96
:1008800000210F2000F061FD0749086000F08000A2
:100890000028F5D0F82200210F2000F02EFFBDE83F
:1008A000F082000057000020000100202DE9F043F5
:1008B00093B004464FF0FF38082000F04FFC0120B1
:1008C00000F0FCFD02230722214612A803F0CCFC15
:1008D0000223052212A9CD4804F0E4F902230722DD
:1008E00012A9CB4804F0DEF900F0F9FFC94A03C2AF
:1008F000C848D0E900104FF0A573C91840F10000B6
:10090000020642EA1125284600F0F0FD962000F08C
:1009100020FE4FF42F7000F037FE0022BB490F205D
:1009200000F03DFF012200210F2000F04BFF0320CB
:1009300000F092FE4FFA80F800BF00210F2000F077
:1009400004FDB5490860B54908400028F5D0B24813
:10095000008800F4804000287ED04FF481420021BE
:100960000F2000F0CAFE0021102000F0EEFC00F085
:100970007F00AB4908800846008837286DDC0022DC
:1009800008460188A74800F039FDA648407A0D289E
:100990007ED102214FF0904001F0E0F8A24800889B
:1009A000401CA149088000F0B0FFA04A03C200F03B
:1009B00096FF9F4A03C210A99A480A3000F05CFFD4
:1009C0000EA998480F3000F057FF0CA99548143035
:1009D00000F052FF0AA89649089003C9CDE9060124
:1009E000DDE90C01CDE90401DDE90E01CDE90201EB
:1009F0008E4803C8CDE9000186480CC8DDE9100126
:100A000004F070FF0A9880B28A49086008460068BE
:100A1000C82802DD084600680860BDF8480000F0FC
:100A200039F985490870084690F90000401C0028F3
:100A30007ED0084690F90000804991F90010884264
:100A40001BD07E4890F90000C0EBC0007C4901EB50
:100A50004000007B88B901E0BCE0CCE0774890F929
:100A60000000401C48B1754890F9000000F036F9CC
:100A700074480068401C7349086000206E4991F971
:100A80000010C1EBC1016E4A02EB4101087300E0A6
:100A900095E0694890F9000068490870BDF8480081
:100AA000654991F90010C1EBC10122F811006148BC
:100AB000008881B2604890F90000C0EBC00002EBF2
:100AC0004000801C5C4A92F90020C2EBC2025C4BE1
:100AD00003EB4202927A20F81210574890F9000076
:100AE000C0EBC000194601EB4000807A401CC0B248
:100AF000514991F90010C1EBC1011A4602EB4101C5
:100B00008872032809D14C4890F9000000F0E6F8FB
:100B10004C480068401C4B4908604A4800680A2855
:100B20004CD302F09DFA032004F0D6FF064600E005
:100B300044E0012004F0D0FF0746012004F0CCFF80
:100B400081464B4640A200210846CDE9007602F0DE
:100B500098FB052004F0C0FF0646042004F0BCFF0B
:100B600007463B463DA201210020009602F089FB8A
:100B7000082004F0B1FF0646072004F0ADFF074649
:100B8000062004F0A9FF81464B4637A2022100202F
:100B9000CDE9007602F075FB0A2004F09DFF0646C1
:100BA000092004F099FF07463B4634A203210020A8
:100BB000009602F066FB0020224908601BE01A48FC
:100BC0000088401C1849088030480088401C2F4984
:100BD000088010E02E4A00210F2000F08EFD00F06A
:100BE00058FC11480088401C0F490880274800889D
:100BF000401C26490880002000F060FC00F0CEFA7E
:100C0000002000F0ABFA13B0BDE8F0833000002004
:100C10003F000020C00000200001002000D0270479
:100C20004A010020300200204C010020C8000020B2
:100C3000D0000020F40000200C0000200D00002057
:100C400098010020F8000020313A25336420323A20
:100C5000253364333A25336400000000343A2533E9
:100C60006420353A25336400363A25336420373A18
:100C7000253364383A25336400000000393A2533BF
:100C8000642031303A253364000000004E0100201A
:100C90000090272410B502464FF0FF33002115E0E5
:100CA000C1EBC1000B4C34F81000904201D1084652
:100CB00010BDC1EBC100074C04EB4000C07A08B97D
:100CC000084600E018460346481C41B20A29E7DB03
:100CD0001846EDE79801002000BFFEE738B504464E
:100CE000002515E0C4EBC400444901EB4000801C22
:100CF00030F81500C4EBC401404A02EB41010989F8
:100D00000844C4EBC40102EB41010881681CC5B270
:100D1000C4EBC400394901EB4000807AA842E1DC11
:100D2000C4EBC40001EB40000189C4EBC400334AAA
:100D300002EB4000807A401C91FBF0F0C4EBC40150
:100D400002EB410108810020C4EBC40102EB410128
:100D500088720120C4EBC40102EB41010873C4EBAB
:100D6000C400114601EB40000089254909888842EA
:100D700013DAC4EBC400114601EB4000C07A60B93D
:100D80000120C4EBC40102EB4101C8721D48007888
:100D9000401C40B21B4908702FE0C4EBC400174947
:100DA00001EB4000008916490988884225DDC4EB23
:100DB000C400124901EB4000C07A01281DD1002077
:100DC000C4EBC4010D4A02EB4101C8720D48007822
:100DD000401E40B20B490870002801DA002008705C
:100DE000084890F9002008A1684604F0EDF81023A7
:100DF0006A460221382002F01BFA38BD9801002013
:100E0000240100202601002025303264000000006B
:100E100010B5962000F09DFB4FF4FA7000F0B4FB83
:100E2000002225490A2000F0BAFC012200210A20F4
:100E300000F0C8FC022000F00FFC00BF00210F20D2
:100E400000F083FA1D4908601D4908400028F5D0CC
:100E50001A48008800F4804020B34FF480420021FB
:100E60000F2000F04AFC0021102000F06EFAC0F3C1
:100E700009001449088008460088B0F5806F18DC26
:100E8000002208460188104800F0B8FA0E48407A5F
:100E900010280ED1022307220B490C4803F0E4F975
:100EA000012010BD0A4A00210F2000F026FC00F0AE
:100EB000F0FA0020F5E70000990000200001002072
:100EC00000D027044A010020300200201001002039
:100ED000F890272410B50446204604F033FE10BDD8
:100EE0002DE9F05F04464FF00009CA462578607985
:100EF000864931F810806078401EC6B2042D01D0BA
:100F0000072D01D1012000E000208346E07950B98F
:100F10007F480068406940F480007D490968486165
:100F20004FEAE80807E07A480068406920F480004A
:100F3000774909684861207A7549096808727448D8
:100F40000068406920F44030714909684861704880
:100F500000684069217A4FF4403202EA01410843B7
:100F60006B49096848616A480068002142690420A9
:100F700000F0C3FB424642F604012E2000F0ACFB19
:100F8000304603F049FF634800F0DAF86248405DFC
:100F9000624951F8202007212B2000F0AEFB5E486B
:100FA000405D5F490A5C0B212B2000F0BAFB5D48D5
:100FB00010F80B200B21282000F0B3FB5648405DB1
:100FC000594951F820200C21282000F096FBE079A7
:100FD000564901EB8000A17930F811200221272029
:100FE00000F07AFB524830F816200421272000F048
:100FF00073FBE07928B964220621272000F06CFBFE
:1010000017E0A07804280AD110220621272000F03A
:1010100063FB10222621272000F083FB09E0202219
:101020000621272000F058FB28222621272000F047
:1010300078FB404800EB0610E17850F821200821A9
:10104000272000F05AFB608910B941F2410060810D
:1010500062892021272000F03FFB37480C210268DD
:10106000232000F04AFB3448001D30F816200421EC
:10107000232000F031FBA07950B1E0792F490A5CC0
:101080000021212000F04DFB4FF003094FF0010A31
:1010900005F00F00F02101EA0511084361784FF4D3
:1010A000402202EA81410843910001EA09510843C4
:1010B0004FF4003101EA4A41084321794FF0F862C8
:1010C00002EA815108436179520102EAC16140EAB2
:1010D00001073A4600211F2000F00FFBA07861783D
:1010E00008430004E17940EA413009490968C860D1
:1010F000074800680021C268082000F0FEFA42227A
:1011000000210D2000F00DFBBDE8F09F3C640008BD
:10111000600100201C000020C0630008E06300089C
:10112000F8630008FE630008C86300080C64000848
:10113000186400081C6400080064000808640008C3
:1011400010B5044622780B212A2000F0EAFA00218B
:101150001E20626800F0D1FA10BD000070B505468F
:101160000021042000F0F1F80A4900EA010435B139
:1011700024F4FF7405F4FF70401C044301E024F0E4
:10118000010405480068446122460021042000F063
:10119000B4FA70BDFFFF47F06001002070B5002178
:1011A0000E2000F0D2F8054600F02AFB044600228B
:1011B00011460E2000F0A1FA402200210D2000F07F
:1011C000B0FA0A4A00210F2000F097FA04F050FC10
:1011D0002A4600210E2000F090FA204600F009FB7C
:1011E000002003490968887670BD0000F8FF2704D5
:1011F000600100202DE9F041044600250027002071
:101200004649096848744549096888764349096828
:10121000088342490968886240490968C8623F49B1
:10122000096808633D490968486300F0AFF83C4924
:10123000884202D08817BDE8F08100F0E9F900206B
:1012400003F003FE04220021242000F06AFA1E208D
:1012500003F086FE85B2280A3049096848720420E6
:1012600003F07EFE0746F8B260B1022212212D2063
:1012700000F057FA29480068008B40F48050274955
:1012800009680883062003F06BFE2449096808609A
:10129000072003F065FE21490968486005F01F003A
:1012A0001E49096808741D480068007C18B91020A0
:1012B0001A490968087419490968087C00F09CF902
:1012C00004F0010050B103F03AFE14480068008BAE
:1012D00040F400601149096808830DE005213620BB
:1012E00000F020F806464FF6FF5006403246052132
:1012F000362000F0F1F900BF012003F0A6FD002226
:101300000A212C2000F00DFA0021042000F01DF825
:1013100002490968486100208DE700006001002053
:101320003001CADEF8B504460D460026A9B2A0B2C7
:101330006B46022200F030F89DF800009DF8011085
:1013400000EB012086B23046F8BDF8B505460E46E2
:101350000027B1B2A8B26B46042200F01DF80324A6
:1013600004E01DF8040000EB0727641E002CF8DAE7
:101370003846F8BD38B504460D46A9B2A0B26B4652
:10138000012200F009F89DF8000038BD10B50021D9
:101390000846FFF7DAFF10BD2DE9F84306460C4674
:1013A0001746984600252CB9F2B228466D1C0DF858
:1013B00000201BE0F0B240F0400228466D1C0DF802
:1013C00000207F2C05DCE2B228466D1C0DF80020C1
:1013D0000CE0E0B240F0800228466D1C0DF80020C1
:1013E000C4F3C71228466D1C0DF80020A8B243466E
:1013F0003A46694602F044FFBDE8F88370B50446FA
:101400000D46164623462A4631461120FFF7C4FFF3
:1014100070BD10B504462346052200211520FFF7B4
:10142000BBFF10BD10B5044623460522002117203E
:10143000FFF7B2FF10BD70B5044604F0040008B910
:1014400004F016FB4FF4807504F0010008B145F478
:1014500000752A4600210D2000F03EF904F001003D
:10146000A8B103210F20FFF785FF064606F008000C
:1014700068B1FFF793FE04F0020028B94FF48072C0
:1014800000210D2000F028F94FF0FF3070BD002042
:10149000FCE710B5E0220321362000F042F9F022EB
:1014A0000321362000F03DF910BD10B50446224658
:1014B0000021032000F010F910BD000070B50546B2
:1014C00000210420FFF741FF074900EA010415B19C
:1014D00044F0005401E024F000542246002104208E
:1014E00000F00BF970BD0000FFFF47F010B5044697
:1014F000224601210A2000F000F910BD10B5044673
:10150000234608220021012000F015F910BD2DE925
:10151000F04104460E4600F073F9074600210E2004
:10152000FFF713FF05460EB1254300E0A5432A4609
:1015300000210E2000F0E1F8384600F05AF9BDE82D
:10154000F08110B5044622460221032000F0C4F8C1
:1015500010BD70B5054600211A20FFF7F6FE0446BF
:101560006FF31304C5F313000443224600211A202D
:1015700000F0C3F870BD10B50446224641F60401E0
:101580002E2000F0A9F810BD70B5044603210420F8
:10159000FFF7F0FE0546002C14DD224600210C204A
:1015A00000F09AF845F010050E480068406940F0D8
:1015B00080500C49096848612A460321042000F044
:1015C000B0F80EE025F0100506480068406920F0EC
:1015D00080500449096848612A460321042000F02C
:1015E000A0F870BD6001002010B50446224600211D
:1015F000182000F071F810BD70B5044604F01F000B
:1016000040F060052A460E212B2000F08AF870BDBC
:1016100010B503F00EFD002211462C2000F05CF8FE
:10162000002206212C2000F07CF803F0B1FC0022FF
:101630000321362000F075F80120FFF74BFCF02263
:101640000321362000F06DF80020024909688876F1
:1016500010BD0000600100202DE9F0410446002685
:101660000025002704F0020048B180252A46002109
:101670000D2000F056F8012016490968887604F01C
:101680000100E0B145F006052A4600210D2000F0DA
:1016900048F803210F20FFF745FE074607F4816055
:1016A00008B9002612E040252A4600210D2000F04E
:1016B00038F80020074909688876461E06E045F09C
:1016C00002052A4600210D2000F02BF83046BDE827
:1016D000F081000060010020F8B505460E46144672
:1016E000E0B28DF8000020128DF80100B1B2A8B26E
:1016F0006B46022200F01FF8F8BDF8B506460F460B
:101700001446002504E0E0B20DF80500240A6D1C23
:10171000042DF8DBB9B2B0B26B46042200F00BF82E
:10172000F8BD37B504460D46A9B2A0B202AB0122FE
:1017300000F001F83EBD2DE9F84306460C46174679
:10174000984600253CB9F0B240F0800228466D1C56
:101750000DF800201BE0F0B240F0C00228466D1CDE
:101760000DF800207F2C05DCE2B228466D1C0DF838
:1017700000200CE0E0B240F0800228466D1C0DF81D
:101780000020C4F3C71228466D1C0DF80020A8B233
:1017900043463A46694603F091FABDE8F88370B5CE
:1017A00004460E4615462819B0F5806F07DCA21EC8
:1017B000334629460920FFF7BEFF002070BD4FF0D9
:1017C000FF30FBE72DE9F04104460D461646074879
:1017D0000068C068204340EA855040EAC6373A4670
:1017E00000210820FFF789FFBDE8F081600100209B
:1017F000704710B5044614B1062000F01DFA10BD64
:1018000010B5062000F010F8044614B1062000F0D0
:1018100005FA204610BD10B501F060FD012000F072
:10182000B1F801F075FD10BDF0B5014600200022B1
:10183000C1F30045064F07EB45131C6801F01F0676
:1018400006EA04020AB1012000E00020F0BD000019
:101850000004014010B506214FF0904000F07EF9E1
:101860004FF48041034800F079F94FF47A7002F0A8
:101870002BF910BD000800482DE9F35F884600BF32
:101880000021C8F80010C8F80410894615E0009837
:1018900010F8096000274FEAC90234463D46204649
:1018A0002946D8E900ABFEF710FD1AEB00004BEB20
:1018B000010BC8E9000B09F10109B9F1050FE6D3E5
:1018C000BDE8FC9F70B50146002005E00A54140AEB
:1018D00044EA03621B0A401C0528F7DB70BD7CB597
:1018E00000210C460D466846FFF793FD042607E0ED
:1018F000280240EA146524021DF806000443761EFF
:10190000002EF5DA204629467CBD7CB500210C4628
:101910000D466846FFF786FD042607E0280240EAE8
:10192000146524021DF806000443761E002EF5DA25
:10193000204629467CBD000010B5044600210F203A
:10194000FFF703FD0D490840B8B10D4800780128A4
:1019500003D00B480078022802D1072001F0BAFF1B
:1019600007480078032802D10C2001F0B3FF044897
:10197000007810B9062001F0ADFF10BD00D027049B
:101980000E00002010B5044604480068204020B135
:10199000024804602046FFF7CFFF10BD1404014049
:1019A00078B503460022C6E0012696400D6805EA98
:1019B0000604002C72D04D68022D02D04D68122D05
:1019C00013D1D60803F1200555F826005507EE0E71
:1019D0000F25B540A8435607F60E0D69B5402843BC
:1019E000D60803F1200545F826001868560003259F
:1019F000B540A8430D7905F003055600B5402843CE
:101A000018604D68012D08D04D68022D05D04D6835
:101A1000112D02D04D68122D13D198685600032560
:101A2000B540A8435600CD68B54028439860586833
:101A300001259540A8430D79C5F30015954028432D
:101A40005860D86856000325B540A84356008D68F5
:101A5000B5402843D8604D6805F08055B5F1805FEA
:101A600068D100BF374D2D6E45F00105354E356606
:101A700035462D6E05F00105009500BF00BF4FEA09
:101A8000B635960855F8260095072E0F0F25B54058
:101A9000A843B3F1904F02D1002510E04AE02A4D4F
:101AA000AB4201D101250AE0284DAB4201D102250C
:101AB00005E0274DAB4201D1032500E0072596073D
:101AC000360FB5402843234D960845F82600224D91
:101AD0002868A0434D6805F48035B5F5803F00D1F6
:101AE00020431D4D28602D1D2868A0434D6805F436
:101AF0000035B5F5003F00D12043174D2D1D28605E
:101B00002D1D2868A0434D6805F48015B5F5801F8C
:101B100000D12043104D083528602D1D2868A043B2
:101B20004D6805F40015B5F5001F00D120430A4D9E
:101B30000C352860521C0D68D540002D7FF434AF61
:101B400078BD000000100240000400480008004872
:101B5000000C0048080001400004014042694A406E
:101B6000426170470AB1816100E081627047000004
:101B700001480068704700005801002002480068D2
:101B8000401C0149086070475801002010B500242E
:101B9000032000F09DF80F2000F008F808B10124A0
:101BA00001E000F01BF8204610BD000070B50446AF
:101BB0000025094800684FF47A71B0FBF1F6304611
:101BC00001F02CF808B1012504E000222146501E46
:101BD00000F03FF8284670BD5C01002008B500BF4A
:101BE0000D48006E40F001000B4908660846006E83
:101BF00000F00100009000BF00BF00BF0846806DEC
:101C000040F0805088650846806D00F0805000905C
:101C100000BF00BF08BD00000010024000BF00F080
:101C20001F0201219140034A430942F8231000BFDB
:101C30007047000080E100E000BF00F01F020121BA
:101C400091404209920002F1E022C2F8001100BF67
:101C500070472DE9F05F80460D461646002701F0DB
:101C6000E3F9074639462A46334601F00700C0F13A
:101C7000070ABAF1040F02D94FF0040A01E0C0F1DB
:101C8000070AD14600F1040ABAF1070F02D24FF059
:101C9000000A01E0A0F1030AD4464FF0010A0AFA53
:101CA00009FAAAF1010A0AEA020A0AFA0CFA4FF042
:101CB000010B0BFA0CFBABF1010B0BEA030B4AEA2D
:101CC0000B042146404601F0B7F9BDE8F09F000043
:101CD00000BF00F00702064B19684FF6FF031940DA
:101CE000044B0B4343EA0221014B196000BF7047CC
:101CF0000CED00E00000FA050246B2F5007F2AD1A3
:101D00001D48006800F4C060B0F5007F32D01A486A
:101D1000006820F4C06040F40070174B186017484A
:101D2000006832235843164BB0FBF3F0411C00E02F
:101D3000491E1148406900F48060B0F5806F01D100
:101D40000029F5D10C48406900F48060B0F5806F3F
:101D500010D1032070470848006800F4C060B0F557
:101D6000806F07D00448006820F4C06040F48060B1
:101D7000014B18600020EDE7007000405C0100207E
:101D800040420F000248006800F4C0607047000045
:101D9000007000402DE9F84304460026B046206854
:101DA00000F40030B0F5003F74D1B146A048806D1A
:101DB000012121EA107078B100BF9D48806D40F08C
:101DC00080509B4988650846806D00F080500090E7
:101DD00000BF00BF4FF001099648006840F48070D2
:101DE00094490860FFF7C4FE074606E0FFF7C0FE0F
:101DF000C01B022801D9032605E08E48006800F4C4
:101E000080700028F2D000BF002E46D18848903064
:101E1000006800F44075CDB1206BA84216D084480C
:101E20009030006820F440758148D0F8900040F46C
:101E300080307F49C1F890000846D0F8900020F427
:101E40008030C1F890000846C0F8905005F00100BD
:101E5000A0B1FFF78DFE074608E0FFF789FEC01B23
:101E600041F28831884201D9032606E0704890305B
:101E7000006800F002000028EFD000BF5EB96C4897
:101E80009030006820F44070216B08436849C1F825
:101E9000900003E00CE0B04600E0B046B9F1010F5D
:101EA00005D16348806D20F080506149886500BF8E
:101EB000207800F0010048B15D488830006820F0CB
:101EC0000300616808435A49C1F88800207800F08F
:101ED0000200022809D156488830006820F00C0022
:101EE000A16808435249C1F88800207800F0040036
:101EF000042809D14E488830006820F03000E1689D
:101F000008434B49C1F88800207800F020002028C1
:101F100009D147488830006820F4406021690843AF
:101F20004349C1F88800208800F40070B0F5007FB4
:101F300009D13F488830006820F44020216A0843D6
:101F40003B49C1F88800208800F48060B0F5806FBC
:101F500009D137488830006820F44010616A08438E
:101F60003349C1F88800207800F04000402809D1AA
:101F70002F488830006820F44050616908432C499C
:101F8000C1F88800207800F08000802809D1284816
:101F90008830006820F44040A16908432449C1F812
:101FA0008800208800F48070B0F5807F09D1204837
:101FB0008830006820F44030E16908431C49C1F8CA
:101FC0008800208800F40050B0F5005F13D1184855
:101FD0008830006820F04060A16A084314498831C5
:101FE0000860A06AB0F1006F05D11148C06840F4E4
:101FF00080100F49C860206800F48020B0F5802F61
:1020000013D10B488830006820F04060E16A084333
:10201000074988310860E06AB0F1006F05D10448D3
:10202000C06840F480100249C8604046BDE8F883AB
:1020300000100240007000402DE9F04104460D46BA
:1020400014B90120BDE8F0815548006800F0070090
:10205000A8420ED25248006820F007002843504999
:1020600008600846006800F00700A84201D001207F
:10207000E8E7207800F00100002840D060680328DD
:1020800006D14848006800F00070D8B90120D9E7AF
:102090006068022806D14348006800F4003088B91F
:1020A0000120CFE7606830B93E48006800F00200C8
:1020B00040B90120C6E73B48006800F4806008B9D9
:1020C0000120BFE73748806820F0030061680843BB
:1020D00034498860FFF74CFD064608E0FFF748FDED
:1020E000801B41F28831884201D90320AAE72D489C
:1020F000806800F00C006168B0EB810FEED12078B1
:1021000000F00200022807D12648806820F0F00085
:10211000A1680843234988602148006800F007004F
:10212000A8420ED91E48006820F0070028431C4929
:1021300008600846006800F00700A84201D00120AE
:1021400080E7207800F00400042807D11548806853
:1021500020F4E060E168084312498860207800F0CC
:102160000800082808D10F48806820F460502169D1
:1021700040EAC1000B49886000F01AF809498968F3
:10218000C1F30311084A515C01F01F01C84007491F
:1021900008600F20FFF70AFD0746384652E70000A7
:1021A0000020024000100240746300085C0100201F
:1021B0002DE9F04100240020DFF800C1DCF808C060
:1021C0000CF00C01DFF8F4C0DCF80CC00CF00307D5
:1021D00019B10C291ED1012F1CD1DFF8E0C0DCF8A9
:1021E00000C00CF0080CBCF1000F06D1DFF8CCC029
:1021F000DCF894C0CCF3032405E0DFF8C0C0DCF8C1
:1022000000C0CCF30314DFF8B8C05CF8244041B937
:10221000204606E0042901D12A4802E0082900D11D
:1022200029480C2947D1DFF894C0DCF80CC00CF029
:102230000305DFF888C0DCF80CC0CCF3021C0CF1FD
:102240000103012D1FD0022D02D0032D1AD10CE065
:10225000DFF870C0BCFBF3FCDFF86080D8F80C80BE
:10226000C8F306280CFB08F218E0DFF85CC0BCFBE2
:10227000F3FCDFF84880D8F80C80C8F306280CFB84
:1022800008F20BE000BFB4FBF3FCDFF83080D8F8B5
:102290000C80C8F306280CFB08F200BF00BFDFF873
:1022A0001CC0DCF80CC0CCF3416C0CF1010C4FEA03
:1022B0004C06B2FBF6F0BDE8F081000000100240D1
:1022C0008C6300080024F40000127A002DE9F84322
:1022D000044614B90120BDE8F883F948806800F08D
:1022E0000C06F748C06800F00307207800F01000E3
:1022F000102875D11EB10C2E74D1012F72D1F04867
:10230000006800F0020018B1E06908B90120E2E7B6
:10231000EB48616A006800F0080020B1E8480068F6
:1023200000F0F00005E0E6489430006800F47060CA
:10233000000981421FD9606A01F02AFF08B101201B
:10234000C9E700BFDE48006840F00800DC490860CB
:102350000846006820F0F000616A0843D849086028
:1023600000BF0846406820F47F40216A40EA01200F
:10237000D34948601EE000BFD148006840F0080023
:10238000CF4908600846006820F0F000616A084301
:10239000CB49086000BF0846406820F47F40216AAE
:1023A00040EA0120C6494860606A01F0F1FE08B1C8
:1023B000012090E7FFF7FCFEC1498968C1F30311D2
:1023C000C04A515C01F01F01C840BF4908600F209E
:1023D000FFF7ECFB8146B9F1000F4ED048467AE793
:1023E0004BE0FFE7E06980B3B548006840F00100CA
:1023F000B3490860FFF7BCFB054606E0FFF7B8FBF2
:10240000401B022801D9032065E7AD48006800F0B1
:1024100002000028F2D000BFA948006840F0080080
:10242000A74908600846006820F0F000616A084388
:10243000A349086000BF0846406820F47F40216A35
:1024400040EA01209E49486017E0FFE79C48006889
:1024500020F001009A490860FFF78AFB054606E074
:10246000FFF786FB401B022801D9032033E794487D
:10247000006800F002000028F2D1207800F001008E
:1024800000285CD0082E03D00C2E0AD1032F08D1CF
:102490008B48006800F4003088B3606878BB012086
:1024A00019E700BF6068B0F5803F06D18448006836
:1024B00040F48030824908601AE06068B0F5A02FCF
:1024C0000BD17F48006840F480207D4908600846B1
:1024D000006840F4803008600AE07948006820F421
:1024E0008030774908600846006820F48020086042
:1024F00000BF606890B1FFF73BFB054607E01EE0B8
:10250000FFF736FB401B642801D90320E3E66C4843
:10251000006800F400300028F2D010E0FFF728FB3C
:10252000054606E0FFF724FB401B642801D9032081
:10253000D1E66348006800F400300028F2D120782A
:1025400000F00200022852D1042E03D00C2E14D128
:10255000022F12D15A48006800F4806018B1E06878
:1025600008B90120B7E65648406820F0FE40217CBB
:1025700040EA01605249486039E0E06800B35048E1
:10258000006840F480704E490860FFF7F1FA054694
:1025900006E0FFF7EDFA401B022801D903209AE676
:1025A0004748006800F480600028F2D04448406842
:1025B00020F0FE40217C40EA01604149486016E07D
:1025C0003F48006820F480703D490860FFF7D0FA6A
:1025D000054606E0FFF7CCFA401B022801D903208C
:1025E00079E63748006800F480600028F2D120784E
:1025F00000F00800082876D16069E0B330489430D4
:10260000D0F8008008F01001A06988422FD008F0AF
:102610000200022804D108F0010008B901205AE69E
:1026200008F00100C8B126489430006820F001008D
:102630002349C1F89400FFF79BFA054606E0FFF72F
:1026400097FA401B112801D9032044E61C48943016
:10265000006800F002000028F1D1194894300068A9
:1026600020F01000A16908431549C1F894001448EE
:102670009430006800E017E040F001001049C1F814
:102680009400FFF775FA054606E0FFF771FA401B64
:10269000112801D903201EE609489430006800F093
:1026A00002000028F1D01EE005489430006820F0B8
:1026B00001000349C1F89400FFF75AFA05460CE0FF
:1026C00000100240746300085C010020FFF750FA1C
:1026D000401B112801D90320FDE5BF48006800F028
:1026E00002000028F2D1207800F00400042879D1FB
:1026F0004FF00008B8489438806D00F0805088B9D9
:1027000000BFB5489438806D40F08050B24994398C
:1027100088650846806D00F08050009000BF00BFC3
:102720004FF00108AD48006800F48070B0B9AB48C4
:10273000006840F48070A9490860FFF719FA05465F
:1027400006E0FFF715FA401B022801D90320C2E575
:10275000A248006800F480700028F2D0207A00F0CF
:10276000010048B39C48001F006820F08000217AD7
:1027700001F0800108439849091F0860207A00F0A1
:10278000040078B10846006840F00400924994398A
:10279000C1F890000846D0F8900040F00100C1F860
:1027A000900019E08C48001F006840F001008A4941
:1027B0009439C1F890000FE08748001F006820F0AE
:1027C000010085499439C1F890000846D0F890007E
:1027D00020F00400C1F89000A068A8B1FFF7C8F984
:1027E000054609E039E0FFF7C3F9401B41F28831A3
:1027F000884201D903206EE57748001F006800F089
:1028000002000028EFD01CE0FFF7B2F9054608E00F
:10281000FFF7AEF9401B41F28831884201D903200D
:1028200059E56D48001F006800F002000028EFD154
:102830006948001F006820F0800067499439C1F89A
:102840009000B8F1010F07D163489438806D20F0F3
:10285000805061499439886500BF207800F02000DD
:10286000202838D1A06AD8B15B48001D006840F02C
:10287000010059499439C1F89800FFF779F90546E4
:1028800006E0FFF775F9401B022801D9032022E575
:102890005148001D006800F002000028F1D01AE045
:1028A0004D48001D006820F001004B499439C1F8E3
:1028B0009800FFF75DF9054606E0FFF759F9401B60
:1028C000022801D9032006E54348001D006800F0F6
:1028D00002000028F1D1E06AE8B30C2E78D0E06A5B
:1028E00002284FD13C489438006820F080703A4963
:1028F00094390860FFF73CF9054606E0FFF738F920
:10290000401B022801D90320E5E4334894380068CD
:1029100000F000700028F1D1606B401E0101A06B37
:1029200041EA0020216B0843A18F0122C2EB510133
:1029300040EA41514020005DC2EB500041EA406056
:1029400025499439C8600846006840F080700860E6
:102950000846C06800E03DE040F08070C860FFF7C6
:1029600007F9054606E0FFF703F9401B022801D9E5
:102970000320B0E418489438006800F00070002884
:10298000F1D027E014489438006820F08070124994
:10299000943908600846C06820F00300C860084603
:1029A000C06820F08870C860FFF7E2F8054607E0CD
:1029B000FFF7DEF8401B022802D903208BE407E072
:1029C00005489438006800F000700028F0D101E05C
:1029D000012080E400207EE494100240007000405A
:1029E0002DE9F04104460D460026002700BF20795E
:1029F000012802D10220BDE8F0810120207100BF32
:102A00006079012820D102206071FFF7B1F80646F5
:102A10000CE0FFF7ADF8801B022807D90420607195
:102A200000BF0020207100BF0320E4E72068406859
:102A300000F001000028ECD020688068E060E068C9
:102A400028600120607100E0012700BF0020207194
:102A500000BF3846CFE710B5044604F10C0120460C
:102A6000FFF7BEFF08B9E06810BD0020FCE710B515
:102A700004460CB9012010BD607920B900202071F6
:102A8000204600F00FF8022060712068006840F0D6
:102A9000040021680860012060710020A06000BF70
:102AA000E9E7000008B500BF0649C96C41F4802180
:102AB000044AD1641146C96C01F48021009100BF21
:102AC00000BF08BD0010024070B504460CB90120DB
:102AD00070BD606A00B900BF0021A16294F85D007A
:102AE00028B9002084F85C00204600F04DF8022050
:102AF00084F85D002068006820F0400021680860CC
:102B0000E068B0F5E06F01D9002501E04FF4805591
:102B1000E068B0F5706F05D0E068B0F5E06F01D007
:102B20000021A162206B40B9E068B0F5E06F02D9E6
:102B30000221216301E001212163D4E9010108435D
:102B40002169084361690843218B01F4007108433E
:102B5000E1690843216A0843A16A084321680860C3
:102B60000421A06901EA1040616A0843616B0843CF
:102B7000E16808432843216848600020206601205E
:102B800084F85D000020A3E710B586B00446142148
:102B900001A8FDF7B0FB1F492068884238D100BF6B
:102BA0001D48006E40F480501B4908660846006EC0
:102BB00000F48050009000BF00BF00BF0846C06C0A
:102BC00040F00100C8640846C06C00F001000090AD
:102BD00000BF00BF2020019002200290012003903E
:102BE000032004900520059001A94FF09040FEF7C6
:102BF000D7FEC02001900220029000200390032005
:102C000004900520059001A94FF09040FEF7C8FE02
:102C100006B010BD003001400010024070B50446FF
:102C20002546681EB0F1807F01D301200FE0681EA9
:102C30004FF0E02148610F214FF0FF3000F0FCF928
:102C400000204FF0E021886107200861002070BD5E
:102C500000BFFEE710B5012240210948FEF782FFC0
:102C6000012280210648FEF77DFF002280210448D2
:102C7000FEF778FF002240210148FEF773FF10BDE8
:102C80000004004810B5012240210748FEF76AFF02
:102C9000002280210448FEF765FF012280210248BE
:102CA000FEF760FF10BD00000004004810B50122CF
:102CB00040210448FEF756FF002240210148FEF75C
:102CC00051FF10BD0004004800BF4FF4804104488C
:102CD000FEF744FF4FF47A7000F0F6FEF5E70000CF
:102CE0000008004870B50025C820FEF74DFC99E0AB
:102CF0000020FEF7A0FB00BF00210F20FEF725FB00
:102D000049490860494908400028F5D0464800680C
:102D100000F40030002867D04348008800F4DE400B
:102D2000002861D14FF4003200210F20FEF7E5FCAE
:102D30003F480188002001F079FA044604EB440181
:102D400088B200F0C1FE0020FEF775FB00BF002135
:102D50000F20FEF7FAFA3449086034490840002889
:102D6000F5D03148006800F40030A0B12E4800884A
:102D700000F4DE4078B94FF4003200210F20FEF756
:102D8000BCFC00252A49088800EBD0714910284A6C
:102D90001180012070BD2448008800F4804010B3E9
:102DA0004FF4804200210F20FEF7A7FC00211020E5
:102DB000FEF7CBFA00F07F001E4908800846008825
:102DC00037281BDC0022084601881B48FEF716FB4B
:102DD0001948407A0F2803D01748407A10280DD19F
:102DE000642000F071FE09E0144A00210F20FEF774
:102DF00084FCFEF74EFB002011490870681CC5B228
:102E00000B4800884FF48061B1EB400F01DC0846AD
:102E100002E007480088400005490880102D01D1D4
:102E20000020B7E764E700000001002000D027245D
:102E3000160100204A0100203002002000FF272454
:102E40001801002000B587B0142102A8FDF753FA3D
:102E500000BF5748C06C40F001005549C86408469F
:102E6000C06C00F00100019000BF00BF00BF084629
:102E7000C06C40F00200C8640846C06C00F002005C
:102E8000019000BF00BF00BF0846C06C40F00400C6
:102E9000C8640846C06C00F00400019000BF00BF89
:102EA00008200290002003900120049002A94FF016
:102EB0009040FEF775FD10200290012003900490D1
:102EC0000320059002A94FF09040FEF769FD012014
:102ED0000290384803900220049002A93648FEF779
:102EE0005FFD022002900120039000200490032047
:102EF000059002A93048FEF753FD4FF48070029010
:102F000001200390002004900320059002A94FF0B7
:102F10009040FEF745FD062002900120039002201C
:102F200004900320059002A94FF09040FEF738FD71
:102F30004FF480400290012003900220049003206F
:102F4000059002A91D48FEF72BFDC020029001202C
:102F50000390022004900320059002A91648FEF772
:102F60001FFD002208210620FEF773FE0620FEF753
:102F700063FE012210214FF09040FEF7F3FD002286
:102F800002210D48FEF7EEFD012291030B48FEF7EA
:102F9000E9FD002202214FF09040FEF7E3FD002200
:102FA00004214FF09040FEF7DDFD07B000BD0000AA
:102FB0000010024000001110000400480008004802
:102FC00010B51548154908604FF48270486000211B
:102FD000124881604FF4E061C1600221016101216A
:102FE0004161490281610821C161002101624162A0
:102FF00081620721C162002101634163FFF764FD23
:1030000008B1FEF727FC05480068006840F0400062
:1030100002490968086010BD00300140F82900200D
:1030200000BFFEE77047000002480068C0F30220BE
:10303000704700000CED00E010B5002807DA0A0721
:10304000140E054A00F00F031B1FD45403E00A07B7
:10305000130E024A135410BD18ED00E000E400E026
:1030600070B5002418E004F1B000002100F0FDF874
:103070000021084600F0F9F80021102000F0F5F8D2
:10308000002505E00121002000F0EFF8681CC5B222
:10309000802DF7DB601CC4B2082CE4DB70BD10B5DA
:1030A000C82000F011FD0021AE2000F0DEF8002164
:1030B000402000F0DAF80021B02000F0D6F800211E
:1030C000C82000F0D2F80021812000F0CEF80021C5
:1030D000FF2000F0CAF80021A12000F0C6F800216E
:1030E000A62000F0C2F80021A82000F0BEF80021C0
:1030F0001F2000F0BAF80021D32000F0B6F800211C
:10310000084600F0B2F80021D52000F0AEF800210A
:10311000F02000F0AAF80021D92000F0A6F8002144
:10312000222000F0A2F80021DA2000F09EF8002111
:10313000022000F09AF80021DB2000F096F8002130
:10314000492000F092F800218D2000F08EF8002137
:10315000142000F08AF80021AF2000F086F8FFF775
:103160007FFF10BD70B504460D4605F1B00000218B
:1031700000F07BF8102141EA1410002100F075F8EE
:1031800004F00F00002100F070F870BD2DE9F04749
:1031900007460E469046994600250024A8F12000D7
:1031A000C5B27F2F02DD0027B01CC6B2B9F1100FE7
:1031B00024D131463846FFF7D5FF002408E004EB60
:1031C0000511194A505C012100F04FF8601CC4B28F
:1031D000082CF4DB701CC1B23846FFF7C3FF002493
:1031E00009E004EB051108310F4A505C012100F0A1
:1031F0003CF8601CC4B2082CF3DB12E031463846C0
:10320000FFF7B0FF00240AE005EB4501074A02EB97
:103210004101085D012100F028F8601CC4B2062CB1
:10322000F2DBBDE8F0870000845D00085C5B00080D
:103230002DE9F04104460F461546984600260FE05A
:10324000AA5D434639462046FFF7A0FF04F1080077
:10325000C4B2782C02DD0024B81CC7B2701CC6B200
:10326000A85D0028ECD1BDE8F08170B504460D469C
:103270001DB1E0B201F0BAFD02E0E0B201F0A0FD44
:1032800070BD0FB430B589B004460D460FA800904C
:1032900001A8009A0E9901F0ABFE082301AA294665
:1032A0002046FFF7C5FF0020009009B030BC5DF854
:1032B00014FB10B500F00FF800F0BAFD00F0D6FDD9
:1032C00000F0F8FD00F08CFD00F052FD00F026FE4D
:1032D00000F002F810BD70477047000010B50024E0
:1032E0000948007801280ED1FCF76CFF0446074816
:1032F0000078FF2807D205480078401C0349087071
:103300002046FCF763FF10BD79010020700100200A
:1033100010B500241A480078012830D1FCF752FF7C
:10332000044618480078002804DD16480078401E3E
:103330001449087013480078F0B913480078D8B9D8
:1033400000F058FE1148007811490978884213D0DE
:1033500010480E49097850F821000F4908600846C6
:103360000068406B401C096848630C480068401CBA
:103370000A490860FCF742FF2046FCF727FF10BD12
:1033800079010020700100207101002073010020EC
:1033900072010020B02F002088010020640100206D
:1033A00070B50546002612480078002801DD00208F
:1033B00070BDFCF707FF06460E480468006820B1A0
:1033C0000C48006840680B4908603046FCF7FEFE78
:1033D0005CB1032020702581002060603F20E073F5
:1033E00000212174204600F0B5FC2046E0E70000F3
:1033F00070010020680100202DE9F04105460E46CD
:10340000144600272878032803D001202070BDE847
:10341000F08132480078002802DD02202070F6E7B3
:103420002F480078002802DD0D202070EFE7FCF720
:10343000C9FE07462889002808DD2889401E288102
:103440003846FCF7C3FE00202070E0E725480068FE
:1034500090F82C0040F001002249096881F82C0006
:1034600000202049096881F82D001E480068468523
:10347000284600F031FC3846FCF7A8FE00F080FD3D
:10348000FCF7A0FE07461748006890F82D0020B111
:10349000012809D0022806D102E0002020700BE0AC
:1034A0000E20207008E000BF29460E48006800F09A
:1034B000FDFB0A20207000BF00BF002009490968F9
:1034C00081F82C000749096881F82D000549096831
:1034D000C8613846FCF77AFE00BF98E7700100200B
:1034E000710100208001002070B50446002520787D
:1034F000032801D0012070BDFCF764FE0546A07AC8
:1035000060B1002301221946204600F08DFB2846B9
:10351000FCF75CFE00F034FD0020ECE720894FF65C
:10352000FF71884207D22089401C20812846FCF781
:103530004DFE0020DFE72846FCF748FE3220DAE7A0
:1035400010B50B48007890B900F054FD0948007898
:103550000949087009480749097850F821000849C5
:1035600008600846006807490860FCF732FE10BD95
:10357000790100207301002072010020B02F00208B
:103580008801002080010020704700002DE9FE4FD7
:1035900006460F4690461C464FF00009FCF712FE07
:1035A000814620480078002805DD4846FCF70EFEDD
:1035B0003C20BDE8FE8F1C4850F8240060BB012071
:1035C000194941F824004846FCF700FE0023424612
:1035D0003946304600F0D4F9824600200090019030
:1035E0000346024651460290204600F031FD054652
:1035F00035B90E48007801280CD100F0C1FC09E073
:10360000FCF7E0FD81460020074941F824004846C8
:10361000FCF7DCFD2846CCE74846FCF7D7FD282020
:10362000C7E7000070010020B02F002079010020C2
:103630002DE9F04F85B00746884691461C46DDE9E6
:1036400011B6DDF838A000200390FCF7BBFD039015
:1036500020480078002806DD0398FCF7B7FD3C20E1
:1036600005B0BDE8F08F1C4850F8240060BB012075
:10367000194941F824000398FCF7A8FD33464A464F
:103680004146384600F07CF9049010985346CDE945
:1036900001B6009020460F9A049900F0D9FC054627
:1036A00035B90E48007801280CD100F069FC09E01A
:1036B000FCF788FD03900020074941F82400039897
:1036C000FCF784FD2846CBE70398FCF77FFD282014
:1036D000C6E7000070010020B02F00207901002013
:1036E000704700002DE9F041054600274A48007860
:1036F000002802DD4020BDE8F0811F2D01D13E20D1
:10370000F9E7FCF75FFD0746FF2D03D1434800684A
:1037100090F82E50424850F8254024B93846FCF71E
:1037200055FD4320E7E7012C04D13846FCF74EFD58
:103730003D20E0E714F8300F3A49085C617888438F
:103740002178384A505414F830091146085C30B9D1
:1037500094F8321034480078884333490870E0699F
:1037600018B12046E16900F0A1FA666A16B1304648
:1037700000F024FB0020608584F82C0084F82D00E4
:103780002A480078FF2804D228480078401C27499E
:1037900008703846FCF71AFD00F045FAFCF712FDF8
:1037A000074622480078002804DD20480078401EA3
:1037B0001E490870204600F043F81D480078401E5E
:1037C0001B4908700020164941F82500A06930B94E
:1037D00000206169886117496069086005E0D4E9E3
:1037E00005014861D4E905108861134800686061EB
:1037F000114804603F2084F8480000214920015509
:103800003846FCF7E3FC0D480078012801D100F0B0
:10381000B7FB00206FE7000070010020800100204E
:10382000B02F0020750100207401002071010020DC
:103830007A0100208C010020840100207901002001
:10384000704770472DE9F0470646884614464FF00A
:1038500000091D480078002803DD12202070BDE813
:10386000F087FCF7AFFC8146FF2E03D117480068B4
:1038700090F82E60164850F826502DB94846FCF7AF
:10388000A5FC43202070EAE7012D05D14846FCF74E
:103890009DFC43202070E2E7404600F0CFFB074646
:1038A0000F2F05DD4846FCF791FC41202070D6E73C
:1038B000414605F1480000F0B3FB4846FCF786FCA2
:1038C0000020207000BFCAE77001002080010020A6
:1038D000B02F002070B505460026FCF773FC0646A5
:1038E000234850F8254024B93046FCF76FFC4620A9
:1038F00070BD012C04D13046FCF768FC4320F7E78B
:1039000094F82C0000F0080060B314F82C0F20F09D
:103910000800207014F82C09F8B9608DC8B930344B
:10392000A078144909780843124908702078124990
:10393000085C6178084314F830190F4A5054304637
:10394000FCF744FC0D480078012809D100F018FB71
:1039500006E03046FCF73AFC02E03046FCF736FC65
:103960000020C5E73046FCF731FC4420C0E70000EA
:10397000B02F002074010020750100207901002083
:1039800070B5044610464FF080750560051F284647
:103990002C606FF00106051F28462E604FF012368E
:1039A000051F28462E604FF00336051F28462E605F
:1039B0004FF00236051F28462E607610051F284658
:1039C0002E60051F284629604FF01136051F284636
:1039D0002E604FF01036051F28462E604FF0093636
:1039E000051F28462E604FF00836051F28462E601A
:1039F0004FF00736051F28462E604FF00636051F8C
:103A000028462E604FF00536051F28462E604FF0E1
:103A10000436051F28462E6070BD00002DE9F041D8
:103A200005464FF00008FCF7CDFB8046FF2D05D181
:103A30002048006890F82E50012608E01D480068D4
:103A400090F82E00A84201D1012600E000261A4875
:103A500050F825402CB94046FCF7B8FB4820BDE89B
:103A6000F081012C04D14046FCF7B0FB4320F6E77F
:103A700094F830701148C05D94F8311088430F49B4
:103A8000C8550846C05D30B994F832100C4800782B
:103A900088430B49087094F82C0040F0080084F823
:103AA0002C004046FCF792FB012E01D100F068FA91
:103AB0000020D4E780010020B02F002075010020F5
:103AC000740100207047000070B5054600261648B6
:103AD0000078002800DD70BD002D23DDFCF772FBAF
:103AE00006461248006890F830401148005D0F49C2
:103AF000096891F8311088430D4908550846005D62
:103B000040B90A48006890F832100A4800788843A3
:103B1000084908700548006845853046FCF756FBA3
:103B200000F02EFA00BFD6E77001002080010020CF
:103B3000750100207401002070B5002600F072F8B5
:103B4000FCF740FB064631480068401C2F490860DE
:103B50003046FCF73BFB2E480078012853D12D4816
:103B6000007820B1012804D0022809D103E0012502
:103B70000BE0002509E0012501202649087004E03A
:103B8000012500202349087000BF00BF05B970BDA2
:103B90002148046833E0FCF715FB0646608D50B3FE
:103BA000608D401E80B2608528BB94F82C0000F028
:103BB000370040B114F82C0F20F03700207001209E
:103BC00060702C3C02E0002084F82D0094F82C005A
:103BD00000F0080078B93034A0781049097808431B
:103BE0000E49087020780E49085C6178084314F883
:103BF00030190B4A505464693046FCF7E7FA94F8E0
:103C00002E001F28C7D100BFC1E70000940100208B
:103C100079010020900100208C0100207401002017
:103C200075010020704770472DE9F04F05460F469B
:103C300090469946A87A19490E5C05F10B00805D03
:103C400011F800B00BEBC60000F0FF0A144850F862
:103C50002A400020203460812760207B20EA080071
:103C6000207384F80D90207B203C00F0080068B998
:103C700094F832000B49097808430A4908700A4849
:103C8000805D94F83110084307498855294620463D
:103C900000F00CF85046BDE8F08F0000A06400086A
:103CA000B02F0020740100207501002010B590F89D
:103CB000302001F10B039B5C90F83140A34301F1EC
:103CC0000B04A35423469B5C23B98B7A90F83240B3
:103CD000A3438B7210BD000010B51B4A1268D0615F
:103CE000194A126892F8303000F10B02D25C164B80
:103CF0001B6893F831301A43134B1B6893F830401C
:103D000000F10B031A55827A0F4B1B6893F832307F
:103D10001A4382720C4A126892F830100B4A525CB5
:103D2000094B1B6893F831309A43084B5A541A4692
:103D3000525C42B9044A126892F83230044A12784E
:103D40009A43034B1A7010BD8001002075010020BA
:103D5000740100200023837200F10B01002204E0B3
:103D6000002301F8013B531CDAB2042AF8DB704748
:103D700070B58C210F4800F0F9F80E4C04F11C06C8
:103D800000250AE00020207066603F20A07200211C
:103D9000E1721C341C36681C85B2042DF2DB002055
:103DA000207060603F20A0720021E172014802494A
:103DB000086070BD242D00206C01002030B5014644
:103DC0004A6808682AB9CC68606028B10025456057
:103DD00002E0106000B142608B6800255D6230BD7A
:103DE00030B54FF4A071104800F0C0F80E4B03F14D
:103DF000200500240AE0002018705D603F20D87381
:103E00000021197420332035601C84B2092CF2DBA8
:103E10000020187058603F20D873002119740248A0
:103E20000249086030BD0000E42B0020680100203A
:103E300000200749086007490870074908700749CA
:103E4000087007490870074908600749086070470B
:103E50009401002070010020710100207A010020EF
:103E600079010020640100207C01002000220B4B1E
:103E70001A700B49002004E0002201F8012B421CBB
:103E8000D0B20428F8DB0022064B1A70064B1A70D9
:103E9000064B1A60064B1A60704700007401002040
:103EA00075010020720100207301002088010020AC
:103EB0008001002030B54FF4E761144800F056F857
:103EC0008021134800F052F8104B03F158050024EC
:103ED0000AE05D613F2083F8480000214920C15479
:103EE00058335835601CC4B2142CF2D300205861EA
:103EF0003F2083F8480000214920C1540020054993
:103F0000086002480449086030BD000030300020DD
:103F1000B02F00208C0100208401002000B587B064
:103F20000320002180220A4BCDE90132CDE90310A4
:103F30004FF6FF701F23074A00900748FFF778FBF2
:103F400006AA06A11F20FFF77DFC07B000BD0000F8
:103F5000B02D0020AC2F00206D41000875432F4F7D
:103F6000532D49492049646C6500000004E000229B
:103F700000F8012B4A1E91B20029F8DC70470000BE
:103F800010B50024FCF71EF9044613480078F0B978
:103F900012480078D8B900F02DF81148007811497E
:103FA0000978884213D010480D49097850F821004B
:103FB0000E49086008460068406B401C0968486369
:103FC0000B480068401C0A490860FCF712F92046BB
:103FD000FCF7FCF810BD000070010020710100200A
:103FE0007301002072010020B02F00208801002002
:103FF000640100200649074A1278885C0649095C7A
:10400000034A515C01EBC001044A11707047000083
:10401000A0640008740100207501002073010020D5
:104020000246002005E011F8013B02F8013B431C69
:10403000D8B20B78002BF6D11370704701460020E0
:1040400002E0491C421CD0B20A78002AF9D170471C
:104050002DE9F84F05460E4617469846DDE90BABAD
:10406000DDF8289000200090FCF7ACF8009039486B
:104070000468002C69D054F8140F36490860009881
:10408000FCF7A4F844F8146CA5760020207660763E
:10409000E08244F810AC44F8089C44F80C7C24F806
:1040A00004BC24F8028CE077E810207705F00700C4
:1040B000E076217F01208840A077E17E01208840C2
:1040C00060770020A0602061E0602062A0626062F2
:1040D000E06220633F2084F83400143C0021492032
:1040E00001552046FFF750FA2046FFF7F9FAFCF792
:1040F00069F80090184840F8254018480068606149
:104100000020A0611548006810B11448006884615F
:10411000124804603034A0781149097808431049E6
:10412000087020780F49085C6178084314F830194A
:104130000C4A50540C480078401C0B4908700098F9
:10414000FCF744F80020BDE8F88F0098FCF73EF833
:104150004220F8E784010020B02F00208C010020CD
:1041600074010020750100207A010020002400BFA6
:10417000FCF728F8044605480068401C034908601D
:104180002046FCF723F8FFF75CFBF1E77C010020F9
:10419000F8B5044600262348806D00F0805018B121
:1041A000FDF7F0FD054616E000BF1E48806D40F0AB
:1041B00080501C4988650846806D00F08050009052
:1041C00000BF00BFFDF7DEFD05461648806D20F0FC
:1041D000805014498865B5F5007F07D1802C10D92F
:1041E000A02C01D902260CE001260AE0802C01D97E
:1041F000032606E0802C01D1022602E0702C00D1BB
:1042000001260948006820F007003043064908608D
:104210000846006800F00700B04201D00120F8BD58
:104220000020FCE7001002400020024070B5044668
:104230000D460648FEF70FFC291B491CB0FBF1F2A6
:1042400001FB1200204480B270BD00009C2B0020B6
:1042500010B50348034908600846FEF708FC10BD86
:10426000000806509C2B002030B50446002004E0D6
:1042700015184D5D2554451CE8B29842F8DB30BD59
:104280002DE9F04706460F4690461D460024FDF7EF
:10429000B7FA814610204FF09041886200BF15E0C8
:1042A00000BF1A48806800F002000028F9D0385D8D
:1042B0001649087300BF1548806800F00100002807
:1042C000F9D01248C0682870601C84B2B442E7DBA1
:1042D00000240EE000200D49087300BF0B488068E1
:1042E00000F001000028F9D00848C0682855601C7B
:1042F00084B24445EED310204FF090418861484687
:10430000FDF777FA0020BDE8F0870000003001409B
:1043100000B585B014216846FBF7EDFF082000903A
:1043200001200190022002900320039069464FF083
:104330009040FDF735FB002208214FF09040FDF73B
:1043400011FC082000900020019001200290694695
:104350004FF09040FDF724FB022001F0F3FB05B085
:1043600000BD000001460020044A126890B24FF6DA
:10437000C77210400843014A106070470030014086
:1043800000B50820FFF7EEFF00BD00B52020FFF7C5
:10439000E9FF00BD7047000010B5FEF79FFFFFF773
:1043A000CBFBFDF7EBFB0F480078B0B9FDF7E0FB66
:1043B00004460D480078012806D10C480068844264
:1043C00002D101200A4908700A480068844203D1DA
:1043D00009480068FFF788F800BF00BFFEF798FFA4
:1043E00010BD00000E000020180100201C0100205C
:1043F00019010020200100204001002000B5A3B0D9
:10440000442112A8FBF777FF14210DA8FBF773FFD7
:1044100034216846FBF76FFF4FF40070FDF76CFC2A
:1044200008B1FDF717FA1020129001201990002012
:104430001A9060201B9002201D9001211E911F9157
:10444000482112A881630621C16304210164FDF79C
:104450003DFF08B1FDF7FEF90F200D9003200E90EF
:1044600000200F904FF480601090002011900421E4
:104470000DA8FDF7E1FD08B1FDF7ECF90748009044
:10448000002001904FF000600B906846FDF782FC21
:1044900008B1FDF7DFF923B000BD00000100040002
:1044A0000D48006840F001000B490860002088605A
:1044B0000846006809490840074908608814C86030
:1044C0000846006820F48020086000208861C80346
:1044D000034908607047000000100240FFFFF6EA41
:1044E00008ED00E070B54FF0FF360820FCF736FE0F
:1044F0000120FCF7E3FF00215648FDF708F896205D
:10450000FDF727F840F68C20FDF73EF800225249CF
:104510000C20FDF744F9002211460C20FDF752F95A
:104520000220FDF799F846B200BF00210F20FCF7EA
:104530000CFF4A4908604A4908400028F5D047481E
:10454000008800F48040002874D04FF4814200219C
:104550000F20FDF7D2F800211020FCF7F6FE00F046
:104560007F04372C04DC002221463E48FCF746FF3E
:104570003C48407A0C285BD1FDF7C7F93A4A03C2A0
:10458000FDF7ADF9394A03C23848D0E900204FF0B1
:104590009673D21840F10000010641EA1225284620
:1045A000FCF7A4FF25F001000021090241EA106197
:1045B000020244F23803D21841F100012C48C0E94C
:1045C000002129480CC82B48FDF77CF927480CC866
:1045D0002848401DFDF776F925480CC825480A30C3
:1045E000FDF770F92448007822490A3988700022C2
:1045F0001B20FDF7D4F8012200211B20FDF7E2F873
:104600000120FDF729F846B200BF00210F20FCF77A
:104610009CFE00F080000028F7D0802200210F20AF
:10462000FDF76BF804214FF09040FDF797FA00BFBB
:1046300007E0FFE7114A00210F20FDF75EF8FCF7C5
:1046400028FF0020FCF73AFFFCF7A8FD0020FCF74C
:1046500085FD70BD00D02304630000200001002010
:1046600000D0270430020020A8000020B000002065
:10467000B800002088000020FC00002000902704E3
:1046800010B586B00446404840490A6802604A684E
:10469000426089688160FDF779FAFFF7AFFEFEF7A7
:1046A000D1FBFEF78DFCFFF7D3FDFEF7F8FCFEF71C
:1046B000D7FCFFF72DFEFFF768FE0120FCF79AFDFF
:1046C000401C48B9102332A202210020FEF7B0FDA1
:1046D00001E0FDF7BFF8FCE7FFF752FE2A48FCF7C0
:1046E000FFFB2E48006800682D4948602D4800787F
:1046F000087044F23800FCF73EFF44F23800FCF743
:1047000073FF274840680021274A03C227480088D2
:10471000FCF717FF2448FCF7F1FE0523244A00218B
:104720002448FEF733FF1B23234A00212348FEF7CA
:104730002DFF032000214FF48072214BCDE901327F
:10474000CDE90310062003461E4A00901E48FEF7DE
:104750006FFF032000214FF480721C4BCDE9013222
:10476000CDE9031007200346194A00901948FEF7C7
:104770005FFF0620FFF752F90720FFF74FF9FF20F0
:10478000FEF7B0FF06B010BD24020020100000208C
:104790004661696C65642E2E2E00000060010020C9
:1047A000000000200E00002008010020060100206B
:1047B000F409002035490008F4250020C92C000820
:1047C000F8090020F40D0020F94A0008F80D002037
:1047D000F41100201548000810B5FEF77FFD0C48C5
:1047E0000068C069C0F3401058B109480068008BE8
:1047F00040F008000649096808830920FFF76AF8B5
:1048000003E00820024909680862FEF781FD10BD37
:10481000242B002000243E490889FCF746FE022391
:1048200007223B4908313B4800F03CFA02230722AB
:1048300037490831384800F035FA00BF0020FCF74E
:10484000A3FE0020FCF7F7FD00BF00210F20FCF7BE
:104850007CFD32490860324908400028F5D000212B
:104860000F20FCF772FD00F48040002848D04FF480
:10487000804200210F20FCF740FF00210F20FCF7B1
:1048800064FD2649086000211020FCF75EFDC0F39E
:10489000090024490880084600883728CEDC002219
:1048A000084601882048FCF7A9FD1F4800881F49D9
:1048B00008800846008800F488400028BED10846D9
:1048C000007800F0070040B91748C0790F2803D1DD
:1048D0001548FBF7A7FF00BFB0E71348407912491E
:1048E000897940EA01240A480089A042A6D10E48ED
:1048F000407A0B2803D10C48FBF7D8FF00BF9DE797
:104900000B4A00210F20FCF7F8FEFCF7C2FD95E7EB
:10491000000000205700002030000020000100208F
:1049200000D027044A0100203002002004010020AA
:10493000009027041CB53248028932A1684600F075
:1049400043FB00BF31480078052854D2DFE800F06F
:10495000032122464F004FF4D1712DA000F024FB1B
:1049600010233AA200210846FEF762FC10236A4693
:1049700000213020FEF75CFC102337A2022100202A
:10498000FEF756FC0720FFF749F80620FEF7A2FFC6
:1049900031E000BF4FF4D67132A000F005FB1023C8
:1049A00040A200210846FEF743FC10236A4600217E
:1049B0003020FEF73DFC10233DA202210020FEF72F
:1049C00037FC10233CA202213820FEF731FC0620E0
:1049D000FFF724F80720FEF77DFF0CE040F2B51149
:1049E00036A000F0E1FA0C20FEF774FF03E0082087
:1049F000FEF770FF00BF00BFFF20FFF70FF8A1E731
:104A00000000002025303464000000000E0000206B
:104A100046696C653A202E2E2F5372632F6D6169A3
:104A20006E2E632C204C696E653A2025642C204E36
:104A30006F77204D6F64656C20697320776F726BA0
:104A4000206173205441470D0A00000054616749FA
:104A5000443A20202020000052756E696E672E2E89
:104A60002E00000046696C653A202E2E2F5372638B
:104A70002F6D61696E2E632C204C696E653A20257E
:104A8000642C204E6F77204D6F64656C2069732015
:104A9000776F726B20617320416E63686F720D0ACD
:104AA00000000000416E6349443A202020200000AD
:104AB0005461674E756D3A003030000046696C6590
:104AC0003A202E2E2F5372632F6D61696E2E632C48
:104AD000204C696E653A2025642C204E6F77204D5E
:104AE0006F64656C20697320776F726B206173202F
:104AF000434C450D0A00000008B55B490889FCF7E6
:104B0000D4FC0223072258490831584800F0CAF85B
:104B10000223072254490831554800F0C3F8022304
:104B2000052251490831534800F0BCF800BF5248F3
:104B3000007818B151480078012814D16A46002144
:104B40004F480068FEF758FC4C48007820B9FDF744
:104B50000FF800F57A7004E0FDF70AF847F23051DB
:104B600008444849086002214FF09040FCF7F6FFE6
:104B7000FEF7B8F8012872D1FCF74AF9002850D0A6
:104B800000203D4908703D4908703F4800880328CF
:104B900008DA00203D4908803B480078001D3C4968
:104BA000087018E038480088FC280CDD364800887A
:104BB000C01E3649088034480088C0F58370C01E86
:104BC0003349087007E030480088C01E2F4908802C
:104BD00007202F49087000241EE02C48008820443C
:104BE0002C49088002230522204800F05BF80223AC
:104BF000052228491E4800F055F8002608E0FFF776
:104C000071FC022E02DA0220FEF75EFF701CC6B2B3
:104C1000032EF4DB601CC4B21D4800788442DCDB48
:104C200085E71548007848B9012013490870FCF75A
:104C30009FFF41F288310844174908600F48007807
:104C40000028EDD1154801880020FFF7EFFA05464E
:104C500005EB450188B2FEF737FF68E7FFE74FF441
:104C60007A70FEF731FF62E7000000206300002049
:104C70007E0000209900002018010020190100206A
:104C8000400100202001002010010020120100201E
:104C90000F000020140100201C010020160100203C
:104CA00000BFFEE770B50446002004E00D5C161856
:104CB000A555451CE8B29842F8DB70BD2DE9F047D8
:104CC00005460E46174698460024FCF799FD824695
:104CD00010204FF09041886200BF16E000BF1F48CF
:104CE000806800F002000028F9D0305D1B4908738D
:104CF00000BF1A48806800F001000028F9D017486A
:104D0000C06800F0FF09601C84B2AC42E6DB0024FE
:104D100017E000BF1148806800F002000028F9D0B9
:104D200018F804000D49087300BF0C48806800F0B3
:104D300001000028F9D00948C06800F0FF09601C94
:104D400084B2BC42E5D310204FF0904188615046B8
:104D5000FCF74FFD0020BDE8F08700000030014067
:104D60002DE9F04105462C46002240211348FCF76E
:104D7000F9FE00261DE0274607F08007802F05D1A9
:104D8000012280210D48FCF7EDFE04E00022802185
:104D90000A48FCF7E7FE6006040E0122402107489E
:104DA000FCF7E0FE002240210448FCF7DBFE701C0B
:104DB000C6B2082EDFDBBDE8F08100000004004829
:104DC00010B50446FDF746FF7820FFF7C9FFFDF751
:104DD0006DFF0020FFF7C4FFFDF768FF2046FFF7D7
:104DE000BFFFFDF763FFFDF74DFF10BD10B5044693
:104DF000FDF730FF7820FFF7B3FFFDF757FF4020A6
:104E0000FFF7AEFFFDF752FF2046FFF7A9FFFDF7C2
:104E10004DFFFDF737FF10BD10B504466D2240F67B
:104E200006012E20FCF77DFC3CB140F2076241F602
:104E300006012E20FCF750FC06E041F2076241F625
:104E400006012E20FCF748FC10BD38B504466B4621
:104E5000022200213620FCF79FFA0F2C5FD2DFE8F8
:104E600004F012081B5E5E5E5E24335E5E40474EB9
:104E7000570000208DF800009DF8010000F0FE00B2
:104E80008DF801004CE09DF8000000F0FC0040F0BF
:104E900001008DF8000043E09DF8000000F0FC00E8
:104EA00040F002008DF800003AE09DF8000000F0AC
:104EB000B30040F048008DF800009DF8010040F07C
:104EC00080008DF801002BE09DF8000000F0B30099
:104ED0008DF800009DF8010000F07F008DF80100C2
:104EE0001EE09DF8010040F002008DF8010017E07F
:104EF0009DF8010000F0FD008DF8010010E09DF824
:104F0000000000F0CF0040F020008DF8000007E026
:104F100001208DF8000003208DF8010000E000BFA3
:104F200000BF6B46012200213620FCF704FC0DF186
:104F30000103012211463620FCF7FDFB38BD10B5F8
:104F40000E20FFF782FF4FF4004206212D20FCF7D0
:104F5000C3FB0120FBF7BEFF0120FFF776FF10BD6A
:104F600070B50446A2B204212D20FCF7B5FB032244
:104F700006212D20FCF7D5FB002206212D20FCF771
:104F8000D0FB0A212D20FCF7E0F90546284670BD2C
:104F900010B5002202212C20FCF7C3FB022211468F
:104FA0002C20FCF7BEFB10BD0FB4054B10B503A9B8
:104FB000044A029800F0FAF810BC5DF814FB0000F7
:104FC000995A0008500100200FB4084B10B504A9ED
:104FD00002AA039800F0EAF8044602A9002000F0B3
:104FE0007CFC204610BC5DF814FB0000DB58000878
:104FF00037B514460846064B6A46214600F0D6F8F7
:1050000004466946002000F068FC20463EBD0000D2
:10501000DB58000802E008C8121F08C1002AFAD1B4
:1050200070477047002001E001C1121F002AFBD128
:10503000704710B50020FFF708FF0022042136203A
:10504000FCF74AFB10BD00002DE9FF5FDDE90220FF
:10505000010DDDF838B0024318D044F61050A1F22B
:10506000FF3141430D140F98012820D0A5EB0B0010
:10507000401C5FEA000A4FF00004474EDFF81C9125
:10508000A046504616D5CAF1000728E00F98012423
:1050900043A2012808D0002100980F9BC0E90021FD
:1050A000C0E90243BDE8FF9F6FEA0B01F4E7CBF1D3
:1050B0000000DEE7074612E0F80707D02246334635
:1050C00040464946FBF7C9F98046894622463346A1
:1050D00010461946FBF7C1F904460E467F10002F13
:1050E000EAD1DDE90201BAF1000F42464B4602DA8D
:1050F000FBF7B3F901E0FBF722FA04460E46002263
:10510000284BFBF739FB03D84FF0FF30014607E08F
:105110000022254B20463146FBF7F8F8FBF713FB3E
:10512000102409E0002C0ADB0A220023FBF79CF87C
:10513000019B30321A55641E50EA0102F2D1641C00
:10514000019AC4F1110314440F9A012A03D00122D9
:1051500008430DD10AE0084304D000204FF0110BA2
:105160000F9080E7A3EB0B056D1E0DE05B4504DDA2
:105170004FF0000205F1010504E003DA4FF00002F0
:10518000A5F10105002AECD000980F99C0E9023181
:10519000C0E9004586E70000000024400000F03F21
:1051A000300000000000F0430000E03F2DE9FF4F19
:1051B00095B09B468946064600250FE2252877D103
:1051C00000242746F84A0121059400E0044316F81C
:1051D000013F203B01FA03F01042F7D130782A2832
:1051E00011D06FF02F033078A0F13002092A16D8C1
:1051F000059A44F0020402EB820203EB42021044DF
:10520000761C0590EFE759F8042B0592002A03DA83
:10521000504244F40054059044F00204761C307867
:105220002E2816D116F8010F44F004042A280DD0B8
:105230006FF02F023078A0F13003092B09D807EB6B
:10524000870302EB4303C718761CF3E759F8047B86
:10525000761C30786C280FD006DC4C2817D06828D4
:105260000DD06A2814D104E0742810D07A280FD108
:105270000DE044F400140AE044F4801401E044F426
:1052800040147278824202D104F58014761C761C98
:10529000307866280BD013DC582877D009DC00283A
:1052A00075D04528F6D04628F4D047281AD19DE17C
:1052B00018E0632835D0642879D0652812D195E1AB
:1052C000702873D008DC6728F1D069286FD06E2869
:1052D0000DD06F2806D1B5E073282CD0752875D075
:1052E000782874D05A46179990476D1C75E1C4F31D
:1052F0000250022809D003280DD0D9F80010042844
:105300000DD00D6009F1040967E1D9F80010EA1722
:10531000C1E90052F6E7D9F800100D80F2E70D70F0
:10532000F0E719F8041B8DF8001000208DF801003B
:10533000EA46012003E059F804AB4FF0FF30610763
:105340004FF0000102D40DE008F101018846B94296
:105350000FDA8045F8DB1AF808100029F4D108E0CC
:1053600008F1010188468142FADB1AF80810002989
:10537000F6D105985B46A0EB080721463846179AF8
:1053800000F094FA284400EB080507E04DE029E11D
:105390000DE01AF8010B5A4617999047B8F1010829
:1053A000F7D25B4621463846179A13E142E00A22BB
:1053B0000092C4F302524FF0000A022A08D059F8B2
:1053C00004CB032A4FEAEC710AD00DE029E02AE071
:1053D00009F1070121F00702F2E802C1914609E054
:1053E0000FFA8CFC4FEAEC71042A03D14FFA8CFCC3
:1053F0004FEAEC71002907DA0A460021DCF1000CC3
:1054000061EB02012D2202E0220504D52B228DF84A
:105410000420012203E0E20701D02022F7E79046B2
:1054200059E00A2102E010220DE010214FF0000A9D
:1054300000910BE010224FF0000A44F0040408270A
:10544000009203E008224FF0000A0092C4F30252D7
:10545000022A05D059F804CB0021032A08D009E01C
:1054600009F1070121F00702F2E802C1914605E0C7
:105470001FFA8CFC042A01D10CF0FF0C4FF000083D
:10548000220728D5702806D0009B83F0100353EA2A
:105490000A0305D00EE040228DF80420012208E026
:1054A0005CEA010206D030228DF804208DF8050058
:1054B00002229046009B83F0080353EA0A030AD1B4
:1054C0005CEA010201D1620705D530228DF8042083
:1054D0004FF001087F1E582804D034A003900EA876
:1054E00002900DE036A0F9E753466046009AFAF7BD
:1054F000BBFE84460398825C0298401E02900270B4
:105500005CEA0100F0D1029806A9081A00F1200A0D
:10551000600702D524F4803400E00127574502DDFE
:10552000A7EB0A0000E0002000EB0A0100900598BC
:105530004144401A0590E00306D45B462146179A81
:10554000059800F0B3F90544002706E001A85A4683
:10555000C05D179990476D1C7F1C4745F6DBE00343
:105560000CD55B462146179A059800F09FF9054433
:1055700004E030205A46179990476D1C0099481E48
:1055800000900029F5DC08E0029802995A4600785C
:10559000491C0291179990476D1CBAF10001AAF1BC
:1055A000010AF1DC65E100000928010030313233E5
:1055B000343536373839616263646566000000004F
:1055C0003031323334353637383941424344454639
:1055D0000000000000F058F90544761C30780028DF
:1055E0007FF4ECAD19B02846BDE8F08F620700D417
:1055F000062709F1070222F0070CFCE80223E14626
:1056000003F000485FEA080C02D00FF2702C0DE0A6
:105610005FEA045C02D50FF2682C07E05FEAC47C05
:1056200002D00FF2602C01E0AFF2700C4FF0FF38A7
:1056300023F00043CDF850C065280CD006DC452887
:1056400009D046281DD047283DD13DE0662818D016
:1056500067287ED138E00021112F01DB112000E006
:10566000781CCDE9000106A90EA8FFF7EDFCDDE9E5
:105670000F010E9A03910021009207F1010A049193
:105680004DE04FF000400097CDE9011006A90EA8AB
:10569000FFF7DAFCDDE90F0203920E9B119900225D
:1056A000DDF80CA00093049211B9791C00EB010AFB
:1056B000B7EB0A0004D4C0F1FF3007F1010A0490EF
:1056C000AAEB0700019044E0012F00DA0127002136
:1056D000112F01DD112000E03846CDE9000106A9B7
:1056E0000EA8FFF7B1FCDDE90F010E9A039100212E
:1056F00004910092BA4621070CD40399514500DA6F
:105700008A46BAF1010F05DD009AAAF10101515C48
:10571000302908D0B84202DA10F1040F06DA01216C
:10572000CDE9011015E0AAF10101E9E7002805DC47
:10573000049901440491AAEB000102E0411C514587
:1057400000DD8A460499401A401C01904FF0004049
:105750000290200704D40198504501DBCDF8048065
:1057600000208DF84F0002980DF14F07B0F1004F67
:1057700025D02B200E9002984FF0020800280CDA5A
:10578000404202902D200E9007E00A210298FAF77D
:1057900045FF3031029007F8011DB8F10001A8F172
:1057A0000108F2DC02980028EFD1791E0E980870EB
:1057B000307800F0200040F0450007F8020D12A8F4
:1057C000C01B00F107081498007800B1012000EB1D
:1057D0000A01019801EBE07105984144401A401E0E
:1057E0000590E00306D45B462146179A059800F021
:1057F0005DF805441498007818B15A4617999047F7
:105800006D1CE00324D55B462146179A059800F0ED
:105810004DF805441CE00498002807DBDDE903018E
:10582000884203DD0098405C179901E01799302009
:105830005A469047049805F10105401C04900198D0
:10584000401E019004D12E205A46179990476D1C96
:10585000BAF10001AAF1010ADDDC05E017F8010B3D
:105860005A46179990476D1CB8F10001A8F101083C
:10587000F4DC5B462146179A0598ABE62D00000044
:105880002B000000200000002DE9F0410446002517
:105890001E461746880404D405E039462020B04748
:1058A0006D1C641EF9D52846BDE8F0812DE9F04154
:1058B000044600251E469046C80301D5302700E067
:1058C0002027880404D505E041463846B0476D1CC2
:1058D000641EF9D52846BDE8F0810A68531C0B60A8
:1058E000107070472DE9FF5F8CB01AACF0CC00BF90
:1058F00000BFDDE90C10711A77EB00000BD2361CEB
:1059000047F580770023DDE91EC01CEB030140F55D
:105910008070CDE91E10DDE91E10891BB84106D24A
:10592000DDE91E10091C40F58070CDE91E10DDE98F
:105930000E01201A75EB010009D2241C45F5807573
:10594000DDE92001001C41F58071CDE92001DDE990
:105950002010091BA84108D20022DDE920C01CEB61
:10596000020140F58070CDE92010DDE90C01B6EBB5
:10597000000867EB0109DDE92010091B60EB050059
:10598000CDE90A10DDE91E108B1B60EB0700CDE9A5
:105990000830DDE90E12611A65EB0200CDE9061050
:1059A000DDE90A01A8FB00C209FB002008FB010A8F
:1059B00006A90EC9A3FB01BE099800FB01E003FB89
:1059C0000200BCEB0B017AEB000A07D200222298FE
:1059D00002604260002010B0BDE8F09FDDE90A01DE
:1059E000A8FB00C209FB002008FB010ADDE9061242
:1059F000DDE90803A0FB01BE03FB01E100FB02108F
:105A0000BCEB0B016AEB000ACDE9001ADDE90A10D4
:105A100018EB010349EB0000DDE908219B18414127
:105A2000DDE906209A1841410B46CDE90221DDE966
:105A30000001FAF719FCCDE904014BF237734FF07E
:105A4000000CDDE90401A0FB032A01FB03A100FB1C
:105A50000C10CDE90220054A6346DDE90201FAF7A0
:105A600003FC229A03C20120B5E70000A0860100D2
:105A700010B503210F20FBF77DFC044604F08000E5
:105A800004F04001B0EB410F04D0012203210D20AE
:105A9000FBF747FE10BD000070B504460D4601221D
:105AA00011024FF09040FCF75DF8E0B20949088020
:105AB00000BF08480C38006800F040000028F8D00B
:105AC00000224FF480714FF09040FCF74BF82046D5
:105AD00070BD000028380140024600210EE0C1EBF5
